{
	"contracts/Poketmon.sol": {
		"Poketmon": {
			"abi": [
				{
					"inputs": [],
					"stateMutability": "nonpayable",
					"type": "constructor"
				},
				{
					"inputs": [
						{
							"internalType": "address",
							"name": "",
							"type": "address"
						},
						{
							"internalType": "address",
							"name": "",
							"type": "address"
						}
					],
					"name": "allowance",
					"outputs": [
						{
							"internalType": "uint256",
							"name": "",
							"type": "uint256"
						}
					],
					"stateMutability": "view",
					"type": "function"
				},
				{
					"inputs": [
						{
							"internalType": "address",
							"name": "spender",
							"type": "address"
						},
						{
							"internalType": "uint256",
							"name": "amount",
							"type": "uint256"
						}
					],
					"name": "approve",
					"outputs": [
						{
							"internalType": "bool",
							"name": "",
							"type": "bool"
						}
					],
					"stateMutability": "nonpayable",
					"type": "function"
				},
				{
					"inputs": [
						{
							"internalType": "address",
							"name": "account",
							"type": "address"
						}
					],
					"name": "balanceOf",
					"outputs": [
						{
							"internalType": "uint256",
							"name": "",
							"type": "uint256"
						}
					],
					"stateMutability": "view",
					"type": "function"
				},
				{
					"inputs": [
						{
							"internalType": "address",
							"name": "",
							"type": "address"
						}
					],
					"name": "balances",
					"outputs": [
						{
							"internalType": "uint256",
							"name": "",
							"type": "uint256"
						}
					],
					"stateMutability": "view",
					"type": "function"
				},
				{
					"inputs": [
						{
							"internalType": "uint256",
							"name": "amount",
							"type": "uint256"
						}
					],
					"name": "burn",
					"outputs": [],
					"stateMutability": "nonpayable",
					"type": "function"
				},
				{
					"inputs": [],
					"name": "buyPoketmon",
					"outputs": [],
					"stateMutability": "nonpayable",
					"type": "function"
				},
				{
					"inputs": [],
					"name": "decimals",
					"outputs": [
						{
							"internalType": "uint8",
							"name": "",
							"type": "uint8"
						}
					],
					"stateMutability": "view",
					"type": "function"
				},
				{
					"inputs": [],
					"name": "getPoketmon",
					"outputs": [
						{
							"components": [
								{
									"internalType": "string",
									"name": "url",
									"type": "string"
								},
								{
									"internalType": "string",
									"name": "name",
									"type": "string"
								}
							],
							"internalType": "struct Poketmon.Pokets[]",
							"name": "",
							"type": "tuple[]"
						}
					],
					"stateMutability": "view",
					"type": "function"
				},
				{
					"inputs": [],
					"name": "getPoketmonUsers",
					"outputs": [
						{
							"components": [
								{
									"internalType": "address",
									"name": "account",
									"type": "address"
								}
							],
							"internalType": "struct Poketmon.Users[]",
							"name": "",
							"type": "tuple[]"
						}
					],
					"stateMutability": "view",
					"type": "function"
				},
				{
					"inputs": [],
					"name": "name",
					"outputs": [
						{
							"internalType": "string",
							"name": "",
							"type": "string"
						}
					],
					"stateMutability": "view",
					"type": "function"
				},
				{
					"inputs": [
						{
							"internalType": "address",
							"name": "",
							"type": "address"
						},
						{
							"internalType": "uint256",
							"name": "",
							"type": "uint256"
						}
					],
					"name": "poketmons",
					"outputs": [
						{
							"internalType": "string",
							"name": "url",
							"type": "string"
						},
						{
							"internalType": "string",
							"name": "name",
							"type": "string"
						}
					],
					"stateMutability": "view",
					"type": "function"
				},
				{
					"inputs": [],
					"name": "symbol",
					"outputs": [
						{
							"internalType": "string",
							"name": "",
							"type": "string"
						}
					],
					"stateMutability": "view",
					"type": "function"
				},
				{
					"inputs": [],
					"name": "totalSupply",
					"outputs": [
						{
							"internalType": "uint256",
							"name": "",
							"type": "uint256"
						}
					],
					"stateMutability": "view",
					"type": "function"
				},
				{
					"inputs": [
						{
							"internalType": "address",
							"name": "to",
							"type": "address"
						},
						{
							"internalType": "uint256",
							"name": "amount",
							"type": "uint256"
						}
					],
					"name": "transfer",
					"outputs": [
						{
							"internalType": "bool",
							"name": "",
							"type": "bool"
						}
					],
					"stateMutability": "nonpayable",
					"type": "function"
				},
				{
					"inputs": [
						{
							"internalType": "address",
							"name": "sender",
							"type": "address"
						},
						{
							"internalType": "address",
							"name": "to",
							"type": "address"
						},
						{
							"internalType": "uint256",
							"name": "amount",
							"type": "uint256"
						}
					],
					"name": "transferFrom",
					"outputs": [
						{
							"internalType": "bool",
							"name": "",
							"type": "bool"
						}
					],
					"stateMutability": "nonpayable",
					"type": "function"
				},
				{
					"inputs": [
						{
							"internalType": "uint256",
							"name": "",
							"type": "uint256"
						}
					],
					"name": "users",
					"outputs": [
						{
							"internalType": "address",
							"name": "account",
							"type": "address"
						}
					],
					"stateMutability": "view",
					"type": "function"
				},
				{
					"stateMutability": "payable",
					"type": "receive"
				}
			],
			"devdoc": {
				"kind": "dev",
				"methods": {},
				"version": 1
			},
			"evm": {
				"assembly": "    /* \"contracts/Poketmon.sol\":81:2046  contract Poketmon is ERC20 {... */\n  mstore(0x40, 0x80)\n    /* \"contracts/ERC20.sol\":275:277  18 */\n  0x12\n    /* \"contracts/ERC20.sol\":251:277  uint8 public decimals = 18 */\n  0x02\n  exp(0x0100, 0x00)\n  dup2\n  sload\n  dup2\n  0xff\n  mul\n  not\n  and\n  swap1\n  dup4\n  0xff\n  and\n  mul\n  or\n  swap1\n  sstore\n  pop\n    /* \"contracts/Poketmon.sol\":467:476  100 ether */\n  0x056bc75e2d63100000\n    /* \"contracts/Poketmon.sol\":438:476  uint256 private tokenPrice = 100 ether */\n  0x07\n  sstore\n    /* \"contracts/Poketmon.sol\":569:625  string[] poketmonName = [\"Pikachu\",\"Kobuk\",\"Charmander\"] */\n  mload(0x40)\n  dup1\n  0x60\n  add\n  0x40\n  mstore\n  dup1\n  mload(0x40)\n  dup1\n  0x40\n  add\n  0x40\n  mstore\n  dup1\n  0x07\n  dup2\n  mstore\n  0x20\n  add\n  0x50696b6163687500000000000000000000000000000000000000000000000000\n  dup2\n  mstore\n  pop\n  dup2\n  mstore\n  0x20\n  add\n  mload(0x40)\n  dup1\n  0x40\n  add\n  0x40\n  mstore\n  dup1\n  0x05\n  dup2\n  mstore\n  0x20\n  add\n  0x4b6f62756b000000000000000000000000000000000000000000000000000000\n  dup2\n  mstore\n  pop\n  dup2\n  mstore\n  0x20\n  add\n  mload(0x40)\n  dup1\n  0x40\n  add\n  0x40\n  mstore\n  dup1\n  0x0a\n  dup2\n  mstore\n  0x20\n  add\n  0x436861726d616e64657200000000000000000000000000000000000000000000\n  dup2\n  mstore\n  pop\n  dup2\n  mstore\n  pop\n  0x08\n  swap1\n  0x03\n  tag_1\n  swap3\n  swap2\n  swap1\n  tag_2\n  jump\t// in\ntag_1:\n  pop\n    /* \"contracts/Poketmon.sol\":655:926  string[] poketmonUrl = [\"https://thumb.mt.co.kr/06/2013/04/2013041421255316218_1.jpg/dims/optimize/\",\"https://appdata.hungryapp.co.kr/profile/201506/29/M14355535972094763.jpg\",\"https://s3.orbi.kr/data/file/united/2950631163_RdGbjcLv_710033550_PQnG7pHD_image_281029.jpeg\"] */\n  mload(0x40)\n  dup1\n  0x60\n  add\n  0x40\n  mstore\n  dup1\n  mload(0x40)\n  dup1\n  0x80\n  add\n  0x40\n  mstore\n  dup1\n  0x4a\n  dup2\n  mstore\n  0x20\n  add\n  data_cb78966caafa9d0d92ed33c70705f72913e7a046b522610c7e56f8f21e5db8b5\n  0x4a\n  swap2\n  codecopy\n  dup2\n  mstore\n  0x20\n  add\n  mload(0x40)\n  dup1\n  0x80\n  add\n  0x40\n  mstore\n  dup1\n  0x48\n  dup2\n  mstore\n  0x20\n  add\n  data_a95b8c71e7e39880f96e1d06338d0fd0f1fe361039fa32fe94c21b3689bb1fde\n  0x48\n  swap2\n  codecopy\n  dup2\n  mstore\n  0x20\n  add\n  mload(0x40)\n  dup1\n  0x80\n  add\n  0x40\n  mstore\n  dup1\n  0x5c\n  dup2\n  mstore\n  0x20\n  add\n  data_b6005045bb50264cb75ada6104ede6d9875364982b6fe4df5531bdad09c7681d\n  0x5c\n  swap2\n  codecopy\n  dup2\n  mstore\n  pop\n  0x09\n  swap1\n  0x03\n  tag_3\n  swap3\n  swap2\n  swap1\n  tag_2\n  jump\t// in\ntag_3:\n  pop\n    /* \"contracts/Poketmon.sol\":112:162  constructor() ERC20(\"Poketmon\",\"PTK\",100000){... */\n  callvalue\n  dup1\n  iszero\n  tag_4\n  jumpi\n  0x00\n  dup1\n  revert\ntag_4:\n  pop\n    /* \"contracts/ERC20.sol\":1110:1298  constructor(string memory _name, string memory _symbol, uint256 _amount){... */\n  mload(0x40)\n  dup1\n  0x40\n  add\n  0x40\n  mstore\n  dup1\n  0x08\n  dup2\n  mstore\n  0x20\n  add\n  0x506f6b65746d6f6e000000000000000000000000000000000000000000000000\n  dup2\n  mstore\n  pop\n  mload(0x40)\n  dup1\n  0x40\n  add\n  0x40\n  mstore\n  dup1\n  0x03\n  dup2\n  mstore\n  0x20\n  add\n  0x50544b0000000000000000000000000000000000000000000000000000000000\n  dup2\n  mstore\n  pop\n    /* \"contracts/Poketmon.sol\":149:155  100000 */\n  0x0186a0\n    /* \"contracts/ERC20.sol\":1196:1206  msg.sender */\n  caller\n    /* \"contracts/ERC20.sol\":1188:1193  owner */\n  0x04\n  0x00\n    /* \"contracts/ERC20.sol\":1188:1206  owner = msg.sender */\n  0x0100\n  exp\n  dup2\n  sload\n  dup2\n  0xffffffffffffffffffffffffffffffffffffffff\n  mul\n  not\n  and\n  swap1\n  dup4\n  0xffffffffffffffffffffffffffffffffffffffff\n  and\n  mul\n  or\n  swap1\n  sstore\n  pop\n    /* \"contracts/ERC20.sol\":1219:1224  _name */\n  dup3\n    /* \"contracts/ERC20.sol\":1212:1216  name */\n  0x00\n    /* \"contracts/ERC20.sol\":1212:1224  name = _name */\n  swap1\n  dup2\n  tag_8\n  swap2\n  swap1\n  tag_9\n  jump\t// in\ntag_8:\n  pop\n    /* \"contracts/ERC20.sol\":1239:1246  _symbol */\n  dup2\n    /* \"contracts/ERC20.sol\":1230:1236  symbol */\n  0x01\n    /* \"contracts/ERC20.sol\":1230:1246  symbol = _symbol */\n  swap1\n  dup2\n  tag_10\n  swap2\n  swap1\n  tag_9\n  jump\t// in\ntag_10:\n  pop\n    /* \"contracts/ERC20.sol\":1252:1293  mint(_amount * (10 ** uint256(decimals))) */\n  tag_11\n    /* \"contracts/ERC20.sol\":1282:1290  decimals */\n  0x02\n  0x00\n  swap1\n  sload\n  swap1\n  0x0100\n  exp\n  swap1\n  div\n  0xff\n  and\n    /* \"contracts/ERC20.sol\":1274:1291  uint256(decimals) */\n  0xff\n  and\n    /* \"contracts/ERC20.sol\":1268:1270  10 */\n  0x0a\n    /* \"contracts/ERC20.sol\":1268:1291  10 ** uint256(decimals) */\n  tag_12\n  swap2\n  swap1\n  tag_13\n  jump\t// in\ntag_12:\n    /* \"contracts/ERC20.sol\":1257:1264  _amount */\n  dup3\n    /* \"contracts/ERC20.sol\":1257:1292  _amount * (10 ** uint256(decimals)) */\n  tag_14\n  swap2\n  swap1\n  tag_15\n  jump\t// in\ntag_14:\n    /* \"contracts/ERC20.sol\":1252:1256  mint */\n  shl(0x20, tag_16)\n    /* \"contracts/ERC20.sol\":1252:1293  mint(_amount * (10 ** uint256(decimals))) */\n  0x20\n  shr\n  jump\t// in\ntag_11:\n    /* \"contracts/ERC20.sol\":1110:1298  constructor(string memory _name, string memory _symbol, uint256 _amount){... */\n  pop\n  pop\n  pop\n    /* \"contracts/Poketmon.sol\":81:2046  contract Poketmon is ERC20 {... */\n  jump(tag_18)\n    /* \"contracts/ERC20.sol\":1308:1412  function mint(uint amount) internal {... */\ntag_16:\n    /* \"contracts/ERC20.sol\":1374:1380  amount */\n  dup1\n    /* \"contracts/ERC20.sol\":1350:1358  balances */\n  0x05\n    /* \"contracts/ERC20.sol\":1350:1370  balances[msg.sender] */\n  0x00\n    /* \"contracts/ERC20.sol\":1359:1369  msg.sender */\n  caller\n    /* \"contracts/ERC20.sol\":1350:1370  balances[msg.sender] */\n  0xffffffffffffffffffffffffffffffffffffffff\n  and\n  0xffffffffffffffffffffffffffffffffffffffff\n  and\n  dup2\n  mstore\n  0x20\n  add\n  swap1\n  dup2\n  mstore\n  0x20\n  add\n  0x00\n  keccak256\n  0x00\n    /* \"contracts/ERC20.sol\":1350:1380  balances[msg.sender] += amount */\n  dup3\n  dup3\n  sload\n  tag_20\n  swap2\n  swap1\n  tag_21\n  jump\t// in\ntag_20:\n  swap3\n  pop\n  pop\n  dup2\n  swap1\n  sstore\n  pop\n    /* \"contracts/ERC20.sol\":1401:1407  amount */\n  dup1\n    /* \"contracts/ERC20.sol\":1386:1397  totalSupply */\n  0x03\n  0x00\n    /* \"contracts/ERC20.sol\":1386:1407  totalSupply += amount */\n  dup3\n  dup3\n  sload\n  tag_22\n  swap2\n  swap1\n  tag_21\n  jump\t// in\ntag_22:\n  swap3\n  pop\n  pop\n  dup2\n  swap1\n  sstore\n  pop\n    /* \"contracts/ERC20.sol\":1308:1412  function mint(uint amount) internal {... */\n  pop\n  jump\t// out\n    /* \"contracts/Poketmon.sol\":81:2046  contract Poketmon is ERC20 {... */\ntag_2:\n  dup3\n  dup1\n  sload\n  dup3\n  dup3\n  sstore\n  swap1\n  0x00\n  mstore\n  keccak256(0x00, 0x20)\n  swap1\n  dup2\n  add\n  swap3\n  dup3\n  iszero\n  tag_23\n  jumpi\n  swap2\n  0x20\n  mul\n  dup3\n  add\ntag_24:\n  dup3\n  dup2\n  gt\n  iszero\n  tag_25\n  jumpi\n  dup3\n  mload\n  dup3\n  swap1\n  dup2\n  tag_26\n  swap2\n  swap1\n  tag_9\n  jump\t// in\ntag_26:\n  pop\n  swap2\n  0x20\n  add\n  swap2\n  swap1\n  0x01\n  add\n  swap1\n  jump(tag_24)\ntag_25:\ntag_23:\n  pop\n  swap1\n  pop\n  tag_27\n  swap2\n  swap1\n  tag_28\n  jump\t// in\ntag_27:\n  pop\n  swap1\n  jump\t// out\ntag_28:\ntag_29:\n  dup1\n  dup3\n  gt\n  iszero\n  tag_30\n  jumpi\n  0x00\n  dup2\n  dup2\n  tag_31\n  swap2\n  swap1\n  tag_32\n  jump\t// in\ntag_31:\n  pop\n  0x01\n  add\n  jump(tag_29)\ntag_30:\n  pop\n  swap1\n  jump\t// out\ntag_32:\n  pop\n  dup1\n  sload\n  tag_33\n  swap1\n  tag_34\n  jump\t// in\ntag_33:\n  0x00\n  dup3\n  sstore\n  dup1\n  0x1f\n  lt\n  tag_36\n  jumpi\n  pop\n  jump(tag_35)\ntag_36:\n  0x1f\n  add\n  0x20\n  swap1\n  div\n  swap1\n  0x00\n  mstore\n  keccak256(0x00, 0x20)\n  swap1\n  dup2\n  add\n  swap1\n  tag_37\n  swap2\n  swap1\n  tag_38\n  jump\t// in\ntag_37:\ntag_35:\n  pop\n  jump\t// out\ntag_38:\ntag_39:\n  dup1\n  dup3\n  gt\n  iszero\n  tag_40\n  jumpi\n  0x00\n  dup2\n  0x00\n  swap1\n  sstore\n  pop\n  0x01\n  add\n  jump(tag_39)\ntag_40:\n  pop\n  swap1\n  jump\t// out\n    /* \"#utility.yul\":7:106   */\ntag_41:\n    /* \"#utility.yul\":59:65   */\n  0x00\n    /* \"#utility.yul\":93:98   */\n  dup2\n    /* \"#utility.yul\":87:99   */\n  mload\n    /* \"#utility.yul\":77:99   */\n  swap1\n  pop\n    /* \"#utility.yul\":7:106   */\n  swap2\n  swap1\n  pop\n  jump\t// out\n    /* \"#utility.yul\":112:292   */\ntag_42:\n    /* \"#utility.yul\":160:237   */\n  0x4e487b7100000000000000000000000000000000000000000000000000000000\n    /* \"#utility.yul\":157:158   */\n  0x00\n    /* \"#utility.yul\":150:238   */\n  mstore\n    /* \"#utility.yul\":257:261   */\n  0x41\n    /* \"#utility.yul\":254:255   */\n  0x04\n    /* \"#utility.yul\":247:262   */\n  mstore\n    /* \"#utility.yul\":281:285   */\n  0x24\n    /* \"#utility.yul\":278:279   */\n  0x00\n    /* \"#utility.yul\":271:286   */\n  revert\n    /* \"#utility.yul\":298:478   */\ntag_43:\n    /* \"#utility.yul\":346:423   */\n  0x4e487b7100000000000000000000000000000000000000000000000000000000\n    /* \"#utility.yul\":343:344   */\n  0x00\n    /* \"#utility.yul\":336:424   */\n  mstore\n    /* \"#utility.yul\":443:447   */\n  0x22\n    /* \"#utility.yul\":440:441   */\n  0x04\n    /* \"#utility.yul\":433:448   */\n  mstore\n    /* \"#utility.yul\":467:471   */\n  0x24\n    /* \"#utility.yul\":464:465   */\n  0x00\n    /* \"#utility.yul\":457:472   */\n  revert\n    /* \"#utility.yul\":484:804   */\ntag_34:\n    /* \"#utility.yul\":528:534   */\n  0x00\n    /* \"#utility.yul\":565:566   */\n  0x02\n    /* \"#utility.yul\":559:563   */\n  dup3\n    /* \"#utility.yul\":555:567   */\n  div\n    /* \"#utility.yul\":545:567   */\n  swap1\n  pop\n    /* \"#utility.yul\":612:613   */\n  0x01\n    /* \"#utility.yul\":606:610   */\n  dup3\n    /* \"#utility.yul\":602:614   */\n  and\n    /* \"#utility.yul\":633:651   */\n  dup1\n    /* \"#utility.yul\":623:704   */\n  tag_69\n  jumpi\n    /* \"#utility.yul\":689:693   */\n  0x7f\n    /* \"#utility.yul\":681:687   */\n  dup3\n    /* \"#utility.yul\":677:694   */\n  and\n    /* \"#utility.yul\":667:694   */\n  swap2\n  pop\n    /* \"#utility.yul\":623:704   */\ntag_69:\n    /* \"#utility.yul\":751:753   */\n  0x20\n    /* \"#utility.yul\":743:749   */\n  dup3\n    /* \"#utility.yul\":740:754   */\n  lt\n    /* \"#utility.yul\":720:738   */\n  dup2\n    /* \"#utility.yul\":717:755   */\n  sub\n    /* \"#utility.yul\":714:798   */\n  tag_70\n  jumpi\n    /* \"#utility.yul\":770:788   */\n  tag_71\n  tag_43\n  jump\t// in\ntag_71:\n    /* \"#utility.yul\":714:798   */\ntag_70:\n    /* \"#utility.yul\":535:804   */\n  pop\n    /* \"#utility.yul\":484:804   */\n  swap2\n  swap1\n  pop\n  jump\t// out\n    /* \"#utility.yul\":810:951   */\ntag_44:\n    /* \"#utility.yul\":859:863   */\n  0x00\n    /* \"#utility.yul\":882:885   */\n  dup2\n    /* \"#utility.yul\":874:885   */\n  swap1\n  pop\n    /* \"#utility.yul\":905:908   */\n  dup2\n    /* \"#utility.yul\":902:903   */\n  0x00\n    /* \"#utility.yul\":895:909   */\n  mstore\n    /* \"#utility.yul\":939:943   */\n  0x20\n    /* \"#utility.yul\":936:937   */\n  0x00\n    /* \"#utility.yul\":926:944   */\n  keccak256\n    /* \"#utility.yul\":918:944   */\n  swap1\n  pop\n    /* \"#utility.yul\":810:951   */\n  swap2\n  swap1\n  pop\n  jump\t// out\n    /* \"#utility.yul\":957:1050   */\ntag_45:\n    /* \"#utility.yul\":994:1000   */\n  0x00\n    /* \"#utility.yul\":1041:1043   */\n  0x20\n    /* \"#utility.yul\":1036:1038   */\n  0x1f\n    /* \"#utility.yul\":1029:1034   */\n  dup4\n    /* \"#utility.yul\":1025:1039   */\n  add\n    /* \"#utility.yul\":1021:1044   */\n  div\n    /* \"#utility.yul\":1011:1044   */\n  swap1\n  pop\n    /* \"#utility.yul\":957:1050   */\n  swap2\n  swap1\n  pop\n  jump\t// out\n    /* \"#utility.yul\":1056:1163   */\ntag_46:\n    /* \"#utility.yul\":1100:1108   */\n  0x00\n    /* \"#utility.yul\":1150:1155   */\n  dup3\n    /* \"#utility.yul\":1144:1148   */\n  dup3\n    /* \"#utility.yul\":1140:1156   */\n  shl\n    /* \"#utility.yul\":1119:1156   */\n  swap1\n  pop\n    /* \"#utility.yul\":1056:1163   */\n  swap3\n  swap2\n  pop\n  pop\n  jump\t// out\n    /* \"#utility.yul\":1169:1562   */\ntag_47:\n    /* \"#utility.yul\":1238:1244   */\n  0x00\n    /* \"#utility.yul\":1288:1289   */\n  0x08\n    /* \"#utility.yul\":1276:1286   */\n  dup4\n    /* \"#utility.yul\":1272:1290   */\n  mul\n    /* \"#utility.yul\":1311:1408   */\n  tag_76\n    /* \"#utility.yul\":1341:1407   */\n  0xffffffffffffffffffffffffffffffffffffffffffffffffffffffffffffffff\n    /* \"#utility.yul\":1330:1339   */\n  dup3\n    /* \"#utility.yul\":1311:1408   */\n  tag_46\n  jump\t// in\ntag_76:\n    /* \"#utility.yul\":1429:1468   */\n  tag_77\n    /* \"#utility.yul\":1459:1467   */\n  dup7\n    /* \"#utility.yul\":1448:1457   */\n  dup4\n    /* \"#utility.yul\":1429:1468   */\n  tag_46\n  jump\t// in\ntag_77:\n    /* \"#utility.yul\":1417:1468   */\n  swap6\n  pop\n    /* \"#utility.yul\":1501:1505   */\n  dup1\n    /* \"#utility.yul\":1497:1506   */\n  not\n    /* \"#utility.yul\":1490:1495   */\n  dup5\n    /* \"#utility.yul\":1486:1507   */\n  and\n    /* \"#utility.yul\":1477:1507   */\n  swap4\n  pop\n    /* \"#utility.yul\":1550:1554   */\n  dup1\n    /* \"#utility.yul\":1540:1548   */\n  dup7\n    /* \"#utility.yul\":1536:1555   */\n  and\n    /* \"#utility.yul\":1529:1534   */\n  dup5\n    /* \"#utility.yul\":1526:1556   */\n  or\n    /* \"#utility.yul\":1516:1556   */\n  swap3\n  pop\n    /* \"#utility.yul\":1245:1562   */\n  pop\n  pop\n    /* \"#utility.yul\":1169:1562   */\n  swap4\n  swap3\n  pop\n  pop\n  pop\n  jump\t// out\n    /* \"#utility.yul\":1568:1645   */\ntag_48:\n    /* \"#utility.yul\":1605:1612   */\n  0x00\n    /* \"#utility.yul\":1634:1639   */\n  dup2\n    /* \"#utility.yul\":1623:1639   */\n  swap1\n  pop\n    /* \"#utility.yul\":1568:1645   */\n  swap2\n  swap1\n  pop\n  jump\t// out\n    /* \"#utility.yul\":1651:1711   */\ntag_49:\n    /* \"#utility.yul\":1679:1682   */\n  0x00\n    /* \"#utility.yul\":1700:1705   */\n  dup2\n    /* \"#utility.yul\":1693:1705   */\n  swap1\n  pop\n    /* \"#utility.yul\":1651:1711   */\n  swap2\n  swap1\n  pop\n  jump\t// out\n    /* \"#utility.yul\":1717:1859   */\ntag_50:\n    /* \"#utility.yul\":1767:1776   */\n  0x00\n    /* \"#utility.yul\":1800:1853   */\n  tag_81\n    /* \"#utility.yul\":1818:1852   */\n  tag_82\n    /* \"#utility.yul\":1827:1851   */\n  tag_83\n    /* \"#utility.yul\":1845:1850   */\n  dup5\n    /* \"#utility.yul\":1827:1851   */\n  tag_48\n  jump\t// in\ntag_83:\n    /* \"#utility.yul\":1818:1852   */\n  tag_49\n  jump\t// in\ntag_82:\n    /* \"#utility.yul\":1800:1853   */\n  tag_48\n  jump\t// in\ntag_81:\n    /* \"#utility.yul\":1787:1853   */\n  swap1\n  pop\n    /* \"#utility.yul\":1717:1859   */\n  swap2\n  swap1\n  pop\n  jump\t// out\n    /* \"#utility.yul\":1865:1940   */\ntag_51:\n    /* \"#utility.yul\":1908:1911   */\n  0x00\n    /* \"#utility.yul\":1929:1934   */\n  dup2\n    /* \"#utility.yul\":1922:1934   */\n  swap1\n  pop\n    /* \"#utility.yul\":1865:1940   */\n  swap2\n  swap1\n  pop\n  jump\t// out\n    /* \"#utility.yul\":1946:2215   */\ntag_52:\n    /* \"#utility.yul\":2056:2095   */\n  tag_86\n    /* \"#utility.yul\":2087:2094   */\n  dup4\n    /* \"#utility.yul\":2056:2095   */\n  tag_50\n  jump\t// in\ntag_86:\n    /* \"#utility.yul\":2117:2208   */\n  tag_87\n    /* \"#utility.yul\":2166:2207   */\n  tag_88\n    /* \"#utility.yul\":2190:2206   */\n  dup3\n    /* \"#utility.yul\":2166:2207   */\n  tag_51\n  jump\t// in\ntag_88:\n    /* \"#utility.yul\":2158:2164   */\n  dup5\n    /* \"#utility.yul\":2151:2155   */\n  dup5\n    /* \"#utility.yul\":2145:2156   */\n  sload\n    /* \"#utility.yul\":2117:2208   */\n  tag_47\n  jump\t// in\ntag_87:\n    /* \"#utility.yul\":2111:2115   */\n  dup3\n    /* \"#utility.yul\":2104:2209   */\n  sstore\n    /* \"#utility.yul\":2022:2215   */\n  pop\n    /* \"#utility.yul\":1946:2215   */\n  pop\n  pop\n  pop\n  jump\t// out\n    /* \"#utility.yul\":2221:2294   */\ntag_53:\n    /* \"#utility.yul\":2266:2269   */\n  0x00\n    /* \"#utility.yul\":2221:2294   */\n  swap1\n  jump\t// out\n    /* \"#utility.yul\":2300:2489   */\ntag_54:\n    /* \"#utility.yul\":2377:2409   */\n  tag_91\n  tag_53\n  jump\t// in\ntag_91:\n    /* \"#utility.yul\":2418:2483   */\n  tag_92\n    /* \"#utility.yul\":2476:2482   */\n  dup2\n    /* \"#utility.yul\":2468:2474   */\n  dup5\n    /* \"#utility.yul\":2462:2466   */\n  dup5\n    /* \"#utility.yul\":2418:2483   */\n  tag_52\n  jump\t// in\ntag_92:\n    /* \"#utility.yul\":2353:2489   */\n  pop\n    /* \"#utility.yul\":2300:2489   */\n  pop\n  pop\n  jump\t// out\n    /* \"#utility.yul\":2495:2681   */\ntag_55:\n    /* \"#utility.yul\":2555:2675   */\ntag_94:\n    /* \"#utility.yul\":2572:2575   */\n  dup2\n    /* \"#utility.yul\":2565:2570   */\n  dup2\n    /* \"#utility.yul\":2562:2576   */\n  lt\n    /* \"#utility.yul\":2555:2675   */\n  iszero\n  tag_96\n  jumpi\n    /* \"#utility.yul\":2626:2665   */\n  tag_97\n    /* \"#utility.yul\":2663:2664   */\n  0x00\n    /* \"#utility.yul\":2656:2661   */\n  dup3\n    /* \"#utility.yul\":2626:2665   */\n  tag_54\n  jump\t// in\ntag_97:\n    /* \"#utility.yul\":2599:2600   */\n  0x01\n    /* \"#utility.yul\":2592:2597   */\n  dup2\n    /* \"#utility.yul\":2588:2601   */\n  add\n    /* \"#utility.yul\":2579:2601   */\n  swap1\n  pop\n    /* \"#utility.yul\":2555:2675   */\n  jump(tag_94)\ntag_96:\n    /* \"#utility.yul\":2495:2681   */\n  pop\n  pop\n  jump\t// out\n    /* \"#utility.yul\":2687:3230   */\ntag_56:\n    /* \"#utility.yul\":2788:2790   */\n  0x1f\n    /* \"#utility.yul\":2783:2786   */\n  dup3\n    /* \"#utility.yul\":2780:2791   */\n  gt\n    /* \"#utility.yul\":2777:3223   */\n  iszero\n  tag_99\n  jumpi\n    /* \"#utility.yul\":2822:2860   */\n  tag_100\n    /* \"#utility.yul\":2854:2859   */\n  dup2\n    /* \"#utility.yul\":2822:2860   */\n  tag_44\n  jump\t// in\ntag_100:\n    /* \"#utility.yul\":2906:2935   */\n  tag_101\n    /* \"#utility.yul\":2924:2934   */\n  dup5\n    /* \"#utility.yul\":2906:2935   */\n  tag_45\n  jump\t// in\ntag_101:\n    /* \"#utility.yul\":2896:2904   */\n  dup2\n    /* \"#utility.yul\":2892:2936   */\n  add\n    /* \"#utility.yul\":3089:3091   */\n  0x20\n    /* \"#utility.yul\":3077:3087   */\n  dup6\n    /* \"#utility.yul\":3074:3092   */\n  lt\n    /* \"#utility.yul\":3071:3120   */\n  iszero\n  tag_102\n  jumpi\n    /* \"#utility.yul\":3110:3118   */\n  dup2\n    /* \"#utility.yul\":3095:3118   */\n  swap1\n  pop\n    /* \"#utility.yul\":3071:3120   */\ntag_102:\n    /* \"#utility.yul\":3133:3213   */\n  tag_103\n    /* \"#utility.yul\":3189:3211   */\n  tag_104\n    /* \"#utility.yul\":3207:3210   */\n  dup6\n    /* \"#utility.yul\":3189:3211   */\n  tag_45\n  jump\t// in\ntag_104:\n    /* \"#utility.yul\":3179:3187   */\n  dup4\n    /* \"#utility.yul\":3175:3212   */\n  add\n    /* \"#utility.yul\":3162:3173   */\n  dup3\n    /* \"#utility.yul\":3133:3213   */\n  tag_55\n  jump\t// in\ntag_103:\n    /* \"#utility.yul\":2792:3223   */\n  pop\n  pop\n    /* \"#utility.yul\":2777:3223   */\ntag_99:\n    /* \"#utility.yul\":2687:3230   */\n  pop\n  pop\n  pop\n  jump\t// out\n    /* \"#utility.yul\":3236:3353   */\ntag_57:\n    /* \"#utility.yul\":3290:3298   */\n  0x00\n    /* \"#utility.yul\":3340:3345   */\n  dup3\n    /* \"#utility.yul\":3334:3338   */\n  dup3\n    /* \"#utility.yul\":3330:3346   */\n  shr\n    /* \"#utility.yul\":3309:3346   */\n  swap1\n  pop\n    /* \"#utility.yul\":3236:3353   */\n  swap3\n  swap2\n  pop\n  pop\n  jump\t// out\n    /* \"#utility.yul\":3359:3528   */\ntag_58:\n    /* \"#utility.yul\":3403:3409   */\n  0x00\n    /* \"#utility.yul\":3436:3487   */\n  tag_107\n    /* \"#utility.yul\":3484:3485   */\n  0x00\n    /* \"#utility.yul\":3480:3486   */\n  not\n    /* \"#utility.yul\":3472:3477   */\n  dup5\n    /* \"#utility.yul\":3469:3470   */\n  0x08\n    /* \"#utility.yul\":3465:3478   */\n  mul\n    /* \"#utility.yul\":3436:3487   */\n  tag_57\n  jump\t// in\ntag_107:\n    /* \"#utility.yul\":3432:3488   */\n  not\n    /* \"#utility.yul\":3517:3521   */\n  dup1\n    /* \"#utility.yul\":3511:3515   */\n  dup4\n    /* \"#utility.yul\":3507:3522   */\n  and\n    /* \"#utility.yul\":3497:3522   */\n  swap2\n  pop\n    /* \"#utility.yul\":3410:3528   */\n  pop\n    /* \"#utility.yul\":3359:3528   */\n  swap3\n  swap2\n  pop\n  pop\n  jump\t// out\n    /* \"#utility.yul\":3533:3828   */\ntag_59:\n    /* \"#utility.yul\":3609:3613   */\n  0x00\n    /* \"#utility.yul\":3755:3784   */\n  tag_109\n    /* \"#utility.yul\":3780:3783   */\n  dup4\n    /* \"#utility.yul\":3774:3778   */\n  dup4\n    /* \"#utility.yul\":3755:3784   */\n  tag_58\n  jump\t// in\ntag_109:\n    /* \"#utility.yul\":3747:3784   */\n  swap2\n  pop\n    /* \"#utility.yul\":3817:3820   */\n  dup3\n    /* \"#utility.yul\":3814:3815   */\n  0x02\n    /* \"#utility.yul\":3810:3821   */\n  mul\n    /* \"#utility.yul\":3804:3808   */\n  dup3\n    /* \"#utility.yul\":3801:3822   */\n  or\n    /* \"#utility.yul\":3793:3822   */\n  swap1\n  pop\n    /* \"#utility.yul\":3533:3828   */\n  swap3\n  swap2\n  pop\n  pop\n  jump\t// out\n    /* \"#utility.yul\":3833:5228   */\ntag_9:\n    /* \"#utility.yul\":3950:3987   */\n  tag_111\n    /* \"#utility.yul\":3983:3986   */\n  dup3\n    /* \"#utility.yul\":3950:3987   */\n  tag_41\n  jump\t// in\ntag_111:\n    /* \"#utility.yul\":4052:4070   */\n  0xffffffffffffffff\n    /* \"#utility.yul\":4044:4050   */\n  dup2\n    /* \"#utility.yul\":4041:4071   */\n  gt\n    /* \"#utility.yul\":4038:4094   */\n  iszero\n  tag_112\n  jumpi\n    /* \"#utility.yul\":4074:4092   */\n  tag_113\n  tag_42\n  jump\t// in\ntag_113:\n    /* \"#utility.yul\":4038:4094   */\ntag_112:\n    /* \"#utility.yul\":4118:4156   */\n  tag_114\n    /* \"#utility.yul\":4150:4154   */\n  dup3\n    /* \"#utility.yul\":4144:4155   */\n  sload\n    /* \"#utility.yul\":4118:4156   */\n  tag_34\n  jump\t// in\ntag_114:\n    /* \"#utility.yul\":4203:4270   */\n  tag_115\n    /* \"#utility.yul\":4263:4269   */\n  dup3\n    /* \"#utility.yul\":4255:4261   */\n  dup3\n    /* \"#utility.yul\":4249:4253   */\n  dup6\n    /* \"#utility.yul\":4203:4270   */\n  tag_56\n  jump\t// in\ntag_115:\n    /* \"#utility.yul\":4297:4298   */\n  0x00\n    /* \"#utility.yul\":4321:4325   */\n  0x20\n    /* \"#utility.yul\":4308:4325   */\n  swap1\n  pop\n    /* \"#utility.yul\":4353:4355   */\n  0x1f\n    /* \"#utility.yul\":4345:4351   */\n  dup4\n    /* \"#utility.yul\":4342:4356   */\n  gt\n    /* \"#utility.yul\":4370:4371   */\n  0x01\n    /* \"#utility.yul\":4365:4983   */\n  dup2\n  eq\n  tag_117\n  jumpi\n    /* \"#utility.yul\":5027:5028   */\n  0x00\n    /* \"#utility.yul\":5044:5050   */\n  dup5\n    /* \"#utility.yul\":5041:5118   */\n  iszero\n  tag_118\n  jumpi\n    /* \"#utility.yul\":5093:5102   */\n  dup3\n    /* \"#utility.yul\":5088:5091   */\n  dup8\n    /* \"#utility.yul\":5084:5103   */\n  add\n    /* \"#utility.yul\":5078:5104   */\n  mload\n    /* \"#utility.yul\":5069:5104   */\n  swap1\n  pop\n    /* \"#utility.yul\":5041:5118   */\ntag_118:\n    /* \"#utility.yul\":5144:5211   */\n  tag_119\n    /* \"#utility.yul\":5204:5210   */\n  dup6\n    /* \"#utility.yul\":5197:5202   */\n  dup3\n    /* \"#utility.yul\":5144:5211   */\n  tag_59\n  jump\t// in\ntag_119:\n    /* \"#utility.yul\":5138:5142   */\n  dup7\n    /* \"#utility.yul\":5131:5212   */\n  sstore\n    /* \"#utility.yul\":5000:5222   */\n  pop\n    /* \"#utility.yul\":4335:5222   */\n  jump(tag_116)\n    /* \"#utility.yul\":4365:4983   */\ntag_117:\n    /* \"#utility.yul\":4417:4421   */\n  0x1f\n    /* \"#utility.yul\":4413:4422   */\n  not\n    /* \"#utility.yul\":4405:4411   */\n  dup5\n    /* \"#utility.yul\":4401:4423   */\n  and\n    /* \"#utility.yul\":4451:4488   */\n  tag_120\n    /* \"#utility.yul\":4483:4487   */\n  dup7\n    /* \"#utility.yul\":4451:4488   */\n  tag_44\n  jump\t// in\ntag_120:\n    /* \"#utility.yul\":4510:4511   */\n  0x00\n    /* \"#utility.yul\":4524:4732   */\ntag_121:\n    /* \"#utility.yul\":4538:4545   */\n  dup3\n    /* \"#utility.yul\":4535:4536   */\n  dup2\n    /* \"#utility.yul\":4532:4546   */\n  lt\n    /* \"#utility.yul\":4524:4732   */\n  iszero\n  tag_123\n  jumpi\n    /* \"#utility.yul\":4617:4626   */\n  dup5\n    /* \"#utility.yul\":4612:4615   */\n  dup10\n    /* \"#utility.yul\":4608:4627   */\n  add\n    /* \"#utility.yul\":4602:4628   */\n  mload\n    /* \"#utility.yul\":4594:4600   */\n  dup3\n    /* \"#utility.yul\":4587:4629   */\n  sstore\n    /* \"#utility.yul\":4668:4669   */\n  0x01\n    /* \"#utility.yul\":4660:4666   */\n  dup3\n    /* \"#utility.yul\":4656:4670   */\n  add\n    /* \"#utility.yul\":4646:4670   */\n  swap2\n  pop\n    /* \"#utility.yul\":4715:4717   */\n  0x20\n    /* \"#utility.yul\":4704:4713   */\n  dup6\n    /* \"#utility.yul\":4700:4718   */\n  add\n    /* \"#utility.yul\":4687:4718   */\n  swap5\n  pop\n    /* \"#utility.yul\":4561:4565   */\n  0x20\n    /* \"#utility.yul\":4558:4559   */\n  dup2\n    /* \"#utility.yul\":4554:4566   */\n  add\n    /* \"#utility.yul\":4549:4566   */\n  swap1\n  pop\n    /* \"#utility.yul\":4524:4732   */\n  jump(tag_121)\ntag_123:\n    /* \"#utility.yul\":4760:4766   */\n  dup7\n    /* \"#utility.yul\":4751:4758   */\n  dup4\n    /* \"#utility.yul\":4748:4767   */\n  lt\n    /* \"#utility.yul\":4745:4924   */\n  iszero\n  tag_124\n  jumpi\n    /* \"#utility.yul\":4818:4827   */\n  dup5\n    /* \"#utility.yul\":4813:4816   */\n  dup10\n    /* \"#utility.yul\":4809:4828   */\n  add\n    /* \"#utility.yul\":4803:4829   */\n  mload\n    /* \"#utility.yul\":4861:4909   */\n  tag_125\n    /* \"#utility.yul\":4903:4907   */\n  0x1f\n    /* \"#utility.yul\":4895:4901   */\n  dup10\n    /* \"#utility.yul\":4891:4908   */\n  and\n    /* \"#utility.yul\":4880:4889   */\n  dup3\n    /* \"#utility.yul\":4861:4909   */\n  tag_58\n  jump\t// in\ntag_125:\n    /* \"#utility.yul\":4853:4859   */\n  dup4\n    /* \"#utility.yul\":4846:4910   */\n  sstore\n    /* \"#utility.yul\":4768:4924   */\n  pop\n    /* \"#utility.yul\":4745:4924   */\ntag_124:\n    /* \"#utility.yul\":4970:4971   */\n  0x01\n    /* \"#utility.yul\":4966:4967   */\n  0x02\n    /* \"#utility.yul\":4958:4964   */\n  dup9\n    /* \"#utility.yul\":4954:4968   */\n  mul\n    /* \"#utility.yul\":4950:4972   */\n  add\n    /* \"#utility.yul\":4944:4948   */\n  dup9\n    /* \"#utility.yul\":4937:4973   */\n  sstore\n    /* \"#utility.yul\":4372:4983   */\n  pop\n  pop\n  pop\n    /* \"#utility.yul\":4335:5222   */\ntag_116:\n  pop\n    /* \"#utility.yul\":3925:5228   */\n  pop\n  pop\n  pop\n    /* \"#utility.yul\":3833:5228   */\n  pop\n  pop\n  jump\t// out\n    /* \"#utility.yul\":5234:5414   */\ntag_60:\n    /* \"#utility.yul\":5282:5359   */\n  0x4e487b7100000000000000000000000000000000000000000000000000000000\n    /* \"#utility.yul\":5279:5280   */\n  0x00\n    /* \"#utility.yul\":5272:5360   */\n  mstore\n    /* \"#utility.yul\":5379:5383   */\n  0x11\n    /* \"#utility.yul\":5376:5377   */\n  0x04\n    /* \"#utility.yul\":5369:5384   */\n  mstore\n    /* \"#utility.yul\":5403:5407   */\n  0x24\n    /* \"#utility.yul\":5400:5401   */\n  0x00\n    /* \"#utility.yul\":5393:5408   */\n  revert\n    /* \"#utility.yul\":5420:5522   */\ntag_61:\n    /* \"#utility.yul\":5462:5470   */\n  0x00\n    /* \"#utility.yul\":5509:5514   */\n  dup2\n    /* \"#utility.yul\":5506:5507   */\n  0x01\n    /* \"#utility.yul\":5502:5515   */\n  shr\n    /* \"#utility.yul\":5481:5515   */\n  swap1\n  pop\n    /* \"#utility.yul\":5420:5522   */\n  swap2\n  swap1\n  pop\n  jump\t// out\n    /* \"#utility.yul\":5528:6376   */\ntag_62:\n    /* \"#utility.yul\":5589:5594   */\n  0x00\n    /* \"#utility.yul\":5596:5600   */\n  dup1\n    /* \"#utility.yul\":5620:5626   */\n  dup3\n    /* \"#utility.yul\":5611:5626   */\n  swap2\n  pop\n    /* \"#utility.yul\":5644:5649   */\n  dup4\n    /* \"#utility.yul\":5635:5649   */\n  swap1\n  pop\n    /* \"#utility.yul\":5658:6370   */\ntag_129:\n    /* \"#utility.yul\":5679:5680   */\n  0x01\n    /* \"#utility.yul\":5669:5677   */\n  dup6\n    /* \"#utility.yul\":5666:5681   */\n  gt\n    /* \"#utility.yul\":5658:6370   */\n  iszero\n  tag_131\n  jumpi\n    /* \"#utility.yul\":5774:5778   */\n  dup1\n    /* \"#utility.yul\":5769:5772   */\n  dup7\n    /* \"#utility.yul\":5765:5779   */\n  div\n    /* \"#utility.yul\":5759:5763   */\n  dup2\n    /* \"#utility.yul\":5756:5780   */\n  gt\n    /* \"#utility.yul\":5753:5803   */\n  iszero\n  tag_132\n  jumpi\n    /* \"#utility.yul\":5783:5801   */\n  tag_133\n  tag_60\n  jump\t// in\ntag_133:\n    /* \"#utility.yul\":5753:5803   */\ntag_132:\n    /* \"#utility.yul\":5833:5834   */\n  0x01\n    /* \"#utility.yul\":5823:5831   */\n  dup6\n    /* \"#utility.yul\":5819:5835   */\n  and\n    /* \"#utility.yul\":5816:6267   */\n  iszero\n  tag_134\n  jumpi\n    /* \"#utility.yul\":6248:6252   */\n  dup1\n    /* \"#utility.yul\":6241:6246   */\n  dup3\n    /* \"#utility.yul\":6237:6253   */\n  mul\n    /* \"#utility.yul\":6228:6253   */\n  swap2\n  pop\n    /* \"#utility.yul\":5816:6267   */\ntag_134:\n    /* \"#utility.yul\":6298:6302   */\n  dup1\n    /* \"#utility.yul\":6292:6296   */\n  dup2\n    /* \"#utility.yul\":6288:6303   */\n  mul\n    /* \"#utility.yul\":6280:6303   */\n  swap1\n  pop\n    /* \"#utility.yul\":6328:6360   */\n  tag_135\n    /* \"#utility.yul\":6351:6359   */\n  dup6\n    /* \"#utility.yul\":6328:6360   */\n  tag_61\n  jump\t// in\ntag_135:\n    /* \"#utility.yul\":6316:6360   */\n  swap5\n  pop\n    /* \"#utility.yul\":5658:6370   */\n  jump(tag_129)\ntag_131:\n    /* \"#utility.yul\":5528:6376   */\n  swap5\n  pop\n  swap5\n  swap3\n  pop\n  pop\n  pop\n  jump\t// out\n    /* \"#utility.yul\":6382:7455   */\ntag_63:\n    /* \"#utility.yul\":6436:6441   */\n  0x00\n    /* \"#utility.yul\":6627:6635   */\n  dup3\n    /* \"#utility.yul\":6617:6657   */\n  tag_137\n  jumpi\n    /* \"#utility.yul\":6648:6649   */\n  0x01\n    /* \"#utility.yul\":6639:6649   */\n  swap1\n  pop\n    /* \"#utility.yul\":6650:6655   */\n  jump(tag_136)\n    /* \"#utility.yul\":6617:6657   */\ntag_137:\n    /* \"#utility.yul\":6676:6680   */\n  dup2\n    /* \"#utility.yul\":6666:6702   */\n  tag_138\n  jumpi\n    /* \"#utility.yul\":6693:6694   */\n  0x00\n    /* \"#utility.yul\":6684:6694   */\n  swap1\n  pop\n    /* \"#utility.yul\":6695:6700   */\n  jump(tag_136)\n    /* \"#utility.yul\":6666:6702   */\ntag_138:\n    /* \"#utility.yul\":6762:6766   */\n  dup2\n    /* \"#utility.yul\":6810:6811   */\n  0x01\n    /* \"#utility.yul\":6805:6832   */\n  dup2\n  eq\n  tag_140\n  jumpi\n    /* \"#utility.yul\":6846:6847   */\n  0x02\n    /* \"#utility.yul\":6841:7032   */\n  dup2\n  eq\n  tag_141\n  jumpi\n    /* \"#utility.yul\":6755:7032   */\n  jump(tag_139)\n    /* \"#utility.yul\":6805:6832   */\ntag_140:\n    /* \"#utility.yul\":6823:6824   */\n  0x01\n    /* \"#utility.yul\":6814:6824   */\n  swap2\n  pop\n    /* \"#utility.yul\":6825:6830   */\n  pop\n  jump(tag_136)\n    /* \"#utility.yul\":6841:7032   */\ntag_141:\n    /* \"#utility.yul\":6886:6889   */\n  0xff\n    /* \"#utility.yul\":6876:6884   */\n  dup5\n    /* \"#utility.yul\":6873:6890   */\n  gt\n    /* \"#utility.yul\":6870:6913   */\n  iszero\n  tag_142\n  jumpi\n    /* \"#utility.yul\":6893:6911   */\n  tag_143\n  tag_60\n  jump\t// in\ntag_143:\n    /* \"#utility.yul\":6870:6913   */\ntag_142:\n    /* \"#utility.yul\":6942:6950   */\n  dup4\n    /* \"#utility.yul\":6939:6940   */\n  0x02\n    /* \"#utility.yul\":6935:6951   */\n  exp\n    /* \"#utility.yul\":6926:6951   */\n  swap2\n  pop\n    /* \"#utility.yul\":6977:6980   */\n  dup5\n    /* \"#utility.yul\":6970:6975   */\n  dup3\n    /* \"#utility.yul\":6967:6981   */\n  gt\n    /* \"#utility.yul\":6964:7004   */\n  iszero\n  tag_144\n  jumpi\n    /* \"#utility.yul\":6984:7002   */\n  tag_145\n  tag_60\n  jump\t// in\ntag_145:\n    /* \"#utility.yul\":6964:7004   */\ntag_144:\n    /* \"#utility.yul\":7017:7022   */\n  pop\n  jump(tag_136)\n    /* \"#utility.yul\":6755:7032   */\ntag_139:\n  pop\n    /* \"#utility.yul\":7141:7143   */\n  0x20\n    /* \"#utility.yul\":7131:7139   */\n  dup4\n    /* \"#utility.yul\":7128:7144   */\n  lt\n    /* \"#utility.yul\":7122:7125   */\n  0x0133\n    /* \"#utility.yul\":7116:7120   */\n  dup4\n    /* \"#utility.yul\":7113:7126   */\n  lt\n    /* \"#utility.yul\":7109:7145   */\n  and\n    /* \"#utility.yul\":7091:7093   */\n  0x4e\n    /* \"#utility.yul\":7081:7089   */\n  dup5\n    /* \"#utility.yul\":7078:7094   */\n  lt\n    /* \"#utility.yul\":7073:7075   */\n  0x0b\n    /* \"#utility.yul\":7067:7071   */\n  dup5\n    /* \"#utility.yul\":7064:7076   */\n  lt\n    /* \"#utility.yul\":7060:7095   */\n  and\n    /* \"#utility.yul\":7044:7155   */\n  or\n    /* \"#utility.yul\":7041:7287   */\n  iszero\n  tag_146\n  jumpi\n    /* \"#utility.yul\":7197:7205   */\n  dup3\n    /* \"#utility.yul\":7191:7195   */\n  dup3\n    /* \"#utility.yul\":7187:7206   */\n  exp\n    /* \"#utility.yul\":7178:7206   */\n  swap1\n  pop\n    /* \"#utility.yul\":7232:7235   */\n  dup4\n    /* \"#utility.yul\":7225:7230   */\n  dup2\n    /* \"#utility.yul\":7222:7236   */\n  gt\n    /* \"#utility.yul\":7219:7259   */\n  iszero\n  tag_147\n  jumpi\n    /* \"#utility.yul\":7239:7257   */\n  tag_148\n  tag_60\n  jump\t// in\ntag_148:\n    /* \"#utility.yul\":7219:7259   */\ntag_147:\n    /* \"#utility.yul\":7272:7277   */\n  jump(tag_136)\n    /* \"#utility.yul\":7041:7287   */\ntag_146:\n    /* \"#utility.yul\":7312:7354   */\n  tag_149\n    /* \"#utility.yul\":7350:7353   */\n  dup5\n    /* \"#utility.yul\":7340:7348   */\n  dup5\n    /* \"#utility.yul\":7334:7338   */\n  dup5\n    /* \"#utility.yul\":7331:7332   */\n  0x01\n    /* \"#utility.yul\":7312:7354   */\n  tag_62\n  jump\t// in\ntag_149:\n    /* \"#utility.yul\":7297:7354   */\n  swap3\n  pop\n  swap1\n  pop\n    /* \"#utility.yul\":7386:7390   */\n  dup2\n    /* \"#utility.yul\":7381:7384   */\n  dup5\n    /* \"#utility.yul\":7377:7391   */\n  div\n    /* \"#utility.yul\":7370:7375   */\n  dup2\n    /* \"#utility.yul\":7367:7392   */\n  gt\n    /* \"#utility.yul\":7364:7415   */\n  iszero\n  tag_150\n  jumpi\n    /* \"#utility.yul\":7395:7413   */\n  tag_151\n  tag_60\n  jump\t// in\ntag_151:\n    /* \"#utility.yul\":7364:7415   */\ntag_150:\n    /* \"#utility.yul\":7444:7448   */\n  dup2\n    /* \"#utility.yul\":7437:7442   */\n  dup2\n    /* \"#utility.yul\":7433:7449   */\n  mul\n    /* \"#utility.yul\":7424:7449   */\n  swap1\n  pop\n    /* \"#utility.yul\":6382:7455   */\ntag_136:\n  swap4\n  swap3\n  pop\n  pop\n  pop\n  jump\t// out\n    /* \"#utility.yul\":7461:7746   */\ntag_13:\n    /* \"#utility.yul\":7521:7526   */\n  0x00\n    /* \"#utility.yul\":7545:7568   */\n  tag_153\n    /* \"#utility.yul\":7563:7567   */\n  dup3\n    /* \"#utility.yul\":7545:7568   */\n  tag_48\n  jump\t// in\ntag_153:\n    /* \"#utility.yul\":7537:7568   */\n  swap2\n  pop\n    /* \"#utility.yul\":7589:7616   */\n  tag_154\n    /* \"#utility.yul\":7607:7615   */\n  dup4\n    /* \"#utility.yul\":7589:7616   */\n  tag_48\n  jump\t// in\ntag_154:\n    /* \"#utility.yul\":7577:7616   */\n  swap3\n  pop\n    /* \"#utility.yul\":7635:7739   */\n  tag_155\n    /* \"#utility.yul\":7672:7738   */\n  0xffffffffffffffffffffffffffffffffffffffffffffffffffffffffffffffff\n    /* \"#utility.yul\":7662:7670   */\n  dup5\n    /* \"#utility.yul\":7656:7660   */\n  dup5\n    /* \"#utility.yul\":7635:7739   */\n  tag_63\n  jump\t// in\ntag_155:\n    /* \"#utility.yul\":7626:7739   */\n  swap1\n  pop\n    /* \"#utility.yul\":7461:7746   */\n  swap3\n  swap2\n  pop\n  pop\n  jump\t// out\n    /* \"#utility.yul\":7752:8162   */\ntag_15:\n    /* \"#utility.yul\":7792:7799   */\n  0x00\n    /* \"#utility.yul\":7815:7835   */\n  tag_157\n    /* \"#utility.yul\":7833:7834   */\n  dup3\n    /* \"#utility.yul\":7815:7835   */\n  tag_48\n  jump\t// in\ntag_157:\n    /* \"#utility.yul\":7810:7835   */\n  swap2\n  pop\n    /* \"#utility.yul\":7849:7869   */\n  tag_158\n    /* \"#utility.yul\":7867:7868   */\n  dup4\n    /* \"#utility.yul\":7849:7869   */\n  tag_48\n  jump\t// in\ntag_158:\n    /* \"#utility.yul\":7844:7869   */\n  swap3\n  pop\n    /* \"#utility.yul\":7904:7905   */\n  dup3\n    /* \"#utility.yul\":7901:7902   */\n  dup3\n    /* \"#utility.yul\":7897:7906   */\n  mul\n    /* \"#utility.yul\":7926:7956   */\n  tag_159\n    /* \"#utility.yul\":7944:7955   */\n  dup2\n    /* \"#utility.yul\":7926:7956   */\n  tag_48\n  jump\t// in\ntag_159:\n    /* \"#utility.yul\":7915:7956   */\n  swap2\n  pop\n    /* \"#utility.yul\":8105:8106   */\n  dup3\n    /* \"#utility.yul\":8096:8103   */\n  dup3\n    /* \"#utility.yul\":8092:8107   */\n  div\n    /* \"#utility.yul\":8089:8090   */\n  dup5\n    /* \"#utility.yul\":8086:8108   */\n  eq\n    /* \"#utility.yul\":8066:8067   */\n  dup4\n    /* \"#utility.yul\":8059:8068   */\n  iszero\n    /* \"#utility.yul\":8039:8122   */\n  or\n    /* \"#utility.yul\":8016:8155   */\n  tag_160\n  jumpi\n    /* \"#utility.yul\":8135:8153   */\n  tag_161\n  tag_60\n  jump\t// in\ntag_161:\n    /* \"#utility.yul\":8016:8155   */\ntag_160:\n    /* \"#utility.yul\":7800:8162   */\n  pop\n    /* \"#utility.yul\":7752:8162   */\n  swap3\n  swap2\n  pop\n  pop\n  jump\t// out\n    /* \"#utility.yul\":8168:8359   */\ntag_21:\n    /* \"#utility.yul\":8208:8211   */\n  0x00\n    /* \"#utility.yul\":8227:8247   */\n  tag_163\n    /* \"#utility.yul\":8245:8246   */\n  dup3\n    /* \"#utility.yul\":8227:8247   */\n  tag_48\n  jump\t// in\ntag_163:\n    /* \"#utility.yul\":8222:8247   */\n  swap2\n  pop\n    /* \"#utility.yul\":8261:8281   */\n  tag_164\n    /* \"#utility.yul\":8279:8280   */\n  dup4\n    /* \"#utility.yul\":8261:8281   */\n  tag_48\n  jump\t// in\ntag_164:\n    /* \"#utility.yul\":8256:8281   */\n  swap3\n  pop\n    /* \"#utility.yul\":8304:8305   */\n  dup3\n    /* \"#utility.yul\":8301:8302   */\n  dup3\n    /* \"#utility.yul\":8297:8306   */\n  add\n    /* \"#utility.yul\":8290:8306   */\n  swap1\n  pop\n    /* \"#utility.yul\":8325:8328   */\n  dup1\n    /* \"#utility.yul\":8322:8323   */\n  dup3\n    /* \"#utility.yul\":8319:8329   */\n  gt\n    /* \"#utility.yul\":8316:8352   */\n  iszero\n  tag_165\n  jumpi\n    /* \"#utility.yul\":8332:8350   */\n  tag_166\n  tag_60\n  jump\t// in\ntag_166:\n    /* \"#utility.yul\":8316:8352   */\ntag_165:\n    /* \"#utility.yul\":8168:8359   */\n  swap3\n  swap2\n  pop\n  pop\n  jump\t// out\n    /* \"contracts/Poketmon.sol\":81:2046  contract Poketmon is ERC20 {... */\ntag_18:\n  dataSize(sub_0)\n  dup1\n  dataOffset(sub_0)\n  0x00\n  codecopy\n  0x00\n  return\nstop\ndata_a95b8c71e7e39880f96e1d06338d0fd0f1fe361039fa32fe94c21b3689bb1fde 68747470733a2f2f617070646174612e68756e6772796170702e636f2e6b722f70726f66696c652f3230313530362f32392f4d31343335353533353937323039343736332e6a7067\ndata_b6005045bb50264cb75ada6104ede6d9875364982b6fe4df5531bdad09c7681d 68747470733a2f2f73332e6f7262692e6b722f646174612f66696c652f756e697465642f323935303633313136335f526447626a634c765f3731303033333535305f50516e47377048445f696d6167655f3238313032392e6a706567\ndata_cb78966caafa9d0d92ed33c70705f72913e7a046b522610c7e56f8f21e5db8b5 68747470733a2f2f7468756d622e6d742e636f2e6b722f30362f323031332f30342f323031333034313432313235353331363231385f312e6a70672f64696d732f6f7074696d697a652f\n\nsub_0: assembly {\n        /* \"contracts/Poketmon.sol\":81:2046  contract Poketmon is ERC20 {... */\n      mstore(0x40, 0x80)\n      jumpi(tag_1, lt(calldatasize, 0x04))\n      shr(0xe0, calldataload(0x00))\n      dup1\n      0x365b98b2\n      gt\n      tag_19\n      jumpi\n      dup1\n      0x860b951d\n      gt\n      tag_20\n      jumpi\n      dup1\n      0x860b951d\n      eq\n      tag_15\n      jumpi\n      dup1\n      0x95d89b41\n      eq\n      tag_16\n      jumpi\n      dup1\n      0xa9059cbb\n      eq\n      tag_17\n      jumpi\n      dup1\n      0xdd62ed3e\n      eq\n      tag_18\n      jumpi\n      jump(tag_2)\n    tag_20:\n      dup1\n      0x365b98b2\n      eq\n      tag_11\n      jumpi\n      dup1\n      0x42966c68\n      eq\n      tag_12\n      jumpi\n      dup1\n      0x70a08231\n      eq\n      tag_13\n      jumpi\n      dup1\n      0x7ff9cd71\n      eq\n      tag_14\n      jumpi\n      jump(tag_2)\n    tag_19:\n      dup1\n      0x26255d8d\n      gt\n      tag_21\n      jumpi\n      dup1\n      0x26255d8d\n      eq\n      tag_7\n      jumpi\n      dup1\n      0x27e235e3\n      eq\n      tag_8\n      jumpi\n      dup1\n      0x2eab183d\n      eq\n      tag_9\n      jumpi\n      dup1\n      0x313ce567\n      eq\n      tag_10\n      jumpi\n      jump(tag_2)\n    tag_21:\n      dup1\n      0x06fdde03\n      eq\n      tag_3\n      jumpi\n      dup1\n      0x095ea7b3\n      eq\n      tag_4\n      jumpi\n      dup1\n      0x18160ddd\n      eq\n      tag_5\n      jumpi\n      dup1\n      0x23b872dd\n      eq\n      tag_6\n      jumpi\n      jump(tag_2)\n    tag_1:\n      jumpi(tag_2, calldatasize)\n        /* \"contracts/ERC20.sol\":839:850  uint amount */\n      0x00\n        /* \"contracts/ERC20.sol\":865:868  200 */\n      0xc8\n        /* \"contracts/ERC20.sol\":853:862  msg.value */\n      callvalue\n        /* \"contracts/ERC20.sol\":853:868  msg.value * 200 */\n      tag_24\n      swap2\n      swap1\n      tag_25\n      jump\t// in\n    tag_24:\n        /* \"contracts/ERC20.sol\":839:868  uint amount = msg.value * 200 */\n      swap1\n      pop\n        /* \"contracts/ERC20.sol\":902:908  amount */\n      dup1\n        /* \"contracts/ERC20.sol\":883:891  balances */\n      0x05\n        /* \"contracts/ERC20.sol\":883:898  balances[owner] */\n      0x00\n        /* \"contracts/ERC20.sol\":892:897  owner */\n      0x04\n      0x00\n      swap1\n      sload\n      swap1\n      0x0100\n      exp\n      swap1\n      div\n      0xffffffffffffffffffffffffffffffffffffffff\n      and\n        /* \"contracts/ERC20.sol\":883:898  balances[owner] */\n      0xffffffffffffffffffffffffffffffffffffffff\n      and\n      0xffffffffffffffffffffffffffffffffffffffff\n      and\n      dup2\n      mstore\n      0x20\n      add\n      swap1\n      dup2\n      mstore\n      0x20\n      add\n      0x00\n      keccak256\n      sload\n        /* \"contracts/ERC20.sol\":883:908  balances[owner] >= amount */\n      lt\n      iszero\n        /* \"contracts/ERC20.sol\":875:909  require(balances[owner] >= amount) */\n      tag_26\n      jumpi\n      0x00\n      dup1\n      revert\n    tag_26:\n        /* \"contracts/ERC20.sol\":934:940  amount */\n      dup1\n        /* \"contracts/ERC20.sol\":915:923  balances */\n      0x05\n        /* \"contracts/ERC20.sol\":915:930  balances[owner] */\n      0x00\n        /* \"contracts/ERC20.sol\":924:929  owner */\n      0x04\n      0x00\n      swap1\n      sload\n      swap1\n      0x0100\n      exp\n      swap1\n      div\n      0xffffffffffffffffffffffffffffffffffffffff\n      and\n        /* \"contracts/ERC20.sol\":915:930  balances[owner] */\n      0xffffffffffffffffffffffffffffffffffffffff\n      and\n      0xffffffffffffffffffffffffffffffffffffffff\n      and\n      dup2\n      mstore\n      0x20\n      add\n      swap1\n      dup2\n      mstore\n      0x20\n      add\n      0x00\n      keccak256\n      0x00\n        /* \"contracts/ERC20.sol\":915:940  balances[owner] -= amount */\n      dup3\n      dup3\n      sload\n      tag_27\n      swap2\n      swap1\n      tag_28\n      jump\t// in\n    tag_27:\n      swap3\n      pop\n      pop\n      dup2\n      swap1\n      sstore\n      pop\n        /* \"contracts/ERC20.sol\":970:976  amount */\n      dup1\n        /* \"contracts/ERC20.sol\":946:954  balances */\n      0x05\n        /* \"contracts/ERC20.sol\":946:966  balances[msg.sender] */\n      0x00\n        /* \"contracts/ERC20.sol\":955:965  msg.sender */\n      caller\n        /* \"contracts/ERC20.sol\":946:966  balances[msg.sender] */\n      0xffffffffffffffffffffffffffffffffffffffff\n      and\n      0xffffffffffffffffffffffffffffffffffffffff\n      and\n      dup2\n      mstore\n      0x20\n      add\n      swap1\n      dup2\n      mstore\n      0x20\n      add\n      0x00\n      keccak256\n      0x00\n        /* \"contracts/ERC20.sol\":946:976  balances[msg.sender] += amount */\n      dup3\n      dup3\n      sload\n      tag_29\n      swap2\n      swap1\n      tag_30\n      jump\t// in\n    tag_29:\n      swap3\n      pop\n      pop\n      dup2\n      swap1\n      sstore\n      pop\n        /* \"contracts/ERC20.sol\":1040:1045  owner */\n      0x04\n      0x00\n      swap1\n      sload\n      swap1\n      0x0100\n      exp\n      swap1\n      div\n      0xffffffffffffffffffffffffffffffffffffffff\n      and\n        /* \"contracts/ERC20.sol\":1026:1045  msg.sender == owner */\n      0xffffffffffffffffffffffffffffffffffffffff\n      and\n        /* \"contracts/ERC20.sol\":1026:1036  msg.sender */\n      caller\n        /* \"contracts/ERC20.sol\":1026:1045  msg.sender == owner */\n      0xffffffffffffffffffffffffffffffffffffffff\n      and\n      sub\n        /* \"contracts/ERC20.sol\":1023:1073  if(msg.sender == owner){... */\n      tag_31\n      jumpi\n        /* \"contracts/ERC20.sol\":1054:1066  mint(amount) */\n      tag_32\n        /* \"contracts/ERC20.sol\":1059:1065  amount */\n      dup2\n        /* \"contracts/ERC20.sol\":1054:1058  mint */\n      tag_33\n        /* \"contracts/ERC20.sol\":1054:1066  mint(amount) */\n      jump\t// in\n    tag_32:\n        /* \"contracts/ERC20.sol\":1023:1073  if(msg.sender == owner){... */\n    tag_31:\n        /* \"contracts/ERC20.sol\":562:1078  {... */\n      stop\n        /* \"contracts/Poketmon.sol\":81:2046  contract Poketmon is ERC20 {... */\n    tag_2:\n      0x00\n      dup1\n      revert\n        /* \"contracts/ERC20.sol\":133:151  string public name */\n    tag_3:\n      callvalue\n      dup1\n      iszero\n      tag_34\n      jumpi\n      0x00\n      dup1\n      revert\n    tag_34:\n      pop\n      tag_35\n      tag_36\n      jump\t// in\n    tag_35:\n      mload(0x40)\n      tag_37\n      swap2\n      swap1\n      tag_38\n      jump\t// in\n    tag_37:\n      mload(0x40)\n      dup1\n      swap2\n      sub\n      swap1\n      return\n        /* \"contracts/ERC20.sol\":1708:1853  function approve(address spender, uint amount) external override returns(bool){... */\n    tag_4:\n      callvalue\n      dup1\n      iszero\n      tag_39\n      jumpi\n      0x00\n      dup1\n      revert\n    tag_39:\n      pop\n      tag_40\n      0x04\n      dup1\n      calldatasize\n      sub\n      dup2\n      add\n      swap1\n      tag_41\n      swap2\n      swap1\n      tag_42\n      jump\t// in\n    tag_41:\n      tag_43\n      jump\t// in\n    tag_40:\n      mload(0x40)\n      tag_44\n      swap2\n      swap1\n      tag_45\n      jump\t// in\n    tag_44:\n      mload(0x40)\n      dup1\n      swap2\n      sub\n      swap1\n      return\n        /* \"contracts/ERC20.sol\":318:350  uint public override totalSupply */\n    tag_5:\n      callvalue\n      dup1\n      iszero\n      tag_46\n      jumpi\n      0x00\n      dup1\n      revert\n    tag_46:\n      pop\n      tag_47\n      tag_48\n      jump\t// in\n    tag_47:\n      mload(0x40)\n      tag_49\n      swap2\n      swap1\n      tag_50\n      jump\t// in\n    tag_49:\n      mload(0x40)\n      dup1\n      swap2\n      sub\n      swap1\n      return\n        /* \"contracts/ERC20.sol\":1865:2139  function transferFrom(address sender,address to, uint amount) external override returns(bool){... */\n    tag_6:\n      callvalue\n      dup1\n      iszero\n      tag_51\n      jumpi\n      0x00\n      dup1\n      revert\n    tag_51:\n      pop\n      tag_52\n      0x04\n      dup1\n      calldatasize\n      sub\n      dup2\n      add\n      swap1\n      tag_53\n      swap2\n      swap1\n      tag_54\n      jump\t// in\n    tag_53:\n      tag_55\n      jump\t// in\n    tag_52:\n      mload(0x40)\n      tag_56\n      swap2\n      swap1\n      tag_45\n      jump\t// in\n    tag_56:\n      mload(0x40)\n      dup1\n      swap2\n      sub\n      swap1\n      return\n        /* \"contracts/Poketmon.sol\":1332:2042  function buyPoketmon() public {... */\n    tag_7:\n      callvalue\n      dup1\n      iszero\n      tag_57\n      jumpi\n      0x00\n      dup1\n      revert\n    tag_57:\n      pop\n      tag_58\n      tag_59\n      jump\t// in\n    tag_58:\n      stop\n        /* \"contracts/ERC20.sol\":392:432  mapping(address => uint) public balances */\n    tag_8:\n      callvalue\n      dup1\n      iszero\n      tag_60\n      jumpi\n      0x00\n      dup1\n      revert\n    tag_60:\n      pop\n      tag_61\n      0x04\n      dup1\n      calldatasize\n      sub\n      dup2\n      add\n      swap1\n      tag_62\n      swap2\n      swap1\n      tag_63\n      jump\t// in\n    tag_62:\n      tag_64\n      jump\t// in\n    tag_61:\n      mload(0x40)\n      tag_65\n      swap2\n      swap1\n      tag_50\n      jump\t// in\n    tag_65:\n      mload(0x40)\n      dup1\n      swap2\n      sub\n      swap1\n      return\n        /* \"contracts/Poketmon.sol\":1136:1236  function getPoketmon() public view returns (Pokets[] memory) {... */\n    tag_9:\n      callvalue\n      dup1\n      iszero\n      tag_66\n      jumpi\n      0x00\n      dup1\n      revert\n    tag_66:\n      pop\n      tag_67\n      tag_68\n      jump\t// in\n    tag_67:\n      mload(0x40)\n      tag_69\n      swap2\n      swap1\n      tag_70\n      jump\t// in\n    tag_69:\n      mload(0x40)\n      dup1\n      swap2\n      sub\n      swap1\n      return\n        /* \"contracts/ERC20.sol\":251:277  uint8 public decimals = 18 */\n    tag_10:\n      callvalue\n      dup1\n      iszero\n      tag_71\n      jumpi\n      0x00\n      dup1\n      revert\n    tag_71:\n      pop\n      tag_72\n      tag_73\n      jump\t// in\n    tag_72:\n      mload(0x40)\n      tag_74\n      swap2\n      swap1\n      tag_75\n      jump\t// in\n    tag_74:\n      mload(0x40)\n      dup1\n      swap2\n      sub\n      swap1\n      return\n        /* \"contracts/Poketmon.sol\":1056:1076  Users[] public users */\n    tag_11:\n      callvalue\n      dup1\n      iszero\n      tag_76\n      jumpi\n      0x00\n      dup1\n      revert\n    tag_76:\n      pop\n      tag_77\n      0x04\n      dup1\n      calldatasize\n      sub\n      dup2\n      add\n      swap1\n      tag_78\n      swap2\n      swap1\n      tag_79\n      jump\t// in\n    tag_78:\n      tag_80\n      jump\t// in\n    tag_77:\n      mload(0x40)\n      tag_81\n      swap2\n      swap1\n      tag_82\n      jump\t// in\n    tag_81:\n      mload(0x40)\n      dup1\n      swap2\n      sub\n      swap1\n      return\n        /* \"contracts/ERC20.sol\":2149:2253  function burn(uint amount) external {... */\n    tag_12:\n      callvalue\n      dup1\n      iszero\n      tag_83\n      jumpi\n      0x00\n      dup1\n      revert\n    tag_83:\n      pop\n      tag_84\n      0x04\n      dup1\n      calldatasize\n      sub\n      dup2\n      add\n      swap1\n      tag_85\n      swap2\n      swap1\n      tag_79\n      jump\t// in\n    tag_85:\n      tag_86\n      jump\t// in\n    tag_84:\n      stop\n        /* \"contracts/ERC20.sol\":1421:1528  function balanceOf(address account) external view override returns(uint){... */\n    tag_13:\n      callvalue\n      dup1\n      iszero\n      tag_87\n      jumpi\n      0x00\n      dup1\n      revert\n    tag_87:\n      pop\n      tag_88\n      0x04\n      dup1\n      calldatasize\n      sub\n      dup2\n      add\n      swap1\n      tag_89\n      swap2\n      swap1\n      tag_63\n      jump\t// in\n    tag_89:\n      tag_90\n      jump\t// in\n    tag_88:\n      mload(0x40)\n      tag_91\n      swap2\n      swap1\n      tag_50\n      jump\t// in\n    tag_91:\n      mload(0x40)\n      dup1\n      swap2\n      sub\n      swap1\n      return\n        /* \"contracts/Poketmon.sol\":1240:1328  function getPoketmonUsers() public view returns (Users[] memory) {... */\n    tag_14:\n      callvalue\n      dup1\n      iszero\n      tag_92\n      jumpi\n      0x00\n      dup1\n      revert\n    tag_92:\n      pop\n      tag_93\n      tag_94\n      jump\t// in\n    tag_93:\n      mload(0x40)\n      tag_95\n      swap2\n      swap1\n      tag_96\n      jump\t// in\n    tag_95:\n      mload(0x40)\n      dup1\n      swap2\n      sub\n      swap1\n      return\n        /* \"contracts/Poketmon.sol\":938:983  mapping(address => Pokets[]) public poketmons */\n    tag_15:\n      callvalue\n      dup1\n      iszero\n      tag_97\n      jumpi\n      0x00\n      dup1\n      revert\n    tag_97:\n      pop\n      tag_98\n      0x04\n      dup1\n      calldatasize\n      sub\n      dup2\n      add\n      swap1\n      tag_99\n      swap2\n      swap1\n      tag_42\n      jump\t// in\n    tag_99:\n      tag_100\n      jump\t// in\n    tag_98:\n      mload(0x40)\n      tag_101\n      swap3\n      swap2\n      swap1\n      tag_102\n      jump\t// in\n    tag_101:\n      mload(0x40)\n      dup1\n      swap2\n      sub\n      swap1\n      return\n        /* \"contracts/ERC20.sol\":178:198  string public symbol */\n    tag_16:\n      callvalue\n      dup1\n      iszero\n      tag_103\n      jumpi\n      0x00\n      dup1\n      revert\n    tag_103:\n      pop\n      tag_104\n      tag_105\n      jump\t// in\n    tag_104:\n      mload(0x40)\n      tag_106\n      swap2\n      swap1\n      tag_38\n      jump\t// in\n    tag_106:\n      mload(0x40)\n      dup1\n      swap2\n      sub\n      swap1\n      return\n        /* \"contracts/ERC20.sol\":1538:1698  function transfer(address to, uint amount) external override returns(bool){... */\n    tag_17:\n      callvalue\n      dup1\n      iszero\n      tag_107\n      jumpi\n      0x00\n      dup1\n      revert\n    tag_107:\n      pop\n      tag_108\n      0x04\n      dup1\n      calldatasize\n      sub\n      dup2\n      add\n      swap1\n      tag_109\n      swap2\n      swap1\n      tag_42\n      jump\t// in\n    tag_109:\n      tag_110\n      jump\t// in\n    tag_108:\n      mload(0x40)\n      tag_111\n      swap2\n      swap1\n      tag_45\n      jump\t// in\n    tag_111:\n      mload(0x40)\n      dup1\n      swap2\n      sub\n      swap1\n      return\n        /* \"contracts/ERC20.sol\":442:512  mapping(address => mapping(address => uint)) public override allowance */\n    tag_18:\n      callvalue\n      dup1\n      iszero\n      tag_112\n      jumpi\n      0x00\n      dup1\n      revert\n    tag_112:\n      pop\n      tag_113\n      0x04\n      dup1\n      calldatasize\n      sub\n      dup2\n      add\n      swap1\n      tag_114\n      swap2\n      swap1\n      tag_115\n      jump\t// in\n    tag_114:\n      tag_116\n      jump\t// in\n    tag_113:\n      mload(0x40)\n      tag_117\n      swap2\n      swap1\n      tag_50\n      jump\t// in\n    tag_117:\n      mload(0x40)\n      dup1\n      swap2\n      sub\n      swap1\n      return\n        /* \"contracts/ERC20.sol\":1308:1412  function mint(uint amount) internal {... */\n    tag_33:\n        /* \"contracts/ERC20.sol\":1374:1380  amount */\n      dup1\n        /* \"contracts/ERC20.sol\":1350:1358  balances */\n      0x05\n        /* \"contracts/ERC20.sol\":1350:1370  balances[msg.sender] */\n      0x00\n        /* \"contracts/ERC20.sol\":1359:1369  msg.sender */\n      caller\n        /* \"contracts/ERC20.sol\":1350:1370  balances[msg.sender] */\n      0xffffffffffffffffffffffffffffffffffffffff\n      and\n      0xffffffffffffffffffffffffffffffffffffffff\n      and\n      dup2\n      mstore\n      0x20\n      add\n      swap1\n      dup2\n      mstore\n      0x20\n      add\n      0x00\n      keccak256\n      0x00\n        /* \"contracts/ERC20.sol\":1350:1380  balances[msg.sender] += amount */\n      dup3\n      dup3\n      sload\n      tag_119\n      swap2\n      swap1\n      tag_30\n      jump\t// in\n    tag_119:\n      swap3\n      pop\n      pop\n      dup2\n      swap1\n      sstore\n      pop\n        /* \"contracts/ERC20.sol\":1401:1407  amount */\n      dup1\n        /* \"contracts/ERC20.sol\":1386:1397  totalSupply */\n      0x03\n      0x00\n        /* \"contracts/ERC20.sol\":1386:1407  totalSupply += amount */\n      dup3\n      dup3\n      sload\n      tag_120\n      swap2\n      swap1\n      tag_30\n      jump\t// in\n    tag_120:\n      swap3\n      pop\n      pop\n      dup2\n      swap1\n      sstore\n      pop\n        /* \"contracts/ERC20.sol\":1308:1412  function mint(uint amount) internal {... */\n      pop\n      jump\t// out\n        /* \"contracts/ERC20.sol\":133:151  string public name */\n    tag_36:\n      0x00\n      dup1\n      sload\n      tag_121\n      swap1\n      tag_122\n      jump\t// in\n    tag_121:\n      dup1\n      0x1f\n      add\n      0x20\n      dup1\n      swap2\n      div\n      mul\n      0x20\n      add\n      mload(0x40)\n      swap1\n      dup2\n      add\n      0x40\n      mstore\n      dup1\n      swap3\n      swap2\n      swap1\n      dup2\n      dup2\n      mstore\n      0x20\n      add\n      dup3\n      dup1\n      sload\n      tag_123\n      swap1\n      tag_122\n      jump\t// in\n    tag_123:\n      dup1\n      iszero\n      tag_124\n      jumpi\n      dup1\n      0x1f\n      lt\n      tag_125\n      jumpi\n      0x0100\n      dup1\n      dup4\n      sload\n      div\n      mul\n      dup4\n      mstore\n      swap2\n      0x20\n      add\n      swap2\n      jump(tag_124)\n    tag_125:\n      dup3\n      add\n      swap2\n      swap1\n      0x00\n      mstore\n      keccak256(0x00, 0x20)\n      swap1\n    tag_126:\n      dup2\n      sload\n      dup2\n      mstore\n      swap1\n      0x01\n      add\n      swap1\n      0x20\n      add\n      dup1\n      dup4\n      gt\n      tag_126\n      jumpi\n      dup3\n      swap1\n      sub\n      0x1f\n      and\n      dup3\n      add\n      swap2\n    tag_124:\n      pop\n      pop\n      pop\n      pop\n      pop\n      dup2\n      jump\t// out\n        /* \"contracts/ERC20.sol\":1708:1853  function approve(address spender, uint amount) external override returns(bool){... */\n    tag_43:\n        /* \"contracts/ERC20.sol\":1781:1785  bool */\n      0x00\n        /* \"contracts/ERC20.sol\":1825:1831  amount */\n      dup2\n        /* \"contracts/ERC20.sol\":1792:1801  allowance */\n      0x06\n        /* \"contracts/ERC20.sol\":1792:1813  allowance[msg.sender] */\n      0x00\n        /* \"contracts/ERC20.sol\":1802:1812  msg.sender */\n      caller\n        /* \"contracts/ERC20.sol\":1792:1813  allowance[msg.sender] */\n      0xffffffffffffffffffffffffffffffffffffffff\n      and\n      0xffffffffffffffffffffffffffffffffffffffff\n      and\n      dup2\n      mstore\n      0x20\n      add\n      swap1\n      dup2\n      mstore\n      0x20\n      add\n      0x00\n      keccak256\n        /* \"contracts/ERC20.sol\":1792:1822  allowance[msg.sender][spender] */\n      0x00\n        /* \"contracts/ERC20.sol\":1814:1821  spender */\n      dup6\n        /* \"contracts/ERC20.sol\":1792:1822  allowance[msg.sender][spender] */\n      0xffffffffffffffffffffffffffffffffffffffff\n      and\n      0xffffffffffffffffffffffffffffffffffffffff\n      and\n      dup2\n      mstore\n      0x20\n      add\n      swap1\n      dup2\n      mstore\n      0x20\n      add\n      0x00\n      keccak256\n        /* \"contracts/ERC20.sol\":1792:1831  allowance[msg.sender][spender] = amount */\n      dup2\n      swap1\n      sstore\n      pop\n        /* \"contracts/ERC20.sol\":1844:1848  true */\n      0x01\n        /* \"contracts/ERC20.sol\":1837:1848  return true */\n      swap1\n      pop\n        /* \"contracts/ERC20.sol\":1708:1853  function approve(address spender, uint amount) external override returns(bool){... */\n      swap3\n      swap2\n      pop\n      pop\n      jump\t// out\n        /* \"contracts/ERC20.sol\":318:350  uint public override totalSupply */\n    tag_48:\n      sload(0x03)\n      dup2\n      jump\t// out\n        /* \"contracts/ERC20.sol\":1865:2139  function transferFrom(address sender,address to, uint amount) external override returns(bool){... */\n    tag_55:\n        /* \"contracts/ERC20.sol\":1953:1957  bool */\n      0x00\n        /* \"contracts/ERC20.sol\":2005:2011  amount */\n      dup2\n        /* \"contracts/ERC20.sol\":1972:1981  allowance */\n      0x06\n        /* \"contracts/ERC20.sol\":1972:1989  allowance[sender] */\n      0x00\n        /* \"contracts/ERC20.sol\":1982:1988  sender */\n      dup7\n        /* \"contracts/ERC20.sol\":1972:1989  allowance[sender] */\n      0xffffffffffffffffffffffffffffffffffffffff\n      and\n      0xffffffffffffffffffffffffffffffffffffffff\n      and\n      dup2\n      mstore\n      0x20\n      add\n      swap1\n      dup2\n      mstore\n      0x20\n      add\n      0x00\n      keccak256\n        /* \"contracts/ERC20.sol\":1972:2001  allowance[sender][msg.sender] */\n      0x00\n        /* \"contracts/ERC20.sol\":1990:2000  msg.sender */\n      caller\n        /* \"contracts/ERC20.sol\":1972:2001  allowance[sender][msg.sender] */\n      0xffffffffffffffffffffffffffffffffffffffff\n      and\n      0xffffffffffffffffffffffffffffffffffffffff\n      and\n      dup2\n      mstore\n      0x20\n      add\n      swap1\n      dup2\n      mstore\n      0x20\n      add\n      0x00\n      keccak256\n      sload\n        /* \"contracts/ERC20.sol\":1972:2011  allowance[sender][msg.sender] >= amount */\n      lt\n      iszero\n        /* \"contracts/ERC20.sol\":1964:2012  require(allowance[sender][msg.sender] >= amount) */\n      tag_129\n      jumpi\n      0x00\n      dup1\n      revert\n    tag_129:\n        /* \"contracts/ERC20.sol\":2051:2057  amount */\n      dup2\n        /* \"contracts/ERC20.sol\":2018:2027  allowance */\n      0x06\n        /* \"contracts/ERC20.sol\":2018:2035  allowance[sender] */\n      0x00\n        /* \"contracts/ERC20.sol\":2028:2034  sender */\n      dup7\n        /* \"contracts/ERC20.sol\":2018:2035  allowance[sender] */\n      0xffffffffffffffffffffffffffffffffffffffff\n      and\n      0xffffffffffffffffffffffffffffffffffffffff\n      and\n      dup2\n      mstore\n      0x20\n      add\n      swap1\n      dup2\n      mstore\n      0x20\n      add\n      0x00\n      keccak256\n        /* \"contracts/ERC20.sol\":2018:2047  allowance[sender][msg.sender] */\n      0x00\n        /* \"contracts/ERC20.sol\":2036:2046  msg.sender */\n      caller\n        /* \"contracts/ERC20.sol\":2018:2047  allowance[sender][msg.sender] */\n      0xffffffffffffffffffffffffffffffffffffffff\n      and\n      0xffffffffffffffffffffffffffffffffffffffff\n      and\n      dup2\n      mstore\n      0x20\n      add\n      swap1\n      dup2\n      mstore\n      0x20\n      add\n      0x00\n      keccak256\n      0x00\n        /* \"contracts/ERC20.sol\":2018:2057  allowance[sender][msg.sender] -= amount */\n      dup3\n      dup3\n      sload\n      tag_130\n      swap2\n      swap1\n      tag_28\n      jump\t// in\n    tag_130:\n      swap3\n      pop\n      pop\n      dup2\n      swap1\n      sstore\n      pop\n        /* \"contracts/ERC20.sol\":2083:2089  amount */\n      dup2\n        /* \"contracts/ERC20.sol\":2063:2071  balances */\n      0x05\n        /* \"contracts/ERC20.sol\":2063:2079  balances[sender] */\n      0x00\n        /* \"contracts/ERC20.sol\":2072:2078  sender */\n      dup7\n        /* \"contracts/ERC20.sol\":2063:2079  balances[sender] */\n      0xffffffffffffffffffffffffffffffffffffffff\n      and\n      0xffffffffffffffffffffffffffffffffffffffff\n      and\n      dup2\n      mstore\n      0x20\n      add\n      swap1\n      dup2\n      mstore\n      0x20\n      add\n      0x00\n      keccak256\n      0x00\n        /* \"contracts/ERC20.sol\":2063:2089  balances[sender] -= amount */\n      dup3\n      dup3\n      sload\n      tag_131\n      swap2\n      swap1\n      tag_28\n      jump\t// in\n    tag_131:\n      swap3\n      pop\n      pop\n      dup2\n      swap1\n      sstore\n      pop\n        /* \"contracts/ERC20.sol\":2111:2117  amount */\n      dup2\n        /* \"contracts/ERC20.sol\":2095:2103  balances */\n      0x05\n        /* \"contracts/ERC20.sol\":2095:2107  balances[to] */\n      0x00\n        /* \"contracts/ERC20.sol\":2104:2106  to */\n      dup6\n        /* \"contracts/ERC20.sol\":2095:2107  balances[to] */\n      0xffffffffffffffffffffffffffffffffffffffff\n      and\n      0xffffffffffffffffffffffffffffffffffffffff\n      and\n      dup2\n      mstore\n      0x20\n      add\n      swap1\n      dup2\n      mstore\n      0x20\n      add\n      0x00\n      keccak256\n      0x00\n        /* \"contracts/ERC20.sol\":2095:2117  balances[to] += amount */\n      dup3\n      dup3\n      sload\n      tag_132\n      swap2\n      swap1\n      tag_30\n      jump\t// in\n    tag_132:\n      swap3\n      pop\n      pop\n      dup2\n      swap1\n      sstore\n      pop\n        /* \"contracts/ERC20.sol\":2130:2134  true */\n      0x01\n        /* \"contracts/ERC20.sol\":2123:2134  return true */\n      swap1\n      pop\n        /* \"contracts/ERC20.sol\":1865:2139  function transferFrom(address sender,address to, uint amount) external override returns(bool){... */\n      swap4\n      swap3\n      pop\n      pop\n      pop\n      jump\t// out\n        /* \"contracts/Poketmon.sol\":1332:2042  function buyPoketmon() public {... */\n    tag_59:\n        /* \"contracts/Poketmon.sol\":1400:1410  tokenPrice */\n      sload(0x07)\n        /* \"contracts/Poketmon.sol\":1376:1384  balances */\n      0x05\n        /* \"contracts/Poketmon.sol\":1376:1396  balances[msg.sender] */\n      0x00\n        /* \"contracts/Poketmon.sol\":1385:1395  msg.sender */\n      caller\n        /* \"contracts/Poketmon.sol\":1376:1396  balances[msg.sender] */\n      0xffffffffffffffffffffffffffffffffffffffff\n      and\n      0xffffffffffffffffffffffffffffffffffffffff\n      and\n      dup2\n      mstore\n      0x20\n      add\n      swap1\n      dup2\n      mstore\n      0x20\n      add\n      0x00\n      keccak256\n      sload\n        /* \"contracts/Poketmon.sol\":1376:1410  balances[msg.sender] >= tokenPrice */\n      lt\n      iszero\n        /* \"contracts/Poketmon.sol\":1368:1411  require(balances[msg.sender] >= tokenPrice) */\n      tag_134\n      jumpi\n      0x00\n      dup1\n      revert\n    tag_134:\n        /* \"contracts/Poketmon.sol\":1441:1451  tokenPrice */\n      sload(0x07)\n        /* \"contracts/Poketmon.sol\":1417:1425  balances */\n      0x05\n        /* \"contracts/Poketmon.sol\":1417:1437  balances[msg.sender] */\n      0x00\n        /* \"contracts/Poketmon.sol\":1426:1436  msg.sender */\n      caller\n        /* \"contracts/Poketmon.sol\":1417:1437  balances[msg.sender] */\n      0xffffffffffffffffffffffffffffffffffffffff\n      and\n      0xffffffffffffffffffffffffffffffffffffffff\n      and\n      dup2\n      mstore\n      0x20\n      add\n      swap1\n      dup2\n      mstore\n      0x20\n      add\n      0x00\n      keccak256\n      0x00\n        /* \"contracts/Poketmon.sol\":1417:1451  balances[msg.sender] -= tokenPrice */\n      dup3\n      dup3\n      sload\n      tag_135\n      swap2\n      swap1\n      tag_28\n      jump\t// in\n    tag_135:\n      swap3\n      pop\n      pop\n      dup2\n      swap1\n      sstore\n      pop\n        /* \"contracts/Poketmon.sol\":1472:1482  tokenPrice */\n      sload(0x07)\n        /* \"contracts/Poketmon.sol\":1457:1468  totalSupply */\n      0x03\n      0x00\n        /* \"contracts/Poketmon.sol\":1457:1482  totalSupply -= tokenPrice */\n      dup3\n      dup3\n      sload\n      tag_136\n      swap2\n      swap1\n      tag_28\n      jump\t// in\n    tag_136:\n      swap3\n      pop\n      pop\n      dup2\n      swap1\n      sstore\n      pop\n        /* \"contracts/Poketmon.sol\":1489:1500  uint random */\n      0x00\n        /* \"contracts/Poketmon.sol\":1542:1557  block.timestamp */\n      timestamp\n        /* \"contracts/Poketmon.sol\":1559:1573  block.coinbase */\n      coinbase\n        /* \"contracts/Poketmon.sol\":1575:1587  block.number */\n      number\n        /* \"contracts/Poketmon.sol\":1525:1588  abi.encodePacked(block.timestamp, block.coinbase, block.number) */\n      add(0x20, mload(0x40))\n      tag_137\n      swap4\n      swap3\n      swap2\n      swap1\n      tag_138\n      jump\t// in\n    tag_137:\n      mload(0x40)\n      0x20\n      dup2\n      dup4\n      sub\n      sub\n      dup2\n      mstore\n      swap1\n      0x40\n      mstore\n        /* \"contracts/Poketmon.sol\":1508:1594  keccak256(... */\n      dup1\n      mload\n      swap1\n      0x20\n      add\n      keccak256\n        /* \"contracts/Poketmon.sol\":1503:1595  uint(keccak256(... */\n      0x00\n      shr\n        /* \"contracts/Poketmon.sol\":1489:1595  uint random = uint(keccak256(... */\n      swap1\n      pop\n        /* \"contracts/Poketmon.sol\":1625:1626  3 */\n      0x03\n        /* \"contracts/Poketmon.sol\":1616:1622  random */\n      dup2\n        /* \"contracts/Poketmon.sol\":1616:1626  random % 3 */\n      tag_139\n      swap2\n      swap1\n      tag_140\n      jump\t// in\n    tag_139:\n        /* \"contracts/Poketmon.sol\":1602:1627  random = uint(random % 3) */\n      swap1\n      pop\n        /* \"contracts/Poketmon.sol\":1670:1679  poketmons */\n      0x0a\n        /* \"contracts/Poketmon.sol\":1670:1691  poketmons[msg.sender] */\n      0x00\n        /* \"contracts/Poketmon.sol\":1680:1690  msg.sender */\n      caller\n        /* \"contracts/Poketmon.sol\":1670:1691  poketmons[msg.sender] */\n      0xffffffffffffffffffffffffffffffffffffffff\n      and\n      0xffffffffffffffffffffffffffffffffffffffff\n      and\n      dup2\n      mstore\n      0x20\n      add\n      swap1\n      dup2\n      mstore\n      0x20\n      add\n      0x00\n      keccak256\n        /* \"contracts/Poketmon.sol\":1697:1745  Pokets(poketmonUrl[random],poketmonName[random]) */\n      mload(0x40)\n      dup1\n      0x40\n      add\n      0x40\n      mstore\n      dup1\n        /* \"contracts/Poketmon.sol\":1704:1715  poketmonUrl */\n      0x09\n        /* \"contracts/Poketmon.sol\":1716:1722  random */\n      dup5\n        /* \"contracts/Poketmon.sol\":1704:1723  poketmonUrl[random] */\n      dup2\n      sload\n      dup2\n      lt\n      tag_141\n      jumpi\n      tag_142\n      tag_143\n      jump\t// in\n    tag_142:\n    tag_141:\n      swap1\n      0x00\n      mstore\n      keccak256(0x00, 0x20)\n      add\n        /* \"contracts/Poketmon.sol\":1697:1745  Pokets(poketmonUrl[random],poketmonName[random]) */\n      dup1\n      sload\n      tag_145\n      swap1\n      tag_122\n      jump\t// in\n    tag_145:\n      dup1\n      0x1f\n      add\n      0x20\n      dup1\n      swap2\n      div\n      mul\n      0x20\n      add\n      mload(0x40)\n      swap1\n      dup2\n      add\n      0x40\n      mstore\n      dup1\n      swap3\n      swap2\n      swap1\n      dup2\n      dup2\n      mstore\n      0x20\n      add\n      dup3\n      dup1\n      sload\n      tag_146\n      swap1\n      tag_122\n      jump\t// in\n    tag_146:\n      dup1\n      iszero\n      tag_147\n      jumpi\n      dup1\n      0x1f\n      lt\n      tag_148\n      jumpi\n      0x0100\n      dup1\n      dup4\n      sload\n      div\n      mul\n      dup4\n      mstore\n      swap2\n      0x20\n      add\n      swap2\n      jump(tag_147)\n    tag_148:\n      dup3\n      add\n      swap2\n      swap1\n      0x00\n      mstore\n      keccak256(0x00, 0x20)\n      swap1\n    tag_149:\n      dup2\n      sload\n      dup2\n      mstore\n      swap1\n      0x01\n      add\n      swap1\n      0x20\n      add\n      dup1\n      dup4\n      gt\n      tag_149\n      jumpi\n      dup3\n      swap1\n      sub\n      0x1f\n      and\n      dup3\n      add\n      swap2\n    tag_147:\n      pop\n      pop\n      pop\n      pop\n      pop\n      dup2\n      mstore\n      0x20\n      add\n        /* \"contracts/Poketmon.sol\":1724:1736  poketmonName */\n      0x08\n        /* \"contracts/Poketmon.sol\":1737:1743  random */\n      dup5\n        /* \"contracts/Poketmon.sol\":1724:1744  poketmonName[random] */\n      dup2\n      sload\n      dup2\n      lt\n      tag_150\n      jumpi\n      tag_151\n      tag_143\n      jump\t// in\n    tag_151:\n    tag_150:\n      swap1\n      0x00\n      mstore\n      keccak256(0x00, 0x20)\n      add\n        /* \"contracts/Poketmon.sol\":1697:1745  Pokets(poketmonUrl[random],poketmonName[random]) */\n      dup1\n      sload\n      tag_153\n      swap1\n      tag_122\n      jump\t// in\n    tag_153:\n      dup1\n      0x1f\n      add\n      0x20\n      dup1\n      swap2\n      div\n      mul\n      0x20\n      add\n      mload(0x40)\n      swap1\n      dup2\n      add\n      0x40\n      mstore\n      dup1\n      swap3\n      swap2\n      swap1\n      dup2\n      dup2\n      mstore\n      0x20\n      add\n      dup3\n      dup1\n      sload\n      tag_154\n      swap1\n      tag_122\n      jump\t// in\n    tag_154:\n      dup1\n      iszero\n      tag_155\n      jumpi\n      dup1\n      0x1f\n      lt\n      tag_156\n      jumpi\n      0x0100\n      dup1\n      dup4\n      sload\n      div\n      mul\n      dup4\n      mstore\n      swap2\n      0x20\n      add\n      swap2\n      jump(tag_155)\n    tag_156:\n      dup3\n      add\n      swap2\n      swap1\n      0x00\n      mstore\n      keccak256(0x00, 0x20)\n      swap1\n    tag_157:\n      dup2\n      sload\n      dup2\n      mstore\n      swap1\n      0x01\n      add\n      swap1\n      0x20\n      add\n      dup1\n      dup4\n      gt\n      tag_157\n      jumpi\n      dup3\n      swap1\n      sub\n      0x1f\n      and\n      dup3\n      add\n      swap2\n    tag_155:\n      pop\n      pop\n      pop\n      pop\n      pop\n      dup2\n      mstore\n      pop\n        /* \"contracts/Poketmon.sol\":1670:1746  poketmons[msg.sender].push(Pokets(poketmonUrl[random],poketmonName[random])) */\n      swap1\n      dup1\n      0x01\n      dup2\n      sload\n      add\n      dup1\n      dup3\n      sstore\n      dup1\n      swap2\n      pop\n      pop\n      0x01\n      swap1\n      sub\n      swap1\n      0x00\n      mstore\n      keccak256(0x00, 0x20)\n      swap1\n      0x02\n      mul\n      add\n      0x00\n      swap1\n      swap2\n      swap1\n      swap2\n      swap1\n      swap2\n      pop\n      0x00\n      dup3\n      add\n      mload\n      dup2\n      0x00\n      add\n      swap1\n      dup2\n      tag_159\n      swap2\n      swap1\n      tag_160\n      jump\t// in\n    tag_159:\n      pop\n      0x20\n      dup3\n      add\n      mload\n      dup2\n      0x01\n      add\n      swap1\n      dup2\n      tag_161\n      swap2\n      swap1\n      tag_160\n      jump\t// in\n    tag_161:\n      pop\n      pop\n      pop\n        /* \"contracts/Poketmon.sol\":1806:1817  bool isUser */\n      0x00\n        /* \"contracts/Poketmon.sol\":1837:1846  uint256 i */\n      dup1\n        /* \"contracts/Poketmon.sol\":1832:1970  for (uint256 i = 0; i < users.length; i++){... */\n    tag_162:\n        /* \"contracts/Poketmon.sol\":1856:1861  users */\n      0x0b\n        /* \"contracts/Poketmon.sol\":1856:1868  users.length */\n      dup1\n      sload\n      swap1\n      pop\n        /* \"contracts/Poketmon.sol\":1852:1853  i */\n      dup2\n        /* \"contracts/Poketmon.sol\":1852:1868  i < users.length */\n      lt\n        /* \"contracts/Poketmon.sol\":1832:1970  for (uint256 i = 0; i < users.length; i++){... */\n      iszero\n      tag_163\n      jumpi\n        /* \"contracts/Poketmon.sol\":1905:1915  msg.sender */\n      caller\n        /* \"contracts/Poketmon.sol\":1885:1915  users[i].account == msg.sender */\n      0xffffffffffffffffffffffffffffffffffffffff\n      and\n        /* \"contracts/Poketmon.sol\":1885:1890  users */\n      0x0b\n        /* \"contracts/Poketmon.sol\":1891:1892  i */\n      dup3\n        /* \"contracts/Poketmon.sol\":1885:1893  users[i] */\n      dup2\n      sload\n      dup2\n      lt\n      tag_165\n      jumpi\n      tag_166\n      tag_143\n      jump\t// in\n    tag_166:\n    tag_165:\n      swap1\n      0x00\n      mstore\n      keccak256(0x00, 0x20)\n      add\n        /* \"contracts/Poketmon.sol\":1885:1901  users[i].account */\n      0x00\n      add\n      0x00\n      swap1\n      sload\n      swap1\n      0x0100\n      exp\n      swap1\n      div\n      0xffffffffffffffffffffffffffffffffffffffff\n      and\n        /* \"contracts/Poketmon.sol\":1885:1915  users[i].account == msg.sender */\n      0xffffffffffffffffffffffffffffffffffffffff\n      and\n      sub\n        /* \"contracts/Poketmon.sol\":1882:1964  if(users[i].account == msg.sender) {... */\n      tag_168\n      jumpi\n        /* \"contracts/Poketmon.sol\":1936:1940  true */\n      0x01\n        /* \"contracts/Poketmon.sol\":1927:1940  isUser = true */\n      swap2\n      pop\n        /* \"contracts/Poketmon.sol\":1950:1955  break */\n      jump(tag_163)\n        /* \"contracts/Poketmon.sol\":1882:1964  if(users[i].account == msg.sender) {... */\n    tag_168:\n        /* \"contracts/Poketmon.sol\":1870:1873  i++ */\n      dup1\n      dup1\n      tag_169\n      swap1\n      tag_170\n      jump\t// in\n    tag_169:\n      swap2\n      pop\n      pop\n        /* \"contracts/Poketmon.sol\":1832:1970  for (uint256 i = 0; i < users.length; i++){... */\n      jump(tag_162)\n    tag_163:\n      pop\n        /* \"contracts/Poketmon.sol\":1982:1988  isUser */\n      dup1\n        /* \"contracts/Poketmon.sol\":1978:2038  if(!isUser) {... */\n      tag_171\n      jumpi\n        /* \"contracts/Poketmon.sol\":2000:2005  users */\n      0x0b\n        /* \"contracts/Poketmon.sol\":2011:2028  Users(msg.sender) */\n      mload(0x40)\n      dup1\n      0x20\n      add\n      0x40\n      mstore\n      dup1\n        /* \"contracts/Poketmon.sol\":2017:2027  msg.sender */\n      caller\n        /* \"contracts/Poketmon.sol\":2011:2028  Users(msg.sender) */\n      0xffffffffffffffffffffffffffffffffffffffff\n      and\n      dup2\n      mstore\n      pop\n        /* \"contracts/Poketmon.sol\":2000:2029  users.push(Users(msg.sender)) */\n      swap1\n      dup1\n      0x01\n      dup2\n      sload\n      add\n      dup1\n      dup3\n      sstore\n      dup1\n      swap2\n      pop\n      pop\n      0x01\n      swap1\n      sub\n      swap1\n      0x00\n      mstore\n      keccak256(0x00, 0x20)\n      add\n      0x00\n      swap1\n      swap2\n      swap1\n      swap2\n      swap1\n      swap2\n      pop\n      0x00\n      dup3\n      add\n      mload\n      dup2\n      0x00\n      add\n      exp(0x0100, 0x00)\n      dup2\n      sload\n      dup2\n      0xffffffffffffffffffffffffffffffffffffffff\n      mul\n      not\n      and\n      swap1\n      dup4\n      0xffffffffffffffffffffffffffffffffffffffff\n      and\n      mul\n      or\n      swap1\n      sstore\n      pop\n      pop\n      pop\n        /* \"contracts/Poketmon.sol\":1978:2038  if(!isUser) {... */\n    tag_171:\n        /* \"contracts/Poketmon.sol\":1362:2042  {... */\n      pop\n      pop\n        /* \"contracts/Poketmon.sol\":1332:2042  function buyPoketmon() public {... */\n      jump\t// out\n        /* \"contracts/ERC20.sol\":392:432  mapping(address => uint) public balances */\n    tag_64:\n      mstore(0x20, 0x05)\n      dup1\n      0x00\n      mstore\n      keccak256(0x00, 0x40)\n      0x00\n      swap2\n      pop\n      swap1\n      pop\n      sload\n      dup2\n      jump\t// out\n        /* \"contracts/Poketmon.sol\":1136:1236  function getPoketmon() public view returns (Pokets[] memory) {... */\n    tag_68:\n        /* \"contracts/Poketmon.sol\":1180:1195  Pokets[] memory */\n      0x60\n        /* \"contracts/Poketmon.sol\":1210:1219  poketmons */\n      0x0a\n        /* \"contracts/Poketmon.sol\":1210:1231  poketmons[msg.sender] */\n      0x00\n        /* \"contracts/Poketmon.sol\":1220:1230  msg.sender */\n      caller\n        /* \"contracts/Poketmon.sol\":1210:1231  poketmons[msg.sender] */\n      0xffffffffffffffffffffffffffffffffffffffff\n      and\n      0xffffffffffffffffffffffffffffffffffffffff\n      and\n      dup2\n      mstore\n      0x20\n      add\n      swap1\n      dup2\n      mstore\n      0x20\n      add\n      0x00\n      keccak256\n        /* \"contracts/Poketmon.sol\":1203:1231  return poketmons[msg.sender] */\n      dup1\n      sload\n      dup1\n      0x20\n      mul\n      0x20\n      add\n      mload(0x40)\n      swap1\n      dup2\n      add\n      0x40\n      mstore\n      dup1\n      swap3\n      swap2\n      swap1\n      dup2\n      dup2\n      mstore\n      0x20\n      add\n      0x00\n      swap1\n    tag_174:\n      dup3\n      dup3\n      lt\n      iszero\n      tag_175\n      jumpi\n      dup4\n      dup3\n      swap1\n      0x00\n      mstore\n      keccak256(0x00, 0x20)\n      swap1\n      0x02\n      mul\n      add\n      mload(0x40)\n      dup1\n      0x40\n      add\n      0x40\n      mstore\n      swap1\n      dup2\n      0x00\n      dup3\n      add\n      dup1\n      sload\n      tag_177\n      swap1\n      tag_122\n      jump\t// in\n    tag_177:\n      dup1\n      0x1f\n      add\n      0x20\n      dup1\n      swap2\n      div\n      mul\n      0x20\n      add\n      mload(0x40)\n      swap1\n      dup2\n      add\n      0x40\n      mstore\n      dup1\n      swap3\n      swap2\n      swap1\n      dup2\n      dup2\n      mstore\n      0x20\n      add\n      dup3\n      dup1\n      sload\n      tag_178\n      swap1\n      tag_122\n      jump\t// in\n    tag_178:\n      dup1\n      iszero\n      tag_179\n      jumpi\n      dup1\n      0x1f\n      lt\n      tag_180\n      jumpi\n      0x0100\n      dup1\n      dup4\n      sload\n      div\n      mul\n      dup4\n      mstore\n      swap2\n      0x20\n      add\n      swap2\n      jump(tag_179)\n    tag_180:\n      dup3\n      add\n      swap2\n      swap1\n      0x00\n      mstore\n      keccak256(0x00, 0x20)\n      swap1\n    tag_181:\n      dup2\n      sload\n      dup2\n      mstore\n      swap1\n      0x01\n      add\n      swap1\n      0x20\n      add\n      dup1\n      dup4\n      gt\n      tag_181\n      jumpi\n      dup3\n      swap1\n      sub\n      0x1f\n      and\n      dup3\n      add\n      swap2\n    tag_179:\n      pop\n      pop\n      pop\n      pop\n      pop\n      dup2\n      mstore\n      0x20\n      add\n      0x01\n      dup3\n      add\n      dup1\n      sload\n      tag_182\n      swap1\n      tag_122\n      jump\t// in\n    tag_182:\n      dup1\n      0x1f\n      add\n      0x20\n      dup1\n      swap2\n      div\n      mul\n      0x20\n      add\n      mload(0x40)\n      swap1\n      dup2\n      add\n      0x40\n      mstore\n      dup1\n      swap3\n      swap2\n      swap1\n      dup2\n      dup2\n      mstore\n      0x20\n      add\n      dup3\n      dup1\n      sload\n      tag_183\n      swap1\n      tag_122\n      jump\t// in\n    tag_183:\n      dup1\n      iszero\n      tag_184\n      jumpi\n      dup1\n      0x1f\n      lt\n      tag_185\n      jumpi\n      0x0100\n      dup1\n      dup4\n      sload\n      div\n      mul\n      dup4\n      mstore\n      swap2\n      0x20\n      add\n      swap2\n      jump(tag_184)\n    tag_185:\n      dup3\n      add\n      swap2\n      swap1\n      0x00\n      mstore\n      keccak256(0x00, 0x20)\n      swap1\n    tag_186:\n      dup2\n      sload\n      dup2\n      mstore\n      swap1\n      0x01\n      add\n      swap1\n      0x20\n      add\n      dup1\n      dup4\n      gt\n      tag_186\n      jumpi\n      dup3\n      swap1\n      sub\n      0x1f\n      and\n      dup3\n      add\n      swap2\n    tag_184:\n      pop\n      pop\n      pop\n      pop\n      pop\n      dup2\n      mstore\n      pop\n      pop\n      dup2\n      mstore\n      0x20\n      add\n      swap1\n      0x01\n      add\n      swap1\n      jump(tag_174)\n    tag_175:\n      pop\n      pop\n      pop\n      pop\n      swap1\n      pop\n        /* \"contracts/Poketmon.sol\":1136:1236  function getPoketmon() public view returns (Pokets[] memory) {... */\n      swap1\n      jump\t// out\n        /* \"contracts/ERC20.sol\":251:277  uint8 public decimals = 18 */\n    tag_73:\n      0x02\n      0x00\n      swap1\n      sload\n      swap1\n      0x0100\n      exp\n      swap1\n      div\n      0xff\n      and\n      dup2\n      jump\t// out\n        /* \"contracts/Poketmon.sol\":1056:1076  Users[] public users */\n    tag_80:\n      0x0b\n      dup2\n      dup2\n      sload\n      dup2\n      lt\n      tag_187\n      jumpi\n      0x00\n      dup1\n      revert\n    tag_187:\n      swap1\n      0x00\n      mstore\n      keccak256(0x00, 0x20)\n      add\n      0x00\n      swap2\n      pop\n      swap1\n      pop\n      dup1\n      0x00\n      add\n      0x00\n      swap1\n      sload\n      swap1\n      0x0100\n      exp\n      swap1\n      div\n      0xffffffffffffffffffffffffffffffffffffffff\n      and\n      swap1\n      pop\n      dup2\n      jump\t// out\n        /* \"contracts/ERC20.sol\":2149:2253  function burn(uint amount) external {... */\n    tag_86:\n        /* \"contracts/ERC20.sol\":2215:2221  amount */\n      dup1\n        /* \"contracts/ERC20.sol\":2191:2199  balances */\n      0x05\n        /* \"contracts/ERC20.sol\":2191:2211  balances[msg.sender] */\n      0x00\n        /* \"contracts/ERC20.sol\":2200:2210  msg.sender */\n      caller\n        /* \"contracts/ERC20.sol\":2191:2211  balances[msg.sender] */\n      0xffffffffffffffffffffffffffffffffffffffff\n      and\n      0xffffffffffffffffffffffffffffffffffffffff\n      and\n      dup2\n      mstore\n      0x20\n      add\n      swap1\n      dup2\n      mstore\n      0x20\n      add\n      0x00\n      keccak256\n      0x00\n        /* \"contracts/ERC20.sol\":2191:2221  balances[msg.sender] -= amount */\n      dup3\n      dup3\n      sload\n      tag_190\n      swap2\n      swap1\n      tag_28\n      jump\t// in\n    tag_190:\n      swap3\n      pop\n      pop\n      dup2\n      swap1\n      sstore\n      pop\n        /* \"contracts/ERC20.sol\":2242:2248  amount */\n      dup1\n        /* \"contracts/ERC20.sol\":2227:2238  totalSupply */\n      0x03\n      0x00\n        /* \"contracts/ERC20.sol\":2227:2248  totalSupply -= amount */\n      dup3\n      dup3\n      sload\n      tag_191\n      swap2\n      swap1\n      tag_28\n      jump\t// in\n    tag_191:\n      swap3\n      pop\n      pop\n      dup2\n      swap1\n      sstore\n      pop\n        /* \"contracts/ERC20.sol\":2149:2253  function burn(uint amount) external {... */\n      pop\n      jump\t// out\n        /* \"contracts/ERC20.sol\":1421:1528  function balanceOf(address account) external view override returns(uint){... */\n    tag_90:\n        /* \"contracts/ERC20.sol\":1488:1492  uint */\n      0x00\n        /* \"contracts/ERC20.sol\":1506:1514  balances */\n      0x05\n        /* \"contracts/ERC20.sol\":1506:1523  balances[account] */\n      0x00\n        /* \"contracts/ERC20.sol\":1515:1522  account */\n      dup4\n        /* \"contracts/ERC20.sol\":1506:1523  balances[account] */\n      0xffffffffffffffffffffffffffffffffffffffff\n      and\n      0xffffffffffffffffffffffffffffffffffffffff\n      and\n      dup2\n      mstore\n      0x20\n      add\n      swap1\n      dup2\n      mstore\n      0x20\n      add\n      0x00\n      keccak256\n      sload\n        /* \"contracts/ERC20.sol\":1499:1523  return balances[account] */\n      swap1\n      pop\n        /* \"contracts/ERC20.sol\":1421:1528  function balanceOf(address account) external view override returns(uint){... */\n      swap2\n      swap1\n      pop\n      jump\t// out\n        /* \"contracts/Poketmon.sol\":1240:1328  function getPoketmonUsers() public view returns (Users[] memory) {... */\n    tag_94:\n        /* \"contracts/Poketmon.sol\":1289:1303  Users[] memory */\n      0x60\n        /* \"contracts/Poketmon.sol\":1318:1323  users */\n      0x0b\n        /* \"contracts/Poketmon.sol\":1311:1323  return users */\n      dup1\n      sload\n      dup1\n      0x20\n      mul\n      0x20\n      add\n      mload(0x40)\n      swap1\n      dup2\n      add\n      0x40\n      mstore\n      dup1\n      swap3\n      swap2\n      swap1\n      dup2\n      dup2\n      mstore\n      0x20\n      add\n      0x00\n      swap1\n    tag_194:\n      dup3\n      dup3\n      lt\n      iszero\n      tag_195\n      jumpi\n      dup4\n      dup3\n      swap1\n      0x00\n      mstore\n      keccak256(0x00, 0x20)\n      add\n      mload(0x40)\n      dup1\n      0x20\n      add\n      0x40\n      mstore\n      swap1\n      dup2\n      0x00\n      dup3\n      add\n      0x00\n      swap1\n      sload\n      swap1\n      0x0100\n      exp\n      swap1\n      div\n      0xffffffffffffffffffffffffffffffffffffffff\n      and\n      0xffffffffffffffffffffffffffffffffffffffff\n      and\n      0xffffffffffffffffffffffffffffffffffffffff\n      and\n      dup2\n      mstore\n      pop\n      pop\n      dup2\n      mstore\n      0x20\n      add\n      swap1\n      0x01\n      add\n      swap1\n      jump(tag_194)\n    tag_195:\n      pop\n      pop\n      pop\n      pop\n      swap1\n      pop\n        /* \"contracts/Poketmon.sol\":1240:1328  function getPoketmonUsers() public view returns (Users[] memory) {... */\n      swap1\n      jump\t// out\n        /* \"contracts/Poketmon.sol\":938:983  mapping(address => Pokets[]) public poketmons */\n    tag_100:\n      mstore(0x20, 0x0a)\n      dup2\n      0x00\n      mstore\n      keccak256(0x00, 0x40)\n      dup2\n      dup2\n      sload\n      dup2\n      lt\n      tag_197\n      jumpi\n      0x00\n      dup1\n      revert\n    tag_197:\n      swap1\n      0x00\n      mstore\n      keccak256(0x00, 0x20)\n      swap1\n      0x02\n      mul\n      add\n      0x00\n      swap2\n      pop\n      swap2\n      pop\n      pop\n      dup1\n      0x00\n      add\n      dup1\n      sload\n      tag_199\n      swap1\n      tag_122\n      jump\t// in\n    tag_199:\n      dup1\n      0x1f\n      add\n      0x20\n      dup1\n      swap2\n      div\n      mul\n      0x20\n      add\n      mload(0x40)\n      swap1\n      dup2\n      add\n      0x40\n      mstore\n      dup1\n      swap3\n      swap2\n      swap1\n      dup2\n      dup2\n      mstore\n      0x20\n      add\n      dup3\n      dup1\n      sload\n      tag_200\n      swap1\n      tag_122\n      jump\t// in\n    tag_200:\n      dup1\n      iszero\n      tag_201\n      jumpi\n      dup1\n      0x1f\n      lt\n      tag_202\n      jumpi\n      0x0100\n      dup1\n      dup4\n      sload\n      div\n      mul\n      dup4\n      mstore\n      swap2\n      0x20\n      add\n      swap2\n      jump(tag_201)\n    tag_202:\n      dup3\n      add\n      swap2\n      swap1\n      0x00\n      mstore\n      keccak256(0x00, 0x20)\n      swap1\n    tag_203:\n      dup2\n      sload\n      dup2\n      mstore\n      swap1\n      0x01\n      add\n      swap1\n      0x20\n      add\n      dup1\n      dup4\n      gt\n      tag_203\n      jumpi\n      dup3\n      swap1\n      sub\n      0x1f\n      and\n      dup3\n      add\n      swap2\n    tag_201:\n      pop\n      pop\n      pop\n      pop\n      pop\n      swap1\n      dup1\n      0x01\n      add\n      dup1\n      sload\n      tag_204\n      swap1\n      tag_122\n      jump\t// in\n    tag_204:\n      dup1\n      0x1f\n      add\n      0x20\n      dup1\n      swap2\n      div\n      mul\n      0x20\n      add\n      mload(0x40)\n      swap1\n      dup2\n      add\n      0x40\n      mstore\n      dup1\n      swap3\n      swap2\n      swap1\n      dup2\n      dup2\n      mstore\n      0x20\n      add\n      dup3\n      dup1\n      sload\n      tag_205\n      swap1\n      tag_122\n      jump\t// in\n    tag_205:\n      dup1\n      iszero\n      tag_206\n      jumpi\n      dup1\n      0x1f\n      lt\n      tag_207\n      jumpi\n      0x0100\n      dup1\n      dup4\n      sload\n      div\n      mul\n      dup4\n      mstore\n      swap2\n      0x20\n      add\n      swap2\n      jump(tag_206)\n    tag_207:\n      dup3\n      add\n      swap2\n      swap1\n      0x00\n      mstore\n      keccak256(0x00, 0x20)\n      swap1\n    tag_208:\n      dup2\n      sload\n      dup2\n      mstore\n      swap1\n      0x01\n      add\n      swap1\n      0x20\n      add\n      dup1\n      dup4\n      gt\n      tag_208\n      jumpi\n      dup3\n      swap1\n      sub\n      0x1f\n      and\n      dup3\n      add\n      swap2\n    tag_206:\n      pop\n      pop\n      pop\n      pop\n      pop\n      swap1\n      pop\n      dup3\n      jump\t// out\n        /* \"contracts/ERC20.sol\":178:198  string public symbol */\n    tag_105:\n      0x01\n      dup1\n      sload\n      tag_209\n      swap1\n      tag_122\n      jump\t// in\n    tag_209:\n      dup1\n      0x1f\n      add\n      0x20\n      dup1\n      swap2\n      div\n      mul\n      0x20\n      add\n      mload(0x40)\n      swap1\n      dup2\n      add\n      0x40\n      mstore\n      dup1\n      swap3\n      swap2\n      swap1\n      dup2\n      dup2\n      mstore\n      0x20\n      add\n      dup3\n      dup1\n      sload\n      tag_210\n      swap1\n      tag_122\n      jump\t// in\n    tag_210:\n      dup1\n      iszero\n      tag_211\n      jumpi\n      dup1\n      0x1f\n      lt\n      tag_212\n      jumpi\n      0x0100\n      dup1\n      dup4\n      sload\n      div\n      mul\n      dup4\n      mstore\n      swap2\n      0x20\n      add\n      swap2\n      jump(tag_211)\n    tag_212:\n      dup3\n      add\n      swap2\n      swap1\n      0x00\n      mstore\n      keccak256(0x00, 0x20)\n      swap1\n    tag_213:\n      dup2\n      sload\n      dup2\n      mstore\n      swap1\n      0x01\n      add\n      swap1\n      0x20\n      add\n      dup1\n      dup4\n      gt\n      tag_213\n      jumpi\n      dup3\n      swap1\n      sub\n      0x1f\n      and\n      dup3\n      add\n      swap2\n    tag_211:\n      pop\n      pop\n      pop\n      pop\n      pop\n      dup2\n      jump\t// out\n        /* \"contracts/ERC20.sol\":1538:1698  function transfer(address to, uint amount) external override returns(bool){... */\n    tag_110:\n        /* \"contracts/ERC20.sol\":1607:1611  bool */\n      0x00\n        /* \"contracts/ERC20.sol\":1642:1648  amount */\n      dup2\n        /* \"contracts/ERC20.sol\":1618:1626  balances */\n      0x05\n        /* \"contracts/ERC20.sol\":1618:1638  balances[msg.sender] */\n      0x00\n        /* \"contracts/ERC20.sol\":1627:1637  msg.sender */\n      caller\n        /* \"contracts/ERC20.sol\":1618:1638  balances[msg.sender] */\n      0xffffffffffffffffffffffffffffffffffffffff\n      and\n      0xffffffffffffffffffffffffffffffffffffffff\n      and\n      dup2\n      mstore\n      0x20\n      add\n      swap1\n      dup2\n      mstore\n      0x20\n      add\n      0x00\n      keccak256\n      0x00\n        /* \"contracts/ERC20.sol\":1618:1648  balances[msg.sender] -= amount */\n      dup3\n      dup3\n      sload\n      tag_215\n      swap2\n      swap1\n      tag_28\n      jump\t// in\n    tag_215:\n      swap3\n      pop\n      pop\n      dup2\n      swap1\n      sstore\n      pop\n        /* \"contracts/ERC20.sol\":1670:1676  amount */\n      dup2\n        /* \"contracts/ERC20.sol\":1654:1662  balances */\n      0x05\n        /* \"contracts/ERC20.sol\":1654:1666  balances[to] */\n      0x00\n        /* \"contracts/ERC20.sol\":1663:1665  to */\n      dup6\n        /* \"contracts/ERC20.sol\":1654:1666  balances[to] */\n      0xffffffffffffffffffffffffffffffffffffffff\n      and\n      0xffffffffffffffffffffffffffffffffffffffff\n      and\n      dup2\n      mstore\n      0x20\n      add\n      swap1\n      dup2\n      mstore\n      0x20\n      add\n      0x00\n      keccak256\n      0x00\n        /* \"contracts/ERC20.sol\":1654:1676  balances[to] += amount */\n      dup3\n      dup3\n      sload\n      tag_216\n      swap2\n      swap1\n      tag_30\n      jump\t// in\n    tag_216:\n      swap3\n      pop\n      pop\n      dup2\n      swap1\n      sstore\n      pop\n        /* \"contracts/ERC20.sol\":1689:1693  true */\n      0x01\n        /* \"contracts/ERC20.sol\":1682:1693  return true */\n      swap1\n      pop\n        /* \"contracts/ERC20.sol\":1538:1698  function transfer(address to, uint amount) external override returns(bool){... */\n      swap3\n      swap2\n      pop\n      pop\n      jump\t// out\n        /* \"contracts/ERC20.sol\":442:512  mapping(address => mapping(address => uint)) public override allowance */\n    tag_116:\n      mstore(0x20, 0x06)\n      dup2\n      0x00\n      mstore\n      mstore(0x20, keccak256(0x00, 0x40))\n      dup1\n      0x00\n      mstore\n      keccak256(0x00, 0x40)\n      0x00\n      swap2\n      pop\n      swap2\n      pop\n      pop\n      sload\n      dup2\n      jump\t// out\n        /* \"#utility.yul\":7:84   */\n    tag_217:\n        /* \"#utility.yul\":44:51   */\n      0x00\n        /* \"#utility.yul\":73:78   */\n      dup2\n        /* \"#utility.yul\":62:78   */\n      swap1\n      pop\n        /* \"#utility.yul\":7:84   */\n      swap2\n      swap1\n      pop\n      jump\t// out\n        /* \"#utility.yul\":90:270   */\n    tag_218:\n        /* \"#utility.yul\":138:215   */\n      0x4e487b7100000000000000000000000000000000000000000000000000000000\n        /* \"#utility.yul\":135:136   */\n      0x00\n        /* \"#utility.yul\":128:216   */\n      mstore\n        /* \"#utility.yul\":235:239   */\n      0x11\n        /* \"#utility.yul\":232:233   */\n      0x04\n        /* \"#utility.yul\":225:240   */\n      mstore\n        /* \"#utility.yul\":259:263   */\n      0x24\n        /* \"#utility.yul\":256:257   */\n      0x00\n        /* \"#utility.yul\":249:264   */\n      revert\n        /* \"#utility.yul\":276:686   */\n    tag_25:\n        /* \"#utility.yul\":316:323   */\n      0x00\n        /* \"#utility.yul\":339:359   */\n      tag_285\n        /* \"#utility.yul\":357:358   */\n      dup3\n        /* \"#utility.yul\":339:359   */\n      tag_217\n      jump\t// in\n    tag_285:\n        /* \"#utility.yul\":334:359   */\n      swap2\n      pop\n        /* \"#utility.yul\":373:393   */\n      tag_286\n        /* \"#utility.yul\":391:392   */\n      dup4\n        /* \"#utility.yul\":373:393   */\n      tag_217\n      jump\t// in\n    tag_286:\n        /* \"#utility.yul\":368:393   */\n      swap3\n      pop\n        /* \"#utility.yul\":428:429   */\n      dup3\n        /* \"#utility.yul\":425:426   */\n      dup3\n        /* \"#utility.yul\":421:430   */\n      mul\n        /* \"#utility.yul\":450:480   */\n      tag_287\n        /* \"#utility.yul\":468:479   */\n      dup2\n        /* \"#utility.yul\":450:480   */\n      tag_217\n      jump\t// in\n    tag_287:\n        /* \"#utility.yul\":439:480   */\n      swap2\n      pop\n        /* \"#utility.yul\":629:630   */\n      dup3\n        /* \"#utility.yul\":620:627   */\n      dup3\n        /* \"#utility.yul\":616:631   */\n      div\n        /* \"#utility.yul\":613:614   */\n      dup5\n        /* \"#utility.yul\":610:632   */\n      eq\n        /* \"#utility.yul\":590:591   */\n      dup4\n        /* \"#utility.yul\":583:592   */\n      iszero\n        /* \"#utility.yul\":563:646   */\n      or\n        /* \"#utility.yul\":540:679   */\n      tag_288\n      jumpi\n        /* \"#utility.yul\":659:677   */\n      tag_289\n      tag_218\n      jump\t// in\n    tag_289:\n        /* \"#utility.yul\":540:679   */\n    tag_288:\n        /* \"#utility.yul\":324:686   */\n      pop\n        /* \"#utility.yul\":276:686   */\n      swap3\n      swap2\n      pop\n      pop\n      jump\t// out\n        /* \"#utility.yul\":692:886   */\n    tag_28:\n        /* \"#utility.yul\":732:736   */\n      0x00\n        /* \"#utility.yul\":752:772   */\n      tag_291\n        /* \"#utility.yul\":770:771   */\n      dup3\n        /* \"#utility.yul\":752:772   */\n      tag_217\n      jump\t// in\n    tag_291:\n        /* \"#utility.yul\":747:772   */\n      swap2\n      pop\n        /* \"#utility.yul\":786:806   */\n      tag_292\n        /* \"#utility.yul\":804:805   */\n      dup4\n        /* \"#utility.yul\":786:806   */\n      tag_217\n      jump\t// in\n    tag_292:\n        /* \"#utility.yul\":781:806   */\n      swap3\n      pop\n        /* \"#utility.yul\":830:831   */\n      dup3\n        /* \"#utility.yul\":827:828   */\n      dup3\n        /* \"#utility.yul\":823:832   */\n      sub\n        /* \"#utility.yul\":815:832   */\n      swap1\n      pop\n        /* \"#utility.yul\":854:855   */\n      dup2\n        /* \"#utility.yul\":848:852   */\n      dup2\n        /* \"#utility.yul\":845:856   */\n      gt\n        /* \"#utility.yul\":842:879   */\n      iszero\n      tag_293\n      jumpi\n        /* \"#utility.yul\":859:877   */\n      tag_294\n      tag_218\n      jump\t// in\n    tag_294:\n        /* \"#utility.yul\":842:879   */\n    tag_293:\n        /* \"#utility.yul\":692:886   */\n      swap3\n      swap2\n      pop\n      pop\n      jump\t// out\n        /* \"#utility.yul\":892:1083   */\n    tag_30:\n        /* \"#utility.yul\":932:935   */\n      0x00\n        /* \"#utility.yul\":951:971   */\n      tag_296\n        /* \"#utility.yul\":969:970   */\n      dup3\n        /* \"#utility.yul\":951:971   */\n      tag_217\n      jump\t// in\n    tag_296:\n        /* \"#utility.yul\":946:971   */\n      swap2\n      pop\n        /* \"#utility.yul\":985:1005   */\n      tag_297\n        /* \"#utility.yul\":1003:1004   */\n      dup4\n        /* \"#utility.yul\":985:1005   */\n      tag_217\n      jump\t// in\n    tag_297:\n        /* \"#utility.yul\":980:1005   */\n      swap3\n      pop\n        /* \"#utility.yul\":1028:1029   */\n      dup3\n        /* \"#utility.yul\":1025:1026   */\n      dup3\n        /* \"#utility.yul\":1021:1030   */\n      add\n        /* \"#utility.yul\":1014:1030   */\n      swap1\n      pop\n        /* \"#utility.yul\":1049:1052   */\n      dup1\n        /* \"#utility.yul\":1046:1047   */\n      dup3\n        /* \"#utility.yul\":1043:1053   */\n      gt\n        /* \"#utility.yul\":1040:1076   */\n      iszero\n      tag_298\n      jumpi\n        /* \"#utility.yul\":1056:1074   */\n      tag_299\n      tag_218\n      jump\t// in\n    tag_299:\n        /* \"#utility.yul\":1040:1076   */\n    tag_298:\n        /* \"#utility.yul\":892:1083   */\n      swap3\n      swap2\n      pop\n      pop\n      jump\t// out\n        /* \"#utility.yul\":1089:1188   */\n    tag_219:\n        /* \"#utility.yul\":1141:1147   */\n      0x00\n        /* \"#utility.yul\":1175:1180   */\n      dup2\n        /* \"#utility.yul\":1169:1181   */\n      mload\n        /* \"#utility.yul\":1159:1181   */\n      swap1\n      pop\n        /* \"#utility.yul\":1089:1188   */\n      swap2\n      swap1\n      pop\n      jump\t// out\n        /* \"#utility.yul\":1194:1363   */\n    tag_220:\n        /* \"#utility.yul\":1278:1289   */\n      0x00\n        /* \"#utility.yul\":1312:1318   */\n      dup3\n        /* \"#utility.yul\":1307:1310   */\n      dup3\n        /* \"#utility.yul\":1300:1319   */\n      mstore\n        /* \"#utility.yul\":1352:1356   */\n      0x20\n        /* \"#utility.yul\":1347:1350   */\n      dup3\n        /* \"#utility.yul\":1343:1357   */\n      add\n        /* \"#utility.yul\":1328:1357   */\n      swap1\n      pop\n        /* \"#utility.yul\":1194:1363   */\n      swap3\n      swap2\n      pop\n      pop\n      jump\t// out\n        /* \"#utility.yul\":1369:1615   */\n    tag_221:\n        /* \"#utility.yul\":1450:1451   */\n      0x00\n        /* \"#utility.yul\":1460:1573   */\n    tag_303:\n        /* \"#utility.yul\":1474:1480   */\n      dup4\n        /* \"#utility.yul\":1471:1472   */\n      dup2\n        /* \"#utility.yul\":1468:1481   */\n      lt\n        /* \"#utility.yul\":1460:1573   */\n      iszero\n      tag_305\n      jumpi\n        /* \"#utility.yul\":1559:1560   */\n      dup1\n        /* \"#utility.yul\":1554:1557   */\n      dup3\n        /* \"#utility.yul\":1550:1561   */\n      add\n        /* \"#utility.yul\":1544:1562   */\n      mload\n        /* \"#utility.yul\":1540:1541   */\n      dup2\n        /* \"#utility.yul\":1535:1538   */\n      dup5\n        /* \"#utility.yul\":1531:1542   */\n      add\n        /* \"#utility.yul\":1524:1563   */\n      mstore\n        /* \"#utility.yul\":1496:1498   */\n      0x20\n        /* \"#utility.yul\":1493:1494   */\n      dup2\n        /* \"#utility.yul\":1489:1499   */\n      add\n        /* \"#utility.yul\":1484:1499   */\n      swap1\n      pop\n        /* \"#utility.yul\":1460:1573   */\n      jump(tag_303)\n    tag_305:\n        /* \"#utility.yul\":1607:1608   */\n      0x00\n        /* \"#utility.yul\":1598:1604   */\n      dup5\n        /* \"#utility.yul\":1593:1596   */\n      dup5\n        /* \"#utility.yul\":1589:1605   */\n      add\n        /* \"#utility.yul\":1582:1609   */\n      mstore\n        /* \"#utility.yul\":1431:1615   */\n      pop\n        /* \"#utility.yul\":1369:1615   */\n      pop\n      pop\n      pop\n      jump\t// out\n        /* \"#utility.yul\":1621:1723   */\n    tag_222:\n        /* \"#utility.yul\":1662:1668   */\n      0x00\n        /* \"#utility.yul\":1713:1715   */\n      0x1f\n        /* \"#utility.yul\":1709:1716   */\n      not\n        /* \"#utility.yul\":1704:1706   */\n      0x1f\n        /* \"#utility.yul\":1697:1702   */\n      dup4\n        /* \"#utility.yul\":1693:1707   */\n      add\n        /* \"#utility.yul\":1689:1717   */\n      and\n        /* \"#utility.yul\":1679:1717   */\n      swap1\n      pop\n        /* \"#utility.yul\":1621:1723   */\n      swap2\n      swap1\n      pop\n      jump\t// out\n        /* \"#utility.yul\":1729:2106   */\n    tag_223:\n        /* \"#utility.yul\":1817:1820   */\n      0x00\n        /* \"#utility.yul\":1845:1884   */\n      tag_308\n        /* \"#utility.yul\":1878:1883   */\n      dup3\n        /* \"#utility.yul\":1845:1884   */\n      tag_219\n      jump\t// in\n    tag_308:\n        /* \"#utility.yul\":1900:1971   */\n      tag_309\n        /* \"#utility.yul\":1964:1970   */\n      dup2\n        /* \"#utility.yul\":1959:1962   */\n      dup6\n        /* \"#utility.yul\":1900:1971   */\n      tag_220\n      jump\t// in\n    tag_309:\n        /* \"#utility.yul\":1893:1971   */\n      swap4\n      pop\n        /* \"#utility.yul\":1980:2045   */\n      tag_310\n        /* \"#utility.yul\":2038:2044   */\n      dup2\n        /* \"#utility.yul\":2033:2036   */\n      dup6\n        /* \"#utility.yul\":2026:2030   */\n      0x20\n        /* \"#utility.yul\":2019:2024   */\n      dup7\n        /* \"#utility.yul\":2015:2031   */\n      add\n        /* \"#utility.yul\":1980:2045   */\n      tag_221\n      jump\t// in\n    tag_310:\n        /* \"#utility.yul\":2070:2099   */\n      tag_311\n        /* \"#utility.yul\":2092:2098   */\n      dup2\n        /* \"#utility.yul\":2070:2099   */\n      tag_222\n      jump\t// in\n    tag_311:\n        /* \"#utility.yul\":2065:2068   */\n      dup5\n        /* \"#utility.yul\":2061:2100   */\n      add\n        /* \"#utility.yul\":2054:2100   */\n      swap2\n      pop\n        /* \"#utility.yul\":1821:2106   */\n      pop\n        /* \"#utility.yul\":1729:2106   */\n      swap3\n      swap2\n      pop\n      pop\n      jump\t// out\n        /* \"#utility.yul\":2112:2425   */\n    tag_38:\n        /* \"#utility.yul\":2225:2229   */\n      0x00\n        /* \"#utility.yul\":2263:2265   */\n      0x20\n        /* \"#utility.yul\":2252:2261   */\n      dup3\n        /* \"#utility.yul\":2248:2266   */\n      add\n        /* \"#utility.yul\":2240:2266   */\n      swap1\n      pop\n        /* \"#utility.yul\":2312:2321   */\n      dup2\n        /* \"#utility.yul\":2306:2310   */\n      dup2\n        /* \"#utility.yul\":2302:2322   */\n      sub\n        /* \"#utility.yul\":2298:2299   */\n      0x00\n        /* \"#utility.yul\":2287:2296   */\n      dup4\n        /* \"#utility.yul\":2283:2300   */\n      add\n        /* \"#utility.yul\":2276:2323   */\n      mstore\n        /* \"#utility.yul\":2340:2418   */\n      tag_313\n        /* \"#utility.yul\":2413:2417   */\n      dup2\n        /* \"#utility.yul\":2404:2410   */\n      dup5\n        /* \"#utility.yul\":2340:2418   */\n      tag_223\n      jump\t// in\n    tag_313:\n        /* \"#utility.yul\":2332:2418   */\n      swap1\n      pop\n        /* \"#utility.yul\":2112:2425   */\n      swap3\n      swap2\n      pop\n      pop\n      jump\t// out\n        /* \"#utility.yul\":2512:2629   */\n    tag_225:\n        /* \"#utility.yul\":2621:2622   */\n      0x00\n        /* \"#utility.yul\":2618:2619   */\n      dup1\n        /* \"#utility.yul\":2611:2623   */\n      revert\n        /* \"#utility.yul\":2758:2884   */\n    tag_227:\n        /* \"#utility.yul\":2795:2802   */\n      0x00\n        /* \"#utility.yul\":2835:2877   */\n      0xffffffffffffffffffffffffffffffffffffffff\n        /* \"#utility.yul\":2828:2833   */\n      dup3\n        /* \"#utility.yul\":2824:2878   */\n      and\n        /* \"#utility.yul\":2813:2878   */\n      swap1\n      pop\n        /* \"#utility.yul\":2758:2884   */\n      swap2\n      swap1\n      pop\n      jump\t// out\n        /* \"#utility.yul\":2890:2986   */\n    tag_228:\n        /* \"#utility.yul\":2927:2934   */\n      0x00\n        /* \"#utility.yul\":2956:2980   */\n      tag_319\n        /* \"#utility.yul\":2974:2979   */\n      dup3\n        /* \"#utility.yul\":2956:2980   */\n      tag_227\n      jump\t// in\n    tag_319:\n        /* \"#utility.yul\":2945:2980   */\n      swap1\n      pop\n        /* \"#utility.yul\":2890:2986   */\n      swap2\n      swap1\n      pop\n      jump\t// out\n        /* \"#utility.yul\":2992:3114   */\n    tag_229:\n        /* \"#utility.yul\":3065:3089   */\n      tag_321\n        /* \"#utility.yul\":3083:3088   */\n      dup2\n        /* \"#utility.yul\":3065:3089   */\n      tag_228\n      jump\t// in\n    tag_321:\n        /* \"#utility.yul\":3058:3063   */\n      dup2\n        /* \"#utility.yul\":3055:3090   */\n      eq\n        /* \"#utility.yul\":3045:3108   */\n      tag_322\n      jumpi\n        /* \"#utility.yul\":3104:3105   */\n      0x00\n        /* \"#utility.yul\":3101:3102   */\n      dup1\n        /* \"#utility.yul\":3094:3106   */\n      revert\n        /* \"#utility.yul\":3045:3108   */\n    tag_322:\n        /* \"#utility.yul\":2992:3114   */\n      pop\n      jump\t// out\n        /* \"#utility.yul\":3120:3259   */\n    tag_230:\n        /* \"#utility.yul\":3166:3171   */\n      0x00\n        /* \"#utility.yul\":3204:3210   */\n      dup2\n        /* \"#utility.yul\":3191:3211   */\n      calldataload\n        /* \"#utility.yul\":3182:3211   */\n      swap1\n      pop\n        /* \"#utility.yul\":3220:3253   */\n      tag_324\n        /* \"#utility.yul\":3247:3252   */\n      dup2\n        /* \"#utility.yul\":3220:3253   */\n      tag_229\n      jump\t// in\n    tag_324:\n        /* \"#utility.yul\":3120:3259   */\n      swap3\n      swap2\n      pop\n      pop\n      jump\t// out\n        /* \"#utility.yul\":3265:3387   */\n    tag_231:\n        /* \"#utility.yul\":3338:3362   */\n      tag_326\n        /* \"#utility.yul\":3356:3361   */\n      dup2\n        /* \"#utility.yul\":3338:3362   */\n      tag_217\n      jump\t// in\n    tag_326:\n        /* \"#utility.yul\":3331:3336   */\n      dup2\n        /* \"#utility.yul\":3328:3363   */\n      eq\n        /* \"#utility.yul\":3318:3381   */\n      tag_327\n      jumpi\n        /* \"#utility.yul\":3377:3378   */\n      0x00\n        /* \"#utility.yul\":3374:3375   */\n      dup1\n        /* \"#utility.yul\":3367:3379   */\n      revert\n        /* \"#utility.yul\":3318:3381   */\n    tag_327:\n        /* \"#utility.yul\":3265:3387   */\n      pop\n      jump\t// out\n        /* \"#utility.yul\":3393:3532   */\n    tag_232:\n        /* \"#utility.yul\":3439:3444   */\n      0x00\n        /* \"#utility.yul\":3477:3483   */\n      dup2\n        /* \"#utility.yul\":3464:3484   */\n      calldataload\n        /* \"#utility.yul\":3455:3484   */\n      swap1\n      pop\n        /* \"#utility.yul\":3493:3526   */\n      tag_329\n        /* \"#utility.yul\":3520:3525   */\n      dup2\n        /* \"#utility.yul\":3493:3526   */\n      tag_231\n      jump\t// in\n    tag_329:\n        /* \"#utility.yul\":3393:3532   */\n      swap3\n      swap2\n      pop\n      pop\n      jump\t// out\n        /* \"#utility.yul\":3538:4012   */\n    tag_42:\n        /* \"#utility.yul\":3606:3612   */\n      0x00\n        /* \"#utility.yul\":3614:3620   */\n      dup1\n        /* \"#utility.yul\":3663:3665   */\n      0x40\n        /* \"#utility.yul\":3651:3660   */\n      dup4\n        /* \"#utility.yul\":3642:3649   */\n      dup6\n        /* \"#utility.yul\":3638:3661   */\n      sub\n        /* \"#utility.yul\":3634:3666   */\n      slt\n        /* \"#utility.yul\":3631:3750   */\n      iszero\n      tag_331\n      jumpi\n        /* \"#utility.yul\":3669:3748   */\n      tag_332\n      tag_225\n      jump\t// in\n    tag_332:\n        /* \"#utility.yul\":3631:3750   */\n    tag_331:\n        /* \"#utility.yul\":3789:3790   */\n      0x00\n        /* \"#utility.yul\":3814:3867   */\n      tag_333\n        /* \"#utility.yul\":3859:3866   */\n      dup6\n        /* \"#utility.yul\":3850:3856   */\n      dup3\n        /* \"#utility.yul\":3839:3848   */\n      dup7\n        /* \"#utility.yul\":3835:3857   */\n      add\n        /* \"#utility.yul\":3814:3867   */\n      tag_230\n      jump\t// in\n    tag_333:\n        /* \"#utility.yul\":3804:3867   */\n      swap3\n      pop\n        /* \"#utility.yul\":3760:3877   */\n      pop\n        /* \"#utility.yul\":3916:3918   */\n      0x20\n        /* \"#utility.yul\":3942:3995   */\n      tag_334\n        /* \"#utility.yul\":3987:3994   */\n      dup6\n        /* \"#utility.yul\":3978:3984   */\n      dup3\n        /* \"#utility.yul\":3967:3976   */\n      dup7\n        /* \"#utility.yul\":3963:3985   */\n      add\n        /* \"#utility.yul\":3942:3995   */\n      tag_232\n      jump\t// in\n    tag_334:\n        /* \"#utility.yul\":3932:3995   */\n      swap2\n      pop\n        /* \"#utility.yul\":3887:4005   */\n      pop\n        /* \"#utility.yul\":3538:4012   */\n      swap3\n      pop\n      swap3\n      swap1\n      pop\n      jump\t// out\n        /* \"#utility.yul\":4018:4108   */\n    tag_233:\n        /* \"#utility.yul\":4052:4059   */\n      0x00\n        /* \"#utility.yul\":4095:4100   */\n      dup2\n        /* \"#utility.yul\":4088:4101   */\n      iszero\n        /* \"#utility.yul\":4081:4102   */\n      iszero\n        /* \"#utility.yul\":4070:4102   */\n      swap1\n      pop\n        /* \"#utility.yul\":4018:4108   */\n      swap2\n      swap1\n      pop\n      jump\t// out\n        /* \"#utility.yul\":4114:4223   */\n    tag_234:\n        /* \"#utility.yul\":4195:4216   */\n      tag_337\n        /* \"#utility.yul\":4210:4215   */\n      dup2\n        /* \"#utility.yul\":4195:4216   */\n      tag_233\n      jump\t// in\n    tag_337:\n        /* \"#utility.yul\":4190:4193   */\n      dup3\n        /* \"#utility.yul\":4183:4217   */\n      mstore\n        /* \"#utility.yul\":4114:4223   */\n      pop\n      pop\n      jump\t// out\n        /* \"#utility.yul\":4229:4439   */\n    tag_45:\n        /* \"#utility.yul\":4316:4320   */\n      0x00\n        /* \"#utility.yul\":4354:4356   */\n      0x20\n        /* \"#utility.yul\":4343:4352   */\n      dup3\n        /* \"#utility.yul\":4339:4357   */\n      add\n        /* \"#utility.yul\":4331:4357   */\n      swap1\n      pop\n        /* \"#utility.yul\":4367:4432   */\n      tag_339\n        /* \"#utility.yul\":4429:4430   */\n      0x00\n        /* \"#utility.yul\":4418:4427   */\n      dup4\n        /* \"#utility.yul\":4414:4431   */\n      add\n        /* \"#utility.yul\":4405:4411   */\n      dup5\n        /* \"#utility.yul\":4367:4432   */\n      tag_234\n      jump\t// in\n    tag_339:\n        /* \"#utility.yul\":4229:4439   */\n      swap3\n      swap2\n      pop\n      pop\n      jump\t// out\n        /* \"#utility.yul\":4445:4563   */\n    tag_235:\n        /* \"#utility.yul\":4532:4556   */\n      tag_341\n        /* \"#utility.yul\":4550:4555   */\n      dup2\n        /* \"#utility.yul\":4532:4556   */\n      tag_217\n      jump\t// in\n    tag_341:\n        /* \"#utility.yul\":4527:4530   */\n      dup3\n        /* \"#utility.yul\":4520:4557   */\n      mstore\n        /* \"#utility.yul\":4445:4563   */\n      pop\n      pop\n      jump\t// out\n        /* \"#utility.yul\":4569:4791   */\n    tag_50:\n        /* \"#utility.yul\":4662:4666   */\n      0x00\n        /* \"#utility.yul\":4700:4702   */\n      0x20\n        /* \"#utility.yul\":4689:4698   */\n      dup3\n        /* \"#utility.yul\":4685:4703   */\n      add\n        /* \"#utility.yul\":4677:4703   */\n      swap1\n      pop\n        /* \"#utility.yul\":4713:4784   */\n      tag_343\n        /* \"#utility.yul\":4781:4782   */\n      0x00\n        /* \"#utility.yul\":4770:4779   */\n      dup4\n        /* \"#utility.yul\":4766:4783   */\n      add\n        /* \"#utility.yul\":4757:4763   */\n      dup5\n        /* \"#utility.yul\":4713:4784   */\n      tag_235\n      jump\t// in\n    tag_343:\n        /* \"#utility.yul\":4569:4791   */\n      swap3\n      swap2\n      pop\n      pop\n      jump\t// out\n        /* \"#utility.yul\":4797:5416   */\n    tag_54:\n        /* \"#utility.yul\":4874:4880   */\n      0x00\n        /* \"#utility.yul\":4882:4888   */\n      dup1\n        /* \"#utility.yul\":4890:4896   */\n      0x00\n        /* \"#utility.yul\":4939:4941   */\n      0x60\n        /* \"#utility.yul\":4927:4936   */\n      dup5\n        /* \"#utility.yul\":4918:4925   */\n      dup7\n        /* \"#utility.yul\":4914:4937   */\n      sub\n        /* \"#utility.yul\":4910:4942   */\n      slt\n        /* \"#utility.yul\":4907:5026   */\n      iszero\n      tag_345\n      jumpi\n        /* \"#utility.yul\":4945:5024   */\n      tag_346\n      tag_225\n      jump\t// in\n    tag_346:\n        /* \"#utility.yul\":4907:5026   */\n    tag_345:\n        /* \"#utility.yul\":5065:5066   */\n      0x00\n        /* \"#utility.yul\":5090:5143   */\n      tag_347\n        /* \"#utility.yul\":5135:5142   */\n      dup7\n        /* \"#utility.yul\":5126:5132   */\n      dup3\n        /* \"#utility.yul\":5115:5124   */\n      dup8\n        /* \"#utility.yul\":5111:5133   */\n      add\n        /* \"#utility.yul\":5090:5143   */\n      tag_230\n      jump\t// in\n    tag_347:\n        /* \"#utility.yul\":5080:5143   */\n      swap4\n      pop\n        /* \"#utility.yul\":5036:5153   */\n      pop\n        /* \"#utility.yul\":5192:5194   */\n      0x20\n        /* \"#utility.yul\":5218:5271   */\n      tag_348\n        /* \"#utility.yul\":5263:5270   */\n      dup7\n        /* \"#utility.yul\":5254:5260   */\n      dup3\n        /* \"#utility.yul\":5243:5252   */\n      dup8\n        /* \"#utility.yul\":5239:5261   */\n      add\n        /* \"#utility.yul\":5218:5271   */\n      tag_230\n      jump\t// in\n    tag_348:\n        /* \"#utility.yul\":5208:5271   */\n      swap3\n      pop\n        /* \"#utility.yul\":5163:5281   */\n      pop\n        /* \"#utility.yul\":5320:5322   */\n      0x40\n        /* \"#utility.yul\":5346:5399   */\n      tag_349\n        /* \"#utility.yul\":5391:5398   */\n      dup7\n        /* \"#utility.yul\":5382:5388   */\n      dup3\n        /* \"#utility.yul\":5371:5380   */\n      dup8\n        /* \"#utility.yul\":5367:5389   */\n      add\n        /* \"#utility.yul\":5346:5399   */\n      tag_232\n      jump\t// in\n    tag_349:\n        /* \"#utility.yul\":5336:5399   */\n      swap2\n      pop\n        /* \"#utility.yul\":5291:5409   */\n      pop\n        /* \"#utility.yul\":4797:5416   */\n      swap3\n      pop\n      swap3\n      pop\n      swap3\n      jump\t// out\n        /* \"#utility.yul\":5422:5751   */\n    tag_63:\n        /* \"#utility.yul\":5481:5487   */\n      0x00\n        /* \"#utility.yul\":5530:5532   */\n      0x20\n        /* \"#utility.yul\":5518:5527   */\n      dup3\n        /* \"#utility.yul\":5509:5516   */\n      dup5\n        /* \"#utility.yul\":5505:5528   */\n      sub\n        /* \"#utility.yul\":5501:5533   */\n      slt\n        /* \"#utility.yul\":5498:5617   */\n      iszero\n      tag_351\n      jumpi\n        /* \"#utility.yul\":5536:5615   */\n      tag_352\n      tag_225\n      jump\t// in\n    tag_352:\n        /* \"#utility.yul\":5498:5617   */\n    tag_351:\n        /* \"#utility.yul\":5656:5657   */\n      0x00\n        /* \"#utility.yul\":5681:5734   */\n      tag_353\n        /* \"#utility.yul\":5726:5733   */\n      dup5\n        /* \"#utility.yul\":5717:5723   */\n      dup3\n        /* \"#utility.yul\":5706:5715   */\n      dup6\n        /* \"#utility.yul\":5702:5724   */\n      add\n        /* \"#utility.yul\":5681:5734   */\n      tag_230\n      jump\t// in\n    tag_353:\n        /* \"#utility.yul\":5671:5734   */\n      swap2\n      pop\n        /* \"#utility.yul\":5627:5744   */\n      pop\n        /* \"#utility.yul\":5422:5751   */\n      swap3\n      swap2\n      pop\n      pop\n      jump\t// out\n        /* \"#utility.yul\":5757:5894   */\n    tag_236:\n        /* \"#utility.yul\":5847:5853   */\n      0x00\n        /* \"#utility.yul\":5881:5886   */\n      dup2\n        /* \"#utility.yul\":5875:5887   */\n      mload\n        /* \"#utility.yul\":5865:5887   */\n      swap1\n      pop\n        /* \"#utility.yul\":5757:5894   */\n      swap2\n      swap1\n      pop\n      jump\t// out\n        /* \"#utility.yul\":5900:6107   */\n    tag_237:\n        /* \"#utility.yul\":6022:6033   */\n      0x00\n        /* \"#utility.yul\":6056:6062   */\n      dup3\n        /* \"#utility.yul\":6051:6054   */\n      dup3\n        /* \"#utility.yul\":6044:6063   */\n      mstore\n        /* \"#utility.yul\":6096:6100   */\n      0x20\n        /* \"#utility.yul\":6091:6094   */\n      dup3\n        /* \"#utility.yul\":6087:6101   */\n      add\n        /* \"#utility.yul\":6072:6101   */\n      swap1\n      pop\n        /* \"#utility.yul\":5900:6107   */\n      swap3\n      swap2\n      pop\n      pop\n      jump\t// out\n        /* \"#utility.yul\":6113:6268   */\n    tag_238:\n        /* \"#utility.yul\":6203:6207   */\n      0x00\n        /* \"#utility.yul\":6226:6229   */\n      dup2\n        /* \"#utility.yul\":6218:6229   */\n      swap1\n      pop\n        /* \"#utility.yul\":6256:6260   */\n      0x20\n        /* \"#utility.yul\":6251:6254   */\n      dup3\n        /* \"#utility.yul\":6247:6261   */\n      add\n        /* \"#utility.yul\":6239:6261   */\n      swap1\n      pop\n        /* \"#utility.yul\":6113:6268   */\n      swap2\n      swap1\n      pop\n      jump\t// out\n        /* \"#utility.yul\":6274:6433   */\n    tag_239:\n        /* \"#utility.yul\":6348:6359   */\n      0x00\n        /* \"#utility.yul\":6382:6388   */\n      dup3\n        /* \"#utility.yul\":6377:6380   */\n      dup3\n        /* \"#utility.yul\":6370:6389   */\n      mstore\n        /* \"#utility.yul\":6422:6426   */\n      0x20\n        /* \"#utility.yul\":6417:6420   */\n      dup3\n        /* \"#utility.yul\":6413:6427   */\n      add\n        /* \"#utility.yul\":6398:6427   */\n      swap1\n      pop\n        /* \"#utility.yul\":6274:6433   */\n      swap3\n      swap2\n      pop\n      pop\n      jump\t// out\n        /* \"#utility.yul\":6439:6796   */\n    tag_240:\n        /* \"#utility.yul\":6517:6520   */\n      0x00\n        /* \"#utility.yul\":6545:6584   */\n      tag_359\n        /* \"#utility.yul\":6578:6583   */\n      dup3\n        /* \"#utility.yul\":6545:6584   */\n      tag_219\n      jump\t// in\n    tag_359:\n        /* \"#utility.yul\":6600:6661   */\n      tag_360\n        /* \"#utility.yul\":6654:6660   */\n      dup2\n        /* \"#utility.yul\":6649:6652   */\n      dup6\n        /* \"#utility.yul\":6600:6661   */\n      tag_239\n      jump\t// in\n    tag_360:\n        /* \"#utility.yul\":6593:6661   */\n      swap4\n      pop\n        /* \"#utility.yul\":6670:6735   */\n      tag_361\n        /* \"#utility.yul\":6728:6734   */\n      dup2\n        /* \"#utility.yul\":6723:6726   */\n      dup6\n        /* \"#utility.yul\":6716:6720   */\n      0x20\n        /* \"#utility.yul\":6709:6714   */\n      dup7\n        /* \"#utility.yul\":6705:6721   */\n      add\n        /* \"#utility.yul\":6670:6735   */\n      tag_221\n      jump\t// in\n    tag_361:\n        /* \"#utility.yul\":6760:6789   */\n      tag_362\n        /* \"#utility.yul\":6782:6788   */\n      dup2\n        /* \"#utility.yul\":6760:6789   */\n      tag_222\n      jump\t// in\n    tag_362:\n        /* \"#utility.yul\":6755:6758   */\n      dup5\n        /* \"#utility.yul\":6751:6790   */\n      add\n        /* \"#utility.yul\":6744:6790   */\n      swap2\n      pop\n        /* \"#utility.yul\":6521:6796   */\n      pop\n        /* \"#utility.yul\":6439:6796   */\n      swap3\n      swap2\n      pop\n      pop\n      jump\t// out\n        /* \"#utility.yul\":6858:7520   */\n    tag_241:\n        /* \"#utility.yul\":6963:6966   */\n      0x00\n        /* \"#utility.yul\":6999:7003   */\n      0x40\n        /* \"#utility.yul\":6994:6997   */\n      dup4\n        /* \"#utility.yul\":6990:7004   */\n      add\n        /* \"#utility.yul\":7085:7089   */\n      0x00\n        /* \"#utility.yul\":7078:7083   */\n      dup4\n        /* \"#utility.yul\":7074:7090   */\n      add\n        /* \"#utility.yul\":7068:7091   */\n      mload\n        /* \"#utility.yul\":7138:7141   */\n      dup5\n        /* \"#utility.yul\":7132:7136   */\n      dup3\n        /* \"#utility.yul\":7128:7142   */\n      sub\n        /* \"#utility.yul\":7121:7125   */\n      0x00\n        /* \"#utility.yul\":7116:7119   */\n      dup7\n        /* \"#utility.yul\":7112:7126   */\n      add\n        /* \"#utility.yul\":7105:7143   */\n      mstore\n        /* \"#utility.yul\":7164:7237   */\n      tag_364\n        /* \"#utility.yul\":7232:7236   */\n      dup3\n        /* \"#utility.yul\":7218:7230   */\n      dup3\n        /* \"#utility.yul\":7164:7237   */\n      tag_240\n      jump\t// in\n    tag_364:\n        /* \"#utility.yul\":7156:7237   */\n      swap2\n      pop\n        /* \"#utility.yul\":7014:7248   */\n      pop\n        /* \"#utility.yul\":7330:7334   */\n      0x20\n        /* \"#utility.yul\":7323:7328   */\n      dup4\n        /* \"#utility.yul\":7319:7335   */\n      add\n        /* \"#utility.yul\":7313:7336   */\n      mload\n        /* \"#utility.yul\":7383:7386   */\n      dup5\n        /* \"#utility.yul\":7377:7381   */\n      dup3\n        /* \"#utility.yul\":7373:7387   */\n      sub\n        /* \"#utility.yul\":7366:7370   */\n      0x20\n        /* \"#utility.yul\":7361:7364   */\n      dup7\n        /* \"#utility.yul\":7357:7371   */\n      add\n        /* \"#utility.yul\":7350:7388   */\n      mstore\n        /* \"#utility.yul\":7409:7482   */\n      tag_365\n        /* \"#utility.yul\":7477:7481   */\n      dup3\n        /* \"#utility.yul\":7463:7475   */\n      dup3\n        /* \"#utility.yul\":7409:7482   */\n      tag_240\n      jump\t// in\n    tag_365:\n        /* \"#utility.yul\":7401:7482   */\n      swap2\n      pop\n        /* \"#utility.yul\":7258:7493   */\n      pop\n        /* \"#utility.yul\":7510:7514   */\n      dup1\n        /* \"#utility.yul\":7503:7514   */\n      swap2\n      pop\n        /* \"#utility.yul\":6968:7520   */\n      pop\n        /* \"#utility.yul\":6858:7520   */\n      swap3\n      swap2\n      pop\n      pop\n      jump\t// out\n        /* \"#utility.yul\":7526:7774   */\n    tag_242:\n        /* \"#utility.yul\":7641:7651   */\n      0x00\n        /* \"#utility.yul\":7676:7768   */\n      tag_367\n        /* \"#utility.yul\":7764:7767   */\n      dup4\n        /* \"#utility.yul\":7756:7762   */\n      dup4\n        /* \"#utility.yul\":7676:7768   */\n      tag_241\n      jump\t// in\n    tag_367:\n        /* \"#utility.yul\":7662:7768   */\n      swap1\n      pop\n        /* \"#utility.yul\":7526:7774   */\n      swap3\n      swap2\n      pop\n      pop\n      jump\t// out\n        /* \"#utility.yul\":7780:7916   */\n    tag_243:\n        /* \"#utility.yul\":7873:7877   */\n      0x00\n        /* \"#utility.yul\":7905:7909   */\n      0x20\n        /* \"#utility.yul\":7900:7903   */\n      dup3\n        /* \"#utility.yul\":7896:7910   */\n      add\n        /* \"#utility.yul\":7888:7910   */\n      swap1\n      pop\n        /* \"#utility.yul\":7780:7916   */\n      swap2\n      swap1\n      pop\n      jump\t// out\n        /* \"#utility.yul\":7982:9077   */\n    tag_244:\n        /* \"#utility.yul\":8147:8150   */\n      0x00\n        /* \"#utility.yul\":8176:8253   */\n      tag_370\n        /* \"#utility.yul\":8247:8252   */\n      dup3\n        /* \"#utility.yul\":8176:8253   */\n      tag_236\n      jump\t// in\n    tag_370:\n        /* \"#utility.yul\":8269:8378   */\n      tag_371\n        /* \"#utility.yul\":8371:8377   */\n      dup2\n        /* \"#utility.yul\":8366:8369   */\n      dup6\n        /* \"#utility.yul\":8269:8378   */\n      tag_237\n      jump\t// in\n    tag_371:\n        /* \"#utility.yul\":8262:8378   */\n      swap4\n      pop\n        /* \"#utility.yul\":8404:8407   */\n      dup4\n        /* \"#utility.yul\":8449:8453   */\n      0x20\n        /* \"#utility.yul\":8441:8447   */\n      dup3\n        /* \"#utility.yul\":8437:8454   */\n      mul\n        /* \"#utility.yul\":8432:8435   */\n      dup6\n        /* \"#utility.yul\":8428:8455   */\n      add\n        /* \"#utility.yul\":8479:8558   */\n      tag_372\n        /* \"#utility.yul\":8552:8557   */\n      dup6\n        /* \"#utility.yul\":8479:8558   */\n      tag_238\n      jump\t// in\n    tag_372:\n        /* \"#utility.yul\":8581:8588   */\n      dup1\n        /* \"#utility.yul\":8612:8613   */\n      0x00\n        /* \"#utility.yul\":8597:9032   */\n    tag_373:\n        /* \"#utility.yul\":8622:8628   */\n      dup6\n        /* \"#utility.yul\":8619:8620   */\n      dup2\n        /* \"#utility.yul\":8616:8629   */\n      lt\n        /* \"#utility.yul\":8597:9032   */\n      iszero\n      tag_375\n      jumpi\n        /* \"#utility.yul\":8693:8702   */\n      dup5\n        /* \"#utility.yul\":8687:8691   */\n      dup5\n        /* \"#utility.yul\":8683:8703   */\n      sub\n        /* \"#utility.yul\":8678:8681   */\n      dup10\n        /* \"#utility.yul\":8671:8704   */\n      mstore\n        /* \"#utility.yul\":8744:8750   */\n      dup2\n        /* \"#utility.yul\":8738:8751   */\n      mload\n        /* \"#utility.yul\":8772:8882   */\n      tag_376\n        /* \"#utility.yul\":8877:8881   */\n      dup6\n        /* \"#utility.yul\":8862:8875   */\n      dup3\n        /* \"#utility.yul\":8772:8882   */\n      tag_242\n      jump\t// in\n    tag_376:\n        /* \"#utility.yul\":8764:8882   */\n      swap5\n      pop\n        /* \"#utility.yul\":8905:8988   */\n      tag_377\n        /* \"#utility.yul\":8981:8987   */\n      dup4\n        /* \"#utility.yul\":8905:8988   */\n      tag_243\n      jump\t// in\n    tag_377:\n        /* \"#utility.yul\":8895:8988   */\n      swap3\n      pop\n        /* \"#utility.yul\":9017:9021   */\n      0x20\n        /* \"#utility.yul\":9012:9015   */\n      dup11\n        /* \"#utility.yul\":9008:9022   */\n      add\n        /* \"#utility.yul\":9001:9022   */\n      swap10\n      pop\n        /* \"#utility.yul\":8657:9032   */\n      pop\n        /* \"#utility.yul\":8644:8645   */\n      0x01\n        /* \"#utility.yul\":8641:8642   */\n      dup2\n        /* \"#utility.yul\":8637:8646   */\n      add\n        /* \"#utility.yul\":8632:8646   */\n      swap1\n      pop\n        /* \"#utility.yul\":8597:9032   */\n      jump(tag_373)\n    tag_375:\n        /* \"#utility.yul\":8601:8615   */\n      pop\n        /* \"#utility.yul\":9048:9052   */\n      dup3\n        /* \"#utility.yul\":9041:9052   */\n      swap8\n      pop\n        /* \"#utility.yul\":9068:9071   */\n      dup8\n        /* \"#utility.yul\":9061:9071   */\n      swap6\n      pop\n        /* \"#utility.yul\":8152:9077   */\n      pop\n      pop\n      pop\n      pop\n      pop\n        /* \"#utility.yul\":7982:9077   */\n      swap3\n      swap2\n      pop\n      pop\n      jump\t// out\n        /* \"#utility.yul\":9083:9548   */\n    tag_70:\n        /* \"#utility.yul\":9272:9276   */\n      0x00\n        /* \"#utility.yul\":9310:9312   */\n      0x20\n        /* \"#utility.yul\":9299:9308   */\n      dup3\n        /* \"#utility.yul\":9295:9313   */\n      add\n        /* \"#utility.yul\":9287:9313   */\n      swap1\n      pop\n        /* \"#utility.yul\":9359:9368   */\n      dup2\n        /* \"#utility.yul\":9353:9357   */\n      dup2\n        /* \"#utility.yul\":9349:9369   */\n      sub\n        /* \"#utility.yul\":9345:9346   */\n      0x00\n        /* \"#utility.yul\":9334:9343   */\n      dup4\n        /* \"#utility.yul\":9330:9347   */\n      add\n        /* \"#utility.yul\":9323:9370   */\n      mstore\n        /* \"#utility.yul\":9387:9541   */\n      tag_379\n        /* \"#utility.yul\":9536:9540   */\n      dup2\n        /* \"#utility.yul\":9527:9533   */\n      dup5\n        /* \"#utility.yul\":9387:9541   */\n      tag_244\n      jump\t// in\n    tag_379:\n        /* \"#utility.yul\":9379:9541   */\n      swap1\n      pop\n        /* \"#utility.yul\":9083:9548   */\n      swap3\n      swap2\n      pop\n      pop\n      jump\t// out\n        /* \"#utility.yul\":9554:9640   */\n    tag_245:\n        /* \"#utility.yul\":9589:9596   */\n      0x00\n        /* \"#utility.yul\":9629:9633   */\n      0xff\n        /* \"#utility.yul\":9622:9627   */\n      dup3\n        /* \"#utility.yul\":9618:9634   */\n      and\n        /* \"#utility.yul\":9607:9634   */\n      swap1\n      pop\n        /* \"#utility.yul\":9554:9640   */\n      swap2\n      swap1\n      pop\n      jump\t// out\n        /* \"#utility.yul\":9646:9758   */\n    tag_246:\n        /* \"#utility.yul\":9729:9751   */\n      tag_382\n        /* \"#utility.yul\":9745:9750   */\n      dup2\n        /* \"#utility.yul\":9729:9751   */\n      tag_245\n      jump\t// in\n    tag_382:\n        /* \"#utility.yul\":9724:9727   */\n      dup3\n        /* \"#utility.yul\":9717:9752   */\n      mstore\n        /* \"#utility.yul\":9646:9758   */\n      pop\n      pop\n      jump\t// out\n        /* \"#utility.yul\":9764:9978   */\n    tag_75:\n        /* \"#utility.yul\":9853:9857   */\n      0x00\n        /* \"#utility.yul\":9891:9893   */\n      0x20\n        /* \"#utility.yul\":9880:9889   */\n      dup3\n        /* \"#utility.yul\":9876:9894   */\n      add\n        /* \"#utility.yul\":9868:9894   */\n      swap1\n      pop\n        /* \"#utility.yul\":9904:9971   */\n      tag_384\n        /* \"#utility.yul\":9968:9969   */\n      0x00\n        /* \"#utility.yul\":9957:9966   */\n      dup4\n        /* \"#utility.yul\":9953:9970   */\n      add\n        /* \"#utility.yul\":9944:9950   */\n      dup5\n        /* \"#utility.yul\":9904:9971   */\n      tag_246\n      jump\t// in\n    tag_384:\n        /* \"#utility.yul\":9764:9978   */\n      swap3\n      swap2\n      pop\n      pop\n      jump\t// out\n        /* \"#utility.yul\":9984:10313   */\n    tag_79:\n        /* \"#utility.yul\":10043:10049   */\n      0x00\n        /* \"#utility.yul\":10092:10094   */\n      0x20\n        /* \"#utility.yul\":10080:10089   */\n      dup3\n        /* \"#utility.yul\":10071:10078   */\n      dup5\n        /* \"#utility.yul\":10067:10090   */\n      sub\n        /* \"#utility.yul\":10063:10095   */\n      slt\n        /* \"#utility.yul\":10060:10179   */\n      iszero\n      tag_386\n      jumpi\n        /* \"#utility.yul\":10098:10177   */\n      tag_387\n      tag_225\n      jump\t// in\n    tag_387:\n        /* \"#utility.yul\":10060:10179   */\n    tag_386:\n        /* \"#utility.yul\":10218:10219   */\n      0x00\n        /* \"#utility.yul\":10243:10296   */\n      tag_388\n        /* \"#utility.yul\":10288:10295   */\n      dup5\n        /* \"#utility.yul\":10279:10285   */\n      dup3\n        /* \"#utility.yul\":10268:10277   */\n      dup6\n        /* \"#utility.yul\":10264:10286   */\n      add\n        /* \"#utility.yul\":10243:10296   */\n      tag_232\n      jump\t// in\n    tag_388:\n        /* \"#utility.yul\":10233:10296   */\n      swap2\n      pop\n        /* \"#utility.yul\":10189:10306   */\n      pop\n        /* \"#utility.yul\":9984:10313   */\n      swap3\n      swap2\n      pop\n      pop\n      jump\t// out\n        /* \"#utility.yul\":10319:10437   */\n    tag_247:\n        /* \"#utility.yul\":10406:10430   */\n      tag_390\n        /* \"#utility.yul\":10424:10429   */\n      dup2\n        /* \"#utility.yul\":10406:10430   */\n      tag_228\n      jump\t// in\n    tag_390:\n        /* \"#utility.yul\":10401:10404   */\n      dup3\n        /* \"#utility.yul\":10394:10431   */\n      mstore\n        /* \"#utility.yul\":10319:10437   */\n      pop\n      pop\n      jump\t// out\n        /* \"#utility.yul\":10443:10665   */\n    tag_82:\n        /* \"#utility.yul\":10536:10540   */\n      0x00\n        /* \"#utility.yul\":10574:10576   */\n      0x20\n        /* \"#utility.yul\":10563:10572   */\n      dup3\n        /* \"#utility.yul\":10559:10577   */\n      add\n        /* \"#utility.yul\":10551:10577   */\n      swap1\n      pop\n        /* \"#utility.yul\":10587:10658   */\n      tag_392\n        /* \"#utility.yul\":10655:10656   */\n      0x00\n        /* \"#utility.yul\":10644:10653   */\n      dup4\n        /* \"#utility.yul\":10640:10657   */\n      add\n        /* \"#utility.yul\":10631:10637   */\n      dup5\n        /* \"#utility.yul\":10587:10658   */\n      tag_247\n      jump\t// in\n    tag_392:\n        /* \"#utility.yul\":10443:10665   */\n      swap3\n      swap2\n      pop\n      pop\n      jump\t// out\n        /* \"#utility.yul\":10671:10807   */\n    tag_248:\n        /* \"#utility.yul\":10760:10766   */\n      0x00\n        /* \"#utility.yul\":10794:10799   */\n      dup2\n        /* \"#utility.yul\":10788:10800   */\n      mload\n        /* \"#utility.yul\":10778:10800   */\n      swap1\n      pop\n        /* \"#utility.yul\":10671:10807   */\n      swap2\n      swap1\n      pop\n      jump\t// out\n        /* \"#utility.yul\":10813:11019   */\n    tag_249:\n        /* \"#utility.yul\":10934:10945   */\n      0x00\n        /* \"#utility.yul\":10968:10974   */\n      dup3\n        /* \"#utility.yul\":10963:10966   */\n      dup3\n        /* \"#utility.yul\":10956:10975   */\n      mstore\n        /* \"#utility.yul\":11008:11012   */\n      0x20\n        /* \"#utility.yul\":11003:11006   */\n      dup3\n        /* \"#utility.yul\":10999:11013   */\n      add\n        /* \"#utility.yul\":10984:11013   */\n      swap1\n      pop\n        /* \"#utility.yul\":10813:11019   */\n      swap3\n      swap2\n      pop\n      pop\n      jump\t// out\n        /* \"#utility.yul\":11025:11179   */\n    tag_250:\n        /* \"#utility.yul\":11114:11118   */\n      0x00\n        /* \"#utility.yul\":11137:11140   */\n      dup2\n        /* \"#utility.yul\":11129:11140   */\n      swap1\n      pop\n        /* \"#utility.yul\":11167:11171   */\n      0x20\n        /* \"#utility.yul\":11162:11165   */\n      dup3\n        /* \"#utility.yul\":11158:11172   */\n      add\n        /* \"#utility.yul\":11150:11172   */\n      swap1\n      pop\n        /* \"#utility.yul\":11025:11179   */\n      swap2\n      swap1\n      pop\n      jump\t// out\n        /* \"#utility.yul\":11185:11293   */\n    tag_251:\n        /* \"#utility.yul\":11262:11286   */\n      tag_397\n        /* \"#utility.yul\":11280:11285   */\n      dup2\n        /* \"#utility.yul\":11262:11286   */\n      tag_228\n      jump\t// in\n    tag_397:\n        /* \"#utility.yul\":11257:11260   */\n      dup3\n        /* \"#utility.yul\":11250:11287   */\n      mstore\n        /* \"#utility.yul\":11185:11293   */\n      pop\n      pop\n      jump\t// out\n        /* \"#utility.yul\":11353:11673   */\n    tag_252:\n        /* \"#utility.yul\":11484:11488   */\n      0x20\n        /* \"#utility.yul\":11479:11482   */\n      dup3\n        /* \"#utility.yul\":11475:11489   */\n      add\n        /* \"#utility.yul\":11574:11578   */\n      0x00\n        /* \"#utility.yul\":11567:11572   */\n      dup3\n        /* \"#utility.yul\":11563:11579   */\n      add\n        /* \"#utility.yul\":11557:11580   */\n      mload\n        /* \"#utility.yul\":11593:11656   */\n      tag_399\n        /* \"#utility.yul\":11650:11654   */\n      0x00\n        /* \"#utility.yul\":11645:11648   */\n      dup6\n        /* \"#utility.yul\":11641:11655   */\n      add\n        /* \"#utility.yul\":11627:11639   */\n      dup3\n        /* \"#utility.yul\":11593:11656   */\n      tag_251\n      jump\t// in\n    tag_399:\n        /* \"#utility.yul\":11499:11666   */\n      pop\n        /* \"#utility.yul\":11453:11673   */\n      pop\n        /* \"#utility.yul\":11353:11673   */\n      pop\n      pop\n      jump\t// out\n        /* \"#utility.yul\":11679:11946   */\n    tag_253:\n        /* \"#utility.yul\":11792:11802   */\n      0x00\n        /* \"#utility.yul\":11813:11903   */\n      tag_401\n        /* \"#utility.yul\":11899:11902   */\n      dup4\n        /* \"#utility.yul\":11891:11897   */\n      dup4\n        /* \"#utility.yul\":11813:11903   */\n      tag_252\n      jump\t// in\n    tag_401:\n        /* \"#utility.yul\":11935:11939   */\n      0x20\n        /* \"#utility.yul\":11930:11933   */\n      dup4\n        /* \"#utility.yul\":11926:11940   */\n      add\n        /* \"#utility.yul\":11912:11940   */\n      swap1\n      pop\n        /* \"#utility.yul\":11679:11946   */\n      swap3\n      swap2\n      pop\n      pop\n      jump\t// out\n        /* \"#utility.yul\":11952:12087   */\n    tag_254:\n        /* \"#utility.yul\":12044:12048   */\n      0x00\n        /* \"#utility.yul\":12076:12080   */\n      0x20\n        /* \"#utility.yul\":12071:12074   */\n      dup3\n        /* \"#utility.yul\":12067:12081   */\n      add\n        /* \"#utility.yul\":12059:12081   */\n      swap1\n      pop\n        /* \"#utility.yul\":11952:12087   */\n      swap2\n      swap1\n      pop\n      jump\t// out\n        /* \"#utility.yul\":12151:13059   */\n    tag_255:\n        /* \"#utility.yul\":12314:12317   */\n      0x00\n        /* \"#utility.yul\":12343:12419   */\n      tag_404\n        /* \"#utility.yul\":12413:12418   */\n      dup3\n        /* \"#utility.yul\":12343:12419   */\n      tag_248\n      jump\t// in\n    tag_404:\n        /* \"#utility.yul\":12435:12543   */\n      tag_405\n        /* \"#utility.yul\":12536:12542   */\n      dup2\n        /* \"#utility.yul\":12531:12534   */\n      dup6\n        /* \"#utility.yul\":12435:12543   */\n      tag_249\n      jump\t// in\n    tag_405:\n        /* \"#utility.yul\":12428:12543   */\n      swap4\n      pop\n        /* \"#utility.yul\":12567:12645   */\n      tag_406\n        /* \"#utility.yul\":12639:12644   */\n      dup4\n        /* \"#utility.yul\":12567:12645   */\n      tag_250\n      jump\t// in\n    tag_406:\n        /* \"#utility.yul\":12668:12675   */\n      dup1\n        /* \"#utility.yul\":12699:12700   */\n      0x00\n        /* \"#utility.yul\":12684:13034   */\n    tag_407:\n        /* \"#utility.yul\":12709:12715   */\n      dup4\n        /* \"#utility.yul\":12706:12707   */\n      dup2\n        /* \"#utility.yul\":12703:12716   */\n      lt\n        /* \"#utility.yul\":12684:13034   */\n      iszero\n      tag_409\n      jumpi\n        /* \"#utility.yul\":12785:12791   */\n      dup2\n        /* \"#utility.yul\":12779:12792   */\n      mload\n        /* \"#utility.yul\":12812:12919   */\n      tag_410\n        /* \"#utility.yul\":12915:12918   */\n      dup9\n        /* \"#utility.yul\":12900:12913   */\n      dup3\n        /* \"#utility.yul\":12812:12919   */\n      tag_253\n      jump\t// in\n    tag_410:\n        /* \"#utility.yul\":12805:12919   */\n      swap8\n      pop\n        /* \"#utility.yul\":12942:13024   */\n      tag_411\n        /* \"#utility.yul\":13017:13023   */\n      dup4\n        /* \"#utility.yul\":12942:13024   */\n      tag_254\n      jump\t// in\n    tag_411:\n        /* \"#utility.yul\":12932:13024   */\n      swap3\n      pop\n        /* \"#utility.yul\":12744:13034   */\n      pop\n        /* \"#utility.yul\":12731:12732   */\n      0x01\n        /* \"#utility.yul\":12728:12729   */\n      dup2\n        /* \"#utility.yul\":12724:12733   */\n      add\n        /* \"#utility.yul\":12719:12733   */\n      swap1\n      pop\n        /* \"#utility.yul\":12684:13034   */\n      jump(tag_407)\n    tag_409:\n        /* \"#utility.yul\":12688:12702   */\n      pop\n        /* \"#utility.yul\":13050:13053   */\n      dup6\n        /* \"#utility.yul\":13043:13053   */\n      swap4\n      pop\n        /* \"#utility.yul\":12319:13059   */\n      pop\n      pop\n      pop\n        /* \"#utility.yul\":12151:13059   */\n      swap3\n      swap2\n      pop\n      pop\n      jump\t// out\n        /* \"#utility.yul\":13065:13526   */\n    tag_96:\n        /* \"#utility.yul\":13252:13256   */\n      0x00\n        /* \"#utility.yul\":13290:13292   */\n      0x20\n        /* \"#utility.yul\":13279:13288   */\n      dup3\n        /* \"#utility.yul\":13275:13293   */\n      add\n        /* \"#utility.yul\":13267:13293   */\n      swap1\n      pop\n        /* \"#utility.yul\":13339:13348   */\n      dup2\n        /* \"#utility.yul\":13333:13337   */\n      dup2\n        /* \"#utility.yul\":13329:13349   */\n      sub\n        /* \"#utility.yul\":13325:13326   */\n      0x00\n        /* \"#utility.yul\":13314:13323   */\n      dup4\n        /* \"#utility.yul\":13310:13327   */\n      add\n        /* \"#utility.yul\":13303:13350   */\n      mstore\n        /* \"#utility.yul\":13367:13519   */\n      tag_413\n        /* \"#utility.yul\":13514:13518   */\n      dup2\n        /* \"#utility.yul\":13505:13511   */\n      dup5\n        /* \"#utility.yul\":13367:13519   */\n      tag_255\n      jump\t// in\n    tag_413:\n        /* \"#utility.yul\":13359:13519   */\n      swap1\n      pop\n        /* \"#utility.yul\":13065:13526   */\n      swap3\n      swap2\n      pop\n      pop\n      jump\t// out\n        /* \"#utility.yul\":13532:14046   */\n    tag_102:\n        /* \"#utility.yul\":13693:13697   */\n      0x00\n        /* \"#utility.yul\":13731:13733   */\n      0x40\n        /* \"#utility.yul\":13720:13729   */\n      dup3\n        /* \"#utility.yul\":13716:13734   */\n      add\n        /* \"#utility.yul\":13708:13734   */\n      swap1\n      pop\n        /* \"#utility.yul\":13780:13789   */\n      dup2\n        /* \"#utility.yul\":13774:13778   */\n      dup2\n        /* \"#utility.yul\":13770:13790   */\n      sub\n        /* \"#utility.yul\":13766:13767   */\n      0x00\n        /* \"#utility.yul\":13755:13764   */\n      dup4\n        /* \"#utility.yul\":13751:13768   */\n      add\n        /* \"#utility.yul\":13744:13791   */\n      mstore\n        /* \"#utility.yul\":13808:13886   */\n      tag_415\n        /* \"#utility.yul\":13881:13885   */\n      dup2\n        /* \"#utility.yul\":13872:13878   */\n      dup6\n        /* \"#utility.yul\":13808:13886   */\n      tag_223\n      jump\t// in\n    tag_415:\n        /* \"#utility.yul\":13800:13886   */\n      swap1\n      pop\n        /* \"#utility.yul\":13933:13942   */\n      dup2\n        /* \"#utility.yul\":13927:13931   */\n      dup2\n        /* \"#utility.yul\":13923:13943   */\n      sub\n        /* \"#utility.yul\":13918:13920   */\n      0x20\n        /* \"#utility.yul\":13907:13916   */\n      dup4\n        /* \"#utility.yul\":13903:13921   */\n      add\n        /* \"#utility.yul\":13896:13944   */\n      mstore\n        /* \"#utility.yul\":13961:14039   */\n      tag_416\n        /* \"#utility.yul\":14034:14038   */\n      dup2\n        /* \"#utility.yul\":14025:14031   */\n      dup5\n        /* \"#utility.yul\":13961:14039   */\n      tag_223\n      jump\t// in\n    tag_416:\n        /* \"#utility.yul\":13953:14039   */\n      swap1\n      pop\n        /* \"#utility.yul\":13532:14046   */\n      swap4\n      swap3\n      pop\n      pop\n      pop\n      jump\t// out\n        /* \"#utility.yul\":14052:14526   */\n    tag_115:\n        /* \"#utility.yul\":14120:14126   */\n      0x00\n        /* \"#utility.yul\":14128:14134   */\n      dup1\n        /* \"#utility.yul\":14177:14179   */\n      0x40\n        /* \"#utility.yul\":14165:14174   */\n      dup4\n        /* \"#utility.yul\":14156:14163   */\n      dup6\n        /* \"#utility.yul\":14152:14175   */\n      sub\n        /* \"#utility.yul\":14148:14180   */\n      slt\n        /* \"#utility.yul\":14145:14264   */\n      iszero\n      tag_418\n      jumpi\n        /* \"#utility.yul\":14183:14262   */\n      tag_419\n      tag_225\n      jump\t// in\n    tag_419:\n        /* \"#utility.yul\":14145:14264   */\n    tag_418:\n        /* \"#utility.yul\":14303:14304   */\n      0x00\n        /* \"#utility.yul\":14328:14381   */\n      tag_420\n        /* \"#utility.yul\":14373:14380   */\n      dup6\n        /* \"#utility.yul\":14364:14370   */\n      dup3\n        /* \"#utility.yul\":14353:14362   */\n      dup7\n        /* \"#utility.yul\":14349:14371   */\n      add\n        /* \"#utility.yul\":14328:14381   */\n      tag_230\n      jump\t// in\n    tag_420:\n        /* \"#utility.yul\":14318:14381   */\n      swap3\n      pop\n        /* \"#utility.yul\":14274:14391   */\n      pop\n        /* \"#utility.yul\":14430:14432   */\n      0x20\n        /* \"#utility.yul\":14456:14509   */\n      tag_421\n        /* \"#utility.yul\":14501:14508   */\n      dup6\n        /* \"#utility.yul\":14492:14498   */\n      dup3\n        /* \"#utility.yul\":14481:14490   */\n      dup7\n        /* \"#utility.yul\":14477:14499   */\n      add\n        /* \"#utility.yul\":14456:14509   */\n      tag_230\n      jump\t// in\n    tag_421:\n        /* \"#utility.yul\":14446:14509   */\n      swap2\n      pop\n        /* \"#utility.yul\":14401:14519   */\n      pop\n        /* \"#utility.yul\":14052:14526   */\n      swap3\n      pop\n      swap3\n      swap1\n      pop\n      jump\t// out\n        /* \"#utility.yul\":14532:14712   */\n    tag_256:\n        /* \"#utility.yul\":14580:14657   */\n      0x4e487b7100000000000000000000000000000000000000000000000000000000\n        /* \"#utility.yul\":14577:14578   */\n      0x00\n        /* \"#utility.yul\":14570:14658   */\n      mstore\n        /* \"#utility.yul\":14677:14681   */\n      0x22\n        /* \"#utility.yul\":14674:14675   */\n      0x04\n        /* \"#utility.yul\":14667:14682   */\n      mstore\n        /* \"#utility.yul\":14701:14705   */\n      0x24\n        /* \"#utility.yul\":14698:14699   */\n      0x00\n        /* \"#utility.yul\":14691:14706   */\n      revert\n        /* \"#utility.yul\":14718:15038   */\n    tag_122:\n        /* \"#utility.yul\":14762:14768   */\n      0x00\n        /* \"#utility.yul\":14799:14800   */\n      0x02\n        /* \"#utility.yul\":14793:14797   */\n      dup3\n        /* \"#utility.yul\":14789:14801   */\n      div\n        /* \"#utility.yul\":14779:14801   */\n      swap1\n      pop\n        /* \"#utility.yul\":14846:14847   */\n      0x01\n        /* \"#utility.yul\":14840:14844   */\n      dup3\n        /* \"#utility.yul\":14836:14848   */\n      and\n        /* \"#utility.yul\":14867:14885   */\n      dup1\n        /* \"#utility.yul\":14857:14938   */\n      tag_424\n      jumpi\n        /* \"#utility.yul\":14923:14927   */\n      0x7f\n        /* \"#utility.yul\":14915:14921   */\n      dup3\n        /* \"#utility.yul\":14911:14928   */\n      and\n        /* \"#utility.yul\":14901:14928   */\n      swap2\n      pop\n        /* \"#utility.yul\":14857:14938   */\n    tag_424:\n        /* \"#utility.yul\":14985:14987   */\n      0x20\n        /* \"#utility.yul\":14977:14983   */\n      dup3\n        /* \"#utility.yul\":14974:14988   */\n      lt\n        /* \"#utility.yul\":14954:14972   */\n      dup2\n        /* \"#utility.yul\":14951:14989   */\n      sub\n        /* \"#utility.yul\":14948:15032   */\n      tag_425\n      jumpi\n        /* \"#utility.yul\":15004:15022   */\n      tag_426\n      tag_256\n      jump\t// in\n    tag_426:\n        /* \"#utility.yul\":14948:15032   */\n    tag_425:\n        /* \"#utility.yul\":14769:15038   */\n      pop\n        /* \"#utility.yul\":14718:15038   */\n      swap2\n      swap1\n      pop\n      jump\t// out\n        /* \"#utility.yul\":15044:15123   */\n    tag_257:\n        /* \"#utility.yul\":15083:15090   */\n      0x00\n        /* \"#utility.yul\":15112:15117   */\n      dup2\n        /* \"#utility.yul\":15101:15117   */\n      swap1\n      pop\n        /* \"#utility.yul\":15044:15123   */\n      swap2\n      swap1\n      pop\n      jump\t// out\n        /* \"#utility.yul\":15129:15286   */\n    tag_258:\n        /* \"#utility.yul\":15234:15279   */\n      tag_429\n        /* \"#utility.yul\":15254:15278   */\n      tag_430\n        /* \"#utility.yul\":15272:15277   */\n      dup3\n        /* \"#utility.yul\":15254:15278   */\n      tag_217\n      jump\t// in\n    tag_430:\n        /* \"#utility.yul\":15234:15279   */\n      tag_257\n      jump\t// in\n    tag_429:\n        /* \"#utility.yul\":15229:15232   */\n      dup3\n        /* \"#utility.yul\":15222:15280   */\n      mstore\n        /* \"#utility.yul\":15129:15286   */\n      pop\n      pop\n      jump\t// out\n        /* \"#utility.yul\":15292:15396   */\n    tag_259:\n        /* \"#utility.yul\":15337:15344   */\n      0x00\n        /* \"#utility.yul\":15366:15390   */\n      tag_432\n        /* \"#utility.yul\":15384:15389   */\n      dup3\n        /* \"#utility.yul\":15366:15390   */\n      tag_227\n      jump\t// in\n    tag_432:\n        /* \"#utility.yul\":15355:15390   */\n      swap1\n      pop\n        /* \"#utility.yul\":15292:15396   */\n      swap2\n      swap1\n      pop\n      jump\t// out\n        /* \"#utility.yul\":15402:15496   */\n    tag_260:\n        /* \"#utility.yul\":15435:15443   */\n      0x00\n        /* \"#utility.yul\":15483:15488   */\n      dup2\n        /* \"#utility.yul\":15479:15481   */\n      0x60\n        /* \"#utility.yul\":15475:15489   */\n      shl\n        /* \"#utility.yul\":15454:15489   */\n      swap1\n      pop\n        /* \"#utility.yul\":15402:15496   */\n      swap2\n      swap1\n      pop\n      jump\t// out\n        /* \"#utility.yul\":15502:15596   */\n    tag_261:\n        /* \"#utility.yul\":15541:15548   */\n      0x00\n        /* \"#utility.yul\":15570:15590   */\n      tag_435\n        /* \"#utility.yul\":15584:15589   */\n      dup3\n        /* \"#utility.yul\":15570:15590   */\n      tag_260\n      jump\t// in\n    tag_435:\n        /* \"#utility.yul\":15559:15590   */\n      swap1\n      pop\n        /* \"#utility.yul\":15502:15596   */\n      swap2\n      swap1\n      pop\n      jump\t// out\n        /* \"#utility.yul\":15602:15710   */\n    tag_262:\n        /* \"#utility.yul\":15649:15656   */\n      0x00\n        /* \"#utility.yul\":15678:15704   */\n      tag_437\n        /* \"#utility.yul\":15698:15703   */\n      dup3\n        /* \"#utility.yul\":15678:15704   */\n      tag_261\n      jump\t// in\n    tag_437:\n        /* \"#utility.yul\":15667:15704   */\n      swap1\n      pop\n        /* \"#utility.yul\":15602:15710   */\n      swap2\n      swap1\n      pop\n      jump\t// out\n        /* \"#utility.yul\":15716:15905   */\n    tag_263:\n        /* \"#utility.yul\":15837:15898   */\n      tag_439\n        /* \"#utility.yul\":15865:15897   */\n      tag_440\n        /* \"#utility.yul\":15891:15896   */\n      dup3\n        /* \"#utility.yul\":15865:15897   */\n      tag_259\n      jump\t// in\n    tag_440:\n        /* \"#utility.yul\":15837:15898   */\n      tag_262\n      jump\t// in\n    tag_439:\n        /* \"#utility.yul\":15832:15835   */\n      dup3\n        /* \"#utility.yul\":15825:15899   */\n      mstore\n        /* \"#utility.yul\":15716:15905   */\n      pop\n      pop\n      jump\t// out\n        /* \"#utility.yul\":15911:16481   */\n    tag_138:\n        /* \"#utility.yul\":16095:16098   */\n      0x00\n        /* \"#utility.yul\":16110:16185   */\n      tag_442\n        /* \"#utility.yul\":16181:16184   */\n      dup3\n        /* \"#utility.yul\":16172:16178   */\n      dup7\n        /* \"#utility.yul\":16110:16185   */\n      tag_258\n      jump\t// in\n    tag_442:\n        /* \"#utility.yul\":16210:16212   */\n      0x20\n        /* \"#utility.yul\":16205:16208   */\n      dup3\n        /* \"#utility.yul\":16201:16213   */\n      add\n        /* \"#utility.yul\":16194:16213   */\n      swap2\n      pop\n        /* \"#utility.yul\":16223:16314   */\n      tag_443\n        /* \"#utility.yul\":16310:16313   */\n      dup3\n        /* \"#utility.yul\":16301:16307   */\n      dup6\n        /* \"#utility.yul\":16223:16314   */\n      tag_263\n      jump\t// in\n    tag_443:\n        /* \"#utility.yul\":16339:16341   */\n      0x14\n        /* \"#utility.yul\":16334:16337   */\n      dup3\n        /* \"#utility.yul\":16330:16342   */\n      add\n        /* \"#utility.yul\":16323:16342   */\n      swap2\n      pop\n        /* \"#utility.yul\":16352:16427   */\n      tag_444\n        /* \"#utility.yul\":16423:16426   */\n      dup3\n        /* \"#utility.yul\":16414:16420   */\n      dup5\n        /* \"#utility.yul\":16352:16427   */\n      tag_258\n      jump\t// in\n    tag_444:\n        /* \"#utility.yul\":16452:16454   */\n      0x20\n        /* \"#utility.yul\":16447:16450   */\n      dup3\n        /* \"#utility.yul\":16443:16455   */\n      add\n        /* \"#utility.yul\":16436:16455   */\n      swap2\n      pop\n        /* \"#utility.yul\":16472:16475   */\n      dup2\n        /* \"#utility.yul\":16465:16475   */\n      swap1\n      pop\n        /* \"#utility.yul\":15911:16481   */\n      swap5\n      swap4\n      pop\n      pop\n      pop\n      pop\n      jump\t// out\n        /* \"#utility.yul\":16487:16667   */\n    tag_264:\n        /* \"#utility.yul\":16535:16612   */\n      0x4e487b7100000000000000000000000000000000000000000000000000000000\n        /* \"#utility.yul\":16532:16533   */\n      0x00\n        /* \"#utility.yul\":16525:16613   */\n      mstore\n        /* \"#utility.yul\":16632:16636   */\n      0x12\n        /* \"#utility.yul\":16629:16630   */\n      0x04\n        /* \"#utility.yul\":16622:16637   */\n      mstore\n        /* \"#utility.yul\":16656:16660   */\n      0x24\n        /* \"#utility.yul\":16653:16654   */\n      0x00\n        /* \"#utility.yul\":16646:16661   */\n      revert\n        /* \"#utility.yul\":16673:16849   */\n    tag_140:\n        /* \"#utility.yul\":16705:16706   */\n      0x00\n        /* \"#utility.yul\":16722:16742   */\n      tag_447\n        /* \"#utility.yul\":16740:16741   */\n      dup3\n        /* \"#utility.yul\":16722:16742   */\n      tag_217\n      jump\t// in\n    tag_447:\n        /* \"#utility.yul\":16717:16742   */\n      swap2\n      pop\n        /* \"#utility.yul\":16756:16776   */\n      tag_448\n        /* \"#utility.yul\":16774:16775   */\n      dup4\n        /* \"#utility.yul\":16756:16776   */\n      tag_217\n      jump\t// in\n    tag_448:\n        /* \"#utility.yul\":16751:16776   */\n      swap3\n      pop\n        /* \"#utility.yul\":16795:16796   */\n      dup3\n        /* \"#utility.yul\":16785:16820   */\n      tag_449\n      jumpi\n        /* \"#utility.yul\":16800:16818   */\n      tag_450\n      tag_264\n      jump\t// in\n    tag_450:\n        /* \"#utility.yul\":16785:16820   */\n    tag_449:\n        /* \"#utility.yul\":16841:16842   */\n      dup3\n        /* \"#utility.yul\":16838:16839   */\n      dup3\n        /* \"#utility.yul\":16834:16843   */\n      mod\n        /* \"#utility.yul\":16829:16843   */\n      swap1\n      pop\n        /* \"#utility.yul\":16673:16849   */\n      swap3\n      swap2\n      pop\n      pop\n      jump\t// out\n        /* \"#utility.yul\":16855:17035   */\n    tag_143:\n        /* \"#utility.yul\":16903:16980   */\n      0x4e487b7100000000000000000000000000000000000000000000000000000000\n        /* \"#utility.yul\":16900:16901   */\n      0x00\n        /* \"#utility.yul\":16893:16981   */\n      mstore\n        /* \"#utility.yul\":17000:17004   */\n      0x32\n        /* \"#utility.yul\":16997:16998   */\n      0x04\n        /* \"#utility.yul\":16990:17005   */\n      mstore\n        /* \"#utility.yul\":17024:17028   */\n      0x24\n        /* \"#utility.yul\":17021:17022   */\n      0x00\n        /* \"#utility.yul\":17014:17029   */\n      revert\n        /* \"#utility.yul\":17041:17221   */\n    tag_265:\n        /* \"#utility.yul\":17089:17166   */\n      0x4e487b7100000000000000000000000000000000000000000000000000000000\n        /* \"#utility.yul\":17086:17087   */\n      0x00\n        /* \"#utility.yul\":17079:17167   */\n      mstore\n        /* \"#utility.yul\":17186:17190   */\n      0x41\n        /* \"#utility.yul\":17183:17184   */\n      0x04\n        /* \"#utility.yul\":17176:17191   */\n      mstore\n        /* \"#utility.yul\":17210:17214   */\n      0x24\n        /* \"#utility.yul\":17207:17208   */\n      0x00\n        /* \"#utility.yul\":17200:17215   */\n      revert\n        /* \"#utility.yul\":17227:17368   */\n    tag_266:\n        /* \"#utility.yul\":17276:17280   */\n      0x00\n        /* \"#utility.yul\":17299:17302   */\n      dup2\n        /* \"#utility.yul\":17291:17302   */\n      swap1\n      pop\n        /* \"#utility.yul\":17322:17325   */\n      dup2\n        /* \"#utility.yul\":17319:17320   */\n      0x00\n        /* \"#utility.yul\":17312:17326   */\n      mstore\n        /* \"#utility.yul\":17356:17360   */\n      0x20\n        /* \"#utility.yul\":17353:17354   */\n      0x00\n        /* \"#utility.yul\":17343:17361   */\n      keccak256\n        /* \"#utility.yul\":17335:17361   */\n      swap1\n      pop\n        /* \"#utility.yul\":17227:17368   */\n      swap2\n      swap1\n      pop\n      jump\t// out\n        /* \"#utility.yul\":17374:17467   */\n    tag_267:\n        /* \"#utility.yul\":17411:17417   */\n      0x00\n        /* \"#utility.yul\":17458:17460   */\n      0x20\n        /* \"#utility.yul\":17453:17455   */\n      0x1f\n        /* \"#utility.yul\":17446:17451   */\n      dup4\n        /* \"#utility.yul\":17442:17456   */\n      add\n        /* \"#utility.yul\":17438:17461   */\n      div\n        /* \"#utility.yul\":17428:17461   */\n      swap1\n      pop\n        /* \"#utility.yul\":17374:17467   */\n      swap2\n      swap1\n      pop\n      jump\t// out\n        /* \"#utility.yul\":17473:17580   */\n    tag_268:\n        /* \"#utility.yul\":17517:17525   */\n      0x00\n        /* \"#utility.yul\":17567:17572   */\n      dup3\n        /* \"#utility.yul\":17561:17565   */\n      dup3\n        /* \"#utility.yul\":17557:17573   */\n      shl\n        /* \"#utility.yul\":17536:17573   */\n      swap1\n      pop\n        /* \"#utility.yul\":17473:17580   */\n      swap3\n      swap2\n      pop\n      pop\n      jump\t// out\n        /* \"#utility.yul\":17586:17979   */\n    tag_269:\n        /* \"#utility.yul\":17655:17661   */\n      0x00\n        /* \"#utility.yul\":17705:17706   */\n      0x08\n        /* \"#utility.yul\":17693:17703   */\n      dup4\n        /* \"#utility.yul\":17689:17707   */\n      mul\n        /* \"#utility.yul\":17728:17825   */\n      tag_457\n        /* \"#utility.yul\":17758:17824   */\n      0xffffffffffffffffffffffffffffffffffffffffffffffffffffffffffffffff\n        /* \"#utility.yul\":17747:17756   */\n      dup3\n        /* \"#utility.yul\":17728:17825   */\n      tag_268\n      jump\t// in\n    tag_457:\n        /* \"#utility.yul\":17846:17885   */\n      tag_458\n        /* \"#utility.yul\":17876:17884   */\n      dup7\n        /* \"#utility.yul\":17865:17874   */\n      dup4\n        /* \"#utility.yul\":17846:17885   */\n      tag_268\n      jump\t// in\n    tag_458:\n        /* \"#utility.yul\":17834:17885   */\n      swap6\n      pop\n        /* \"#utility.yul\":17918:17922   */\n      dup1\n        /* \"#utility.yul\":17914:17923   */\n      not\n        /* \"#utility.yul\":17907:17912   */\n      dup5\n        /* \"#utility.yul\":17903:17924   */\n      and\n        /* \"#utility.yul\":17894:17924   */\n      swap4\n      pop\n        /* \"#utility.yul\":17967:17971   */\n      dup1\n        /* \"#utility.yul\":17957:17965   */\n      dup7\n        /* \"#utility.yul\":17953:17972   */\n      and\n        /* \"#utility.yul\":17946:17951   */\n      dup5\n        /* \"#utility.yul\":17943:17973   */\n      or\n        /* \"#utility.yul\":17933:17973   */\n      swap3\n      pop\n        /* \"#utility.yul\":17662:17979   */\n      pop\n      pop\n        /* \"#utility.yul\":17586:17979   */\n      swap4\n      swap3\n      pop\n      pop\n      pop\n      jump\t// out\n        /* \"#utility.yul\":17985:18045   */\n    tag_270:\n        /* \"#utility.yul\":18013:18016   */\n      0x00\n        /* \"#utility.yul\":18034:18039   */\n      dup2\n        /* \"#utility.yul\":18027:18039   */\n      swap1\n      pop\n        /* \"#utility.yul\":17985:18045   */\n      swap2\n      swap1\n      pop\n      jump\t// out\n        /* \"#utility.yul\":18051:18193   */\n    tag_271:\n        /* \"#utility.yul\":18101:18110   */\n      0x00\n        /* \"#utility.yul\":18134:18187   */\n      tag_461\n        /* \"#utility.yul\":18152:18186   */\n      tag_462\n        /* \"#utility.yul\":18161:18185   */\n      tag_463\n        /* \"#utility.yul\":18179:18184   */\n      dup5\n        /* \"#utility.yul\":18161:18185   */\n      tag_217\n      jump\t// in\n    tag_463:\n        /* \"#utility.yul\":18152:18186   */\n      tag_270\n      jump\t// in\n    tag_462:\n        /* \"#utility.yul\":18134:18187   */\n      tag_217\n      jump\t// in\n    tag_461:\n        /* \"#utility.yul\":18121:18187   */\n      swap1\n      pop\n        /* \"#utility.yul\":18051:18193   */\n      swap2\n      swap1\n      pop\n      jump\t// out\n        /* \"#utility.yul\":18199:18274   */\n    tag_272:\n        /* \"#utility.yul\":18242:18245   */\n      0x00\n        /* \"#utility.yul\":18263:18268   */\n      dup2\n        /* \"#utility.yul\":18256:18268   */\n      swap1\n      pop\n        /* \"#utility.yul\":18199:18274   */\n      swap2\n      swap1\n      pop\n      jump\t// out\n        /* \"#utility.yul\":18280:18549   */\n    tag_273:\n        /* \"#utility.yul\":18390:18429   */\n      tag_466\n        /* \"#utility.yul\":18421:18428   */\n      dup4\n        /* \"#utility.yul\":18390:18429   */\n      tag_271\n      jump\t// in\n    tag_466:\n        /* \"#utility.yul\":18451:18542   */\n      tag_467\n        /* \"#utility.yul\":18500:18541   */\n      tag_468\n        /* \"#utility.yul\":18524:18540   */\n      dup3\n        /* \"#utility.yul\":18500:18541   */\n      tag_272\n      jump\t// in\n    tag_468:\n        /* \"#utility.yul\":18492:18498   */\n      dup5\n        /* \"#utility.yul\":18485:18489   */\n      dup5\n        /* \"#utility.yul\":18479:18490   */\n      sload\n        /* \"#utility.yul\":18451:18542   */\n      tag_269\n      jump\t// in\n    tag_467:\n        /* \"#utility.yul\":18445:18449   */\n      dup3\n        /* \"#utility.yul\":18438:18543   */\n      sstore\n        /* \"#utility.yul\":18356:18549   */\n      pop\n        /* \"#utility.yul\":18280:18549   */\n      pop\n      pop\n      pop\n      jump\t// out\n        /* \"#utility.yul\":18555:18628   */\n    tag_274:\n        /* \"#utility.yul\":18600:18603   */\n      0x00\n        /* \"#utility.yul\":18555:18628   */\n      swap1\n      jump\t// out\n        /* \"#utility.yul\":18634:18823   */\n    tag_275:\n        /* \"#utility.yul\":18711:18743   */\n      tag_471\n      tag_274\n      jump\t// in\n    tag_471:\n        /* \"#utility.yul\":18752:18817   */\n      tag_472\n        /* \"#utility.yul\":18810:18816   */\n      dup2\n        /* \"#utility.yul\":18802:18808   */\n      dup5\n        /* \"#utility.yul\":18796:18800   */\n      dup5\n        /* \"#utility.yul\":18752:18817   */\n      tag_273\n      jump\t// in\n    tag_472:\n        /* \"#utility.yul\":18687:18823   */\n      pop\n        /* \"#utility.yul\":18634:18823   */\n      pop\n      pop\n      jump\t// out\n        /* \"#utility.yul\":18829:19015   */\n    tag_276:\n        /* \"#utility.yul\":18889:19009   */\n    tag_474:\n        /* \"#utility.yul\":18906:18909   */\n      dup2\n        /* \"#utility.yul\":18899:18904   */\n      dup2\n        /* \"#utility.yul\":18896:18910   */\n      lt\n        /* \"#utility.yul\":18889:19009   */\n      iszero\n      tag_476\n      jumpi\n        /* \"#utility.yul\":18960:18999   */\n      tag_477\n        /* \"#utility.yul\":18997:18998   */\n      0x00\n        /* \"#utility.yul\":18990:18995   */\n      dup3\n        /* \"#utility.yul\":18960:18999   */\n      tag_275\n      jump\t// in\n    tag_477:\n        /* \"#utility.yul\":18933:18934   */\n      0x01\n        /* \"#utility.yul\":18926:18931   */\n      dup2\n        /* \"#utility.yul\":18922:18935   */\n      add\n        /* \"#utility.yul\":18913:18935   */\n      swap1\n      pop\n        /* \"#utility.yul\":18889:19009   */\n      jump(tag_474)\n    tag_476:\n        /* \"#utility.yul\":18829:19015   */\n      pop\n      pop\n      jump\t// out\n        /* \"#utility.yul\":19021:19564   */\n    tag_277:\n        /* \"#utility.yul\":19122:19124   */\n      0x1f\n        /* \"#utility.yul\":19117:19120   */\n      dup3\n        /* \"#utility.yul\":19114:19125   */\n      gt\n        /* \"#utility.yul\":19111:19557   */\n      iszero\n      tag_479\n      jumpi\n        /* \"#utility.yul\":19156:19194   */\n      tag_480\n        /* \"#utility.yul\":19188:19193   */\n      dup2\n        /* \"#utility.yul\":19156:19194   */\n      tag_266\n      jump\t// in\n    tag_480:\n        /* \"#utility.yul\":19240:19269   */\n      tag_481\n        /* \"#utility.yul\":19258:19268   */\n      dup5\n        /* \"#utility.yul\":19240:19269   */\n      tag_267\n      jump\t// in\n    tag_481:\n        /* \"#utility.yul\":19230:19238   */\n      dup2\n        /* \"#utility.yul\":19226:19270   */\n      add\n        /* \"#utility.yul\":19423:19425   */\n      0x20\n        /* \"#utility.yul\":19411:19421   */\n      dup6\n        /* \"#utility.yul\":19408:19426   */\n      lt\n        /* \"#utility.yul\":19405:19454   */\n      iszero\n      tag_482\n      jumpi\n        /* \"#utility.yul\":19444:19452   */\n      dup2\n        /* \"#utility.yul\":19429:19452   */\n      swap1\n      pop\n        /* \"#utility.yul\":19405:19454   */\n    tag_482:\n        /* \"#utility.yul\":19467:19547   */\n      tag_483\n        /* \"#utility.yul\":19523:19545   */\n      tag_484\n        /* \"#utility.yul\":19541:19544   */\n      dup6\n        /* \"#utility.yul\":19523:19545   */\n      tag_267\n      jump\t// in\n    tag_484:\n        /* \"#utility.yul\":19513:19521   */\n      dup4\n        /* \"#utility.yul\":19509:19546   */\n      add\n        /* \"#utility.yul\":19496:19507   */\n      dup3\n        /* \"#utility.yul\":19467:19547   */\n      tag_276\n      jump\t// in\n    tag_483:\n        /* \"#utility.yul\":19126:19557   */\n      pop\n      pop\n        /* \"#utility.yul\":19111:19557   */\n    tag_479:\n        /* \"#utility.yul\":19021:19564   */\n      pop\n      pop\n      pop\n      jump\t// out\n        /* \"#utility.yul\":19570:19687   */\n    tag_278:\n        /* \"#utility.yul\":19624:19632   */\n      0x00\n        /* \"#utility.yul\":19674:19679   */\n      dup3\n        /* \"#utility.yul\":19668:19672   */\n      dup3\n        /* \"#utility.yul\":19664:19680   */\n      shr\n        /* \"#utility.yul\":19643:19680   */\n      swap1\n      pop\n        /* \"#utility.yul\":19570:19687   */\n      swap3\n      swap2\n      pop\n      pop\n      jump\t// out\n        /* \"#utility.yul\":19693:19862   */\n    tag_279:\n        /* \"#utility.yul\":19737:19743   */\n      0x00\n        /* \"#utility.yul\":19770:19821   */\n      tag_487\n        /* \"#utility.yul\":19818:19819   */\n      0x00\n        /* \"#utility.yul\":19814:19820   */\n      not\n        /* \"#utility.yul\":19806:19811   */\n      dup5\n        /* \"#utility.yul\":19803:19804   */\n      0x08\n        /* \"#utility.yul\":19799:19812   */\n      mul\n        /* \"#utility.yul\":19770:19821   */\n      tag_278\n      jump\t// in\n    tag_487:\n        /* \"#utility.yul\":19766:19822   */\n      not\n        /* \"#utility.yul\":19851:19855   */\n      dup1\n        /* \"#utility.yul\":19845:19849   */\n      dup4\n        /* \"#utility.yul\":19841:19856   */\n      and\n        /* \"#utility.yul\":19831:19856   */\n      swap2\n      pop\n        /* \"#utility.yul\":19744:19862   */\n      pop\n        /* \"#utility.yul\":19693:19862   */\n      swap3\n      swap2\n      pop\n      pop\n      jump\t// out\n        /* \"#utility.yul\":19867:20162   */\n    tag_280:\n        /* \"#utility.yul\":19943:19947   */\n      0x00\n        /* \"#utility.yul\":20089:20118   */\n      tag_489\n        /* \"#utility.yul\":20114:20117   */\n      dup4\n        /* \"#utility.yul\":20108:20112   */\n      dup4\n        /* \"#utility.yul\":20089:20118   */\n      tag_279\n      jump\t// in\n    tag_489:\n        /* \"#utility.yul\":20081:20118   */\n      swap2\n      pop\n        /* \"#utility.yul\":20151:20154   */\n      dup3\n        /* \"#utility.yul\":20148:20149   */\n      0x02\n        /* \"#utility.yul\":20144:20155   */\n      mul\n        /* \"#utility.yul\":20138:20142   */\n      dup3\n        /* \"#utility.yul\":20135:20156   */\n      or\n        /* \"#utility.yul\":20127:20156   */\n      swap1\n      pop\n        /* \"#utility.yul\":19867:20162   */\n      swap3\n      swap2\n      pop\n      pop\n      jump\t// out\n        /* \"#utility.yul\":20167:21562   */\n    tag_160:\n        /* \"#utility.yul\":20284:20321   */\n      tag_491\n        /* \"#utility.yul\":20317:20320   */\n      dup3\n        /* \"#utility.yul\":20284:20321   */\n      tag_219\n      jump\t// in\n    tag_491:\n        /* \"#utility.yul\":20386:20404   */\n      0xffffffffffffffff\n        /* \"#utility.yul\":20378:20384   */\n      dup2\n        /* \"#utility.yul\":20375:20405   */\n      gt\n        /* \"#utility.yul\":20372:20428   */\n      iszero\n      tag_492\n      jumpi\n        /* \"#utility.yul\":20408:20426   */\n      tag_493\n      tag_265\n      jump\t// in\n    tag_493:\n        /* \"#utility.yul\":20372:20428   */\n    tag_492:\n        /* \"#utility.yul\":20452:20490   */\n      tag_494\n        /* \"#utility.yul\":20484:20488   */\n      dup3\n        /* \"#utility.yul\":20478:20489   */\n      sload\n        /* \"#utility.yul\":20452:20490   */\n      tag_122\n      jump\t// in\n    tag_494:\n        /* \"#utility.yul\":20537:20604   */\n      tag_495\n        /* \"#utility.yul\":20597:20603   */\n      dup3\n        /* \"#utility.yul\":20589:20595   */\n      dup3\n        /* \"#utility.yul\":20583:20587   */\n      dup6\n        /* \"#utility.yul\":20537:20604   */\n      tag_277\n      jump\t// in\n    tag_495:\n        /* \"#utility.yul\":20631:20632   */\n      0x00\n        /* \"#utility.yul\":20655:20659   */\n      0x20\n        /* \"#utility.yul\":20642:20659   */\n      swap1\n      pop\n        /* \"#utility.yul\":20687:20689   */\n      0x1f\n        /* \"#utility.yul\":20679:20685   */\n      dup4\n        /* \"#utility.yul\":20676:20690   */\n      gt\n        /* \"#utility.yul\":20704:20705   */\n      0x01\n        /* \"#utility.yul\":20699:21317   */\n      dup2\n      eq\n      tag_497\n      jumpi\n        /* \"#utility.yul\":21361:21362   */\n      0x00\n        /* \"#utility.yul\":21378:21384   */\n      dup5\n        /* \"#utility.yul\":21375:21452   */\n      iszero\n      tag_498\n      jumpi\n        /* \"#utility.yul\":21427:21436   */\n      dup3\n        /* \"#utility.yul\":21422:21425   */\n      dup8\n        /* \"#utility.yul\":21418:21437   */\n      add\n        /* \"#utility.yul\":21412:21438   */\n      mload\n        /* \"#utility.yul\":21403:21438   */\n      swap1\n      pop\n        /* \"#utility.yul\":21375:21452   */\n    tag_498:\n        /* \"#utility.yul\":21478:21545   */\n      tag_499\n        /* \"#utility.yul\":21538:21544   */\n      dup6\n        /* \"#utility.yul\":21531:21536   */\n      dup3\n        /* \"#utility.yul\":21478:21545   */\n      tag_280\n      jump\t// in\n    tag_499:\n        /* \"#utility.yul\":21472:21476   */\n      dup7\n        /* \"#utility.yul\":21465:21546   */\n      sstore\n        /* \"#utility.yul\":21334:21556   */\n      pop\n        /* \"#utility.yul\":20669:21556   */\n      jump(tag_496)\n        /* \"#utility.yul\":20699:21317   */\n    tag_497:\n        /* \"#utility.yul\":20751:20755   */\n      0x1f\n        /* \"#utility.yul\":20747:20756   */\n      not\n        /* \"#utility.yul\":20739:20745   */\n      dup5\n        /* \"#utility.yul\":20735:20757   */\n      and\n        /* \"#utility.yul\":20785:20822   */\n      tag_500\n        /* \"#utility.yul\":20817:20821   */\n      dup7\n        /* \"#utility.yul\":20785:20822   */\n      tag_266\n      jump\t// in\n    tag_500:\n        /* \"#utility.yul\":20844:20845   */\n      0x00\n        /* \"#utility.yul\":20858:21066   */\n    tag_501:\n        /* \"#utility.yul\":20872:20879   */\n      dup3\n        /* \"#utility.yul\":20869:20870   */\n      dup2\n        /* \"#utility.yul\":20866:20880   */\n      lt\n        /* \"#utility.yul\":20858:21066   */\n      iszero\n      tag_503\n      jumpi\n        /* \"#utility.yul\":20951:20960   */\n      dup5\n        /* \"#utility.yul\":20946:20949   */\n      dup10\n        /* \"#utility.yul\":20942:20961   */\n      add\n        /* \"#utility.yul\":20936:20962   */\n      mload\n        /* \"#utility.yul\":20928:20934   */\n      dup3\n        /* \"#utility.yul\":20921:20963   */\n      sstore\n        /* \"#utility.yul\":21002:21003   */\n      0x01\n        /* \"#utility.yul\":20994:21000   */\n      dup3\n        /* \"#utility.yul\":20990:21004   */\n      add\n        /* \"#utility.yul\":20980:21004   */\n      swap2\n      pop\n        /* \"#utility.yul\":21049:21051   */\n      0x20\n        /* \"#utility.yul\":21038:21047   */\n      dup6\n        /* \"#utility.yul\":21034:21052   */\n      add\n        /* \"#utility.yul\":21021:21052   */\n      swap5\n      pop\n        /* \"#utility.yul\":20895:20899   */\n      0x20\n        /* \"#utility.yul\":20892:20893   */\n      dup2\n        /* \"#utility.yul\":20888:20900   */\n      add\n        /* \"#utility.yul\":20883:20900   */\n      swap1\n      pop\n        /* \"#utility.yul\":20858:21066   */\n      jump(tag_501)\n    tag_503:\n        /* \"#utility.yul\":21094:21100   */\n      dup7\n        /* \"#utility.yul\":21085:21092   */\n      dup4\n        /* \"#utility.yul\":21082:21101   */\n      lt\n        /* \"#utility.yul\":21079:21258   */\n      iszero\n      tag_504\n      jumpi\n        /* \"#utility.yul\":21152:21161   */\n      dup5\n        /* \"#utility.yul\":21147:21150   */\n      dup10\n        /* \"#utility.yul\":21143:21162   */\n      add\n        /* \"#utility.yul\":21137:21163   */\n      mload\n        /* \"#utility.yul\":21195:21243   */\n      tag_505\n        /* \"#utility.yul\":21237:21241   */\n      0x1f\n        /* \"#utility.yul\":21229:21235   */\n      dup10\n        /* \"#utility.yul\":21225:21242   */\n      and\n        /* \"#utility.yul\":21214:21223   */\n      dup3\n        /* \"#utility.yul\":21195:21243   */\n      tag_279\n      jump\t// in\n    tag_505:\n        /* \"#utility.yul\":21187:21193   */\n      dup4\n        /* \"#utility.yul\":21180:21244   */\n      sstore\n        /* \"#utility.yul\":21102:21258   */\n      pop\n        /* \"#utility.yul\":21079:21258   */\n    tag_504:\n        /* \"#utility.yul\":21304:21305   */\n      0x01\n        /* \"#utility.yul\":21300:21301   */\n      0x02\n        /* \"#utility.yul\":21292:21298   */\n      dup9\n        /* \"#utility.yul\":21288:21302   */\n      mul\n        /* \"#utility.yul\":21284:21306   */\n      add\n        /* \"#utility.yul\":21278:21282   */\n      dup9\n        /* \"#utility.yul\":21271:21307   */\n      sstore\n        /* \"#utility.yul\":20706:21317   */\n      pop\n      pop\n      pop\n        /* \"#utility.yul\":20669:21556   */\n    tag_496:\n      pop\n        /* \"#utility.yul\":20259:21562   */\n      pop\n      pop\n      pop\n        /* \"#utility.yul\":20167:21562   */\n      pop\n      pop\n      jump\t// out\n        /* \"#utility.yul\":21568:21801   */\n    tag_170:\n        /* \"#utility.yul\":21607:21610   */\n      0x00\n        /* \"#utility.yul\":21630:21654   */\n      tag_507\n        /* \"#utility.yul\":21648:21653   */\n      dup3\n        /* \"#utility.yul\":21630:21654   */\n      tag_217\n      jump\t// in\n    tag_507:\n        /* \"#utility.yul\":21621:21654   */\n      swap2\n      pop\n        /* \"#utility.yul\":21676:21742   */\n      0xffffffffffffffffffffffffffffffffffffffffffffffffffffffffffffffff\n        /* \"#utility.yul\":21669:21674   */\n      dup3\n        /* \"#utility.yul\":21666:21743   */\n      sub\n        /* \"#utility.yul\":21663:21766   */\n      tag_508\n      jumpi\n        /* \"#utility.yul\":21746:21764   */\n      tag_509\n      tag_218\n      jump\t// in\n    tag_509:\n        /* \"#utility.yul\":21663:21766   */\n    tag_508:\n        /* \"#utility.yul\":21793:21794   */\n      0x01\n        /* \"#utility.yul\":21786:21791   */\n      dup3\n        /* \"#utility.yul\":21782:21795   */\n      add\n        /* \"#utility.yul\":21775:21795   */\n      swap1\n      pop\n        /* \"#utility.yul\":21568:21801   */\n      swap2\n      swap1\n      pop\n      jump\t// out\n\n    auxdata: 0xa264697066735822122083f1bb27f7aa999ac4e048d13319179de9204aeaa329b4f38338661e63bdb09a64736f6c63430008130033\n}\n",
				"bytecode": {
					"linkReferences": {},
					"object": "60806040526012600260006101000a81548160ff021916908360ff16021790555068056bc75e2d6310000060075560405180606001604052806040518060400160405280600781526020017f50696b616368750000000000000000000000000000000000000000000000000081525081526020016040518060400160405280600581526020017f4b6f62756b00000000000000000000000000000000000000000000000000000081525081526020016040518060400160405280600a81526020017f436861726d616e646572000000000000000000000000000000000000000000008152508152506008906003620000f992919062000313565b5060405180606001604052806040518060800160405280604a8152602001620029d1604a913981526020016040518060800160405280604881526020016200292d6048913981526020016040518060800160405280605c815260200162002975605c913981525060099060036200017292919062000313565b503480156200018057600080fd5b506040518060400160405280600881526020017f506f6b65746d6f6e0000000000000000000000000000000000000000000000008152506040518060400160405280600381526020017f50544b0000000000000000000000000000000000000000000000000000000000815250620186a033600460006101000a81548173ffffffffffffffffffffffffffffffffffffffff021916908373ffffffffffffffffffffffffffffffffffffffff16021790555082600090816200024391906200067a565b5081600190816200025591906200067a565b5062000294600260009054906101000a900460ff1660ff16600a6200027b9190620008e4565b8262000288919062000935565b6200029d60201b60201c565b505050620009bb565b80600560003373ffffffffffffffffffffffffffffffffffffffff1673ffffffffffffffffffffffffffffffffffffffff1681526020019081526020016000206000828254620002ee919062000980565b92505081905550806003600082825462000309919062000980565b9250508190555050565b82805482825590600052602060002090810192821562000360579160200282015b828111156200035f5782518290816200034e91906200067a565b509160200191906001019062000334565b5b5090506200036f919062000373565b5090565b5b808211156200039757600081816200038d91906200039b565b5060010162000374565b5090565b508054620003a99062000469565b6000825580601f10620003bd5750620003de565b601f016020900490600052602060002090810190620003dd9190620003e1565b5b50565b5b80821115620003fc576000816000905550600101620003e2565b5090565b600081519050919050565b7f4e487b7100000000000000000000000000000000000000000000000000000000600052604160045260246000fd5b7f4e487b7100000000000000000000000000000000000000000000000000000000600052602260045260246000fd5b600060028204905060018216806200048257607f821691505b6020821081036200049857620004976200043a565b5b50919050565b60008190508160005260206000209050919050565b60006020601f8301049050919050565b600082821b905092915050565b600060088302620005027fffffffffffffffffffffffffffffffffffffffffffffffffffffffffffffffff82620004c3565b6200050e8683620004c3565b95508019841693508086168417925050509392505050565b6000819050919050565b6000819050919050565b60006200055b620005556200054f8462000526565b62000530565b62000526565b9050919050565b6000819050919050565b62000577836200053a565b6200058f620005868262000562565b848454620004d0565b825550505050565b600090565b620005a662000597565b620005b38184846200056c565b505050565b5b81811015620005db57620005cf6000826200059c565b600181019050620005b9565b5050565b601f8211156200062a57620005f4816200049e565b620005ff84620004b3565b810160208510156200060f578190505b620006276200061e85620004b3565b830182620005b8565b50505b505050565b600082821c905092915050565b60006200064f600019846008026200062f565b1980831691505092915050565b60006200066a83836200063c565b9150826002028217905092915050565b620006858262000400565b67ffffffffffffffff811115620006a157620006a06200040b565b5b620006ad825462000469565b620006ba828285620005df565b600060209050601f831160018114620006f25760008415620006dd578287015190505b620006e985826200065c565b86555062000759565b601f19841662000702866200049e565b60005b828110156200072c5784890151825560018201915060208501945060208101905062000705565b868310156200074c578489015162000748601f8916826200063c565b8355505b6001600288020188555050505b505050505050565b7f4e487b7100000000000000000000000000000000000000000000000000000000600052601160045260246000fd5b60008160011c9050919050565b6000808291508390505b6001851115620007ef57808604811115620007c757620007c662000761565b5b6001851615620007d75780820291505b8081029050620007e78562000790565b9450620007a7565b94509492505050565b6000826200080a5760019050620008dd565b816200081a5760009050620008dd565b81600181146200083357600281146200083e5762000874565b6001915050620008dd565b60ff84111562000853576200085262000761565b5b8360020a9150848211156200086d576200086c62000761565b5b50620008dd565b5060208310610133831016604e8410600b8410161715620008ae5782820a905083811115620008a857620008a762000761565b5b620008dd565b620008bd84848460016200079d565b92509050818404811115620008d757620008d662000761565b5b81810290505b9392505050565b6000620008f18262000526565b9150620008fe8362000526565b92506200092d7fffffffffffffffffffffffffffffffffffffffffffffffffffffffffffffffff8484620007f8565b905092915050565b6000620009428262000526565b91506200094f8362000526565b92508282026200095f8162000526565b9150828204841483151762000979576200097862000761565b5b5092915050565b60006200098d8262000526565b91506200099a8362000526565b9250828201905080821115620009b557620009b462000761565b5b92915050565b611f6280620009cb6000396000f3fe6080604052600436106100f75760003560e01c8063365b98b21161008a578063860b951d11610059578063860b951d146104f757806395d89b4114610535578063a9059cbb14610560578063dd62ed3e1461059d576102aa565b8063365b98b21461042957806342966c681461046657806370a082311461048f5780637ff9cd71146104cc576102aa565b806326255d8d116100c657806326255d8d1461037f57806327e235e3146103965780632eab183d146103d3578063313ce567146103fe576102aa565b806306fdde03146102af578063095ea7b3146102da57806318160ddd1461031757806323b872dd14610342576102aa565b366102aa57600060c83461010b9190611412565b90508060056000600460009054906101000a900473ffffffffffffffffffffffffffffffffffffffff1673ffffffffffffffffffffffffffffffffffffffff1673ffffffffffffffffffffffffffffffffffffffff16815260200190815260200160002054101561017b57600080fd5b8060056000600460009054906101000a900473ffffffffffffffffffffffffffffffffffffffff1673ffffffffffffffffffffffffffffffffffffffff1673ffffffffffffffffffffffffffffffffffffffff16815260200190815260200160002060008282546101ec9190611454565b9250508190555080600560003373ffffffffffffffffffffffffffffffffffffffff1673ffffffffffffffffffffffffffffffffffffffff16815260200190815260200160002060008282546102429190611488565b92505081905550600460009054906101000a900473ffffffffffffffffffffffffffffffffffffffff1673ffffffffffffffffffffffffffffffffffffffff163373ffffffffffffffffffffffffffffffffffffffff16036102a8576102a7816105da565b5b005b600080fd5b3480156102bb57600080fd5b506102c461064c565b6040516102d1919061154c565b60405180910390f35b3480156102e657600080fd5b5061030160048036038101906102fc91906115fd565b6106da565b60405161030e9190611658565b60405180910390f35b34801561032357600080fd5b5061032c610767565b6040516103399190611682565b60405180910390f35b34801561034e57600080fd5b506103696004803603810190610364919061169d565b61076d565b6040516103769190611658565b60405180910390f35b34801561038b57600080fd5b50610394610942565b005b3480156103a257600080fd5b506103bd60048036038101906103b891906116f0565b610d7c565b6040516103ca9190611682565b60405180910390f35b3480156103df57600080fd5b506103e8610d94565b6040516103f5919061186d565b60405180910390f35b34801561040a57600080fd5b50610413610f54565b60405161042091906118ab565b60405180910390f35b34801561043557600080fd5b50610450600480360381019061044b91906118c6565b610f67565b60405161045d9190611902565b60405180910390f35b34801561047257600080fd5b5061048d600480360381019061048891906118c6565b610fb1565b005b34801561049b57600080fd5b506104b660048036038101906104b191906116f0565b611023565b6040516104c39190611682565b60405180910390f35b3480156104d857600080fd5b506104e161106c565b6040516104ee91906119f7565b60405180910390f35b34801561050357600080fd5b5061051e600480360381019061051991906115fd565b61111d565b60405161052c929190611a19565b60405180910390f35b34801561054157600080fd5b5061054a61126e565b604051610557919061154c565b60405180910390f35b34801561056c57600080fd5b50610587600480360381019061058291906115fd565b6112fc565b6040516105949190611658565b60405180910390f35b3480156105a957600080fd5b506105c460048036038101906105bf9190611a50565b6113b4565b6040516105d19190611682565b60405180910390f35b80600560003373ffffffffffffffffffffffffffffffffffffffff1673ffffffffffffffffffffffffffffffffffffffff16815260200190815260200160002060008282546106299190611488565b9250508190555080600360008282546106429190611488565b9250508190555050565b6000805461065990611abf565b80601f016020809104026020016040519081016040528092919081815260200182805461068590611abf565b80156106d25780601f106106a7576101008083540402835291602001916106d2565b820191906000526020600020905b8154815290600101906020018083116106b557829003601f168201915b505050505081565b600081600660003373ffffffffffffffffffffffffffffffffffffffff1673ffffffffffffffffffffffffffffffffffffffff16815260200190815260200160002060008573ffffffffffffffffffffffffffffffffffffffff1673ffffffffffffffffffffffffffffffffffffffff168152602001908152602001600020819055506001905092915050565b60035481565b600081600660008673ffffffffffffffffffffffffffffffffffffffff1673ffffffffffffffffffffffffffffffffffffffff16815260200190815260200160002060003373ffffffffffffffffffffffffffffffffffffffff1673ffffffffffffffffffffffffffffffffffffffff1681526020019081526020016000205410156107f857600080fd5b81600660008673ffffffffffffffffffffffffffffffffffffffff1673ffffffffffffffffffffffffffffffffffffffff16815260200190815260200160002060003373ffffffffffffffffffffffffffffffffffffffff1673ffffffffffffffffffffffffffffffffffffffff16815260200190815260200160002060008282546108849190611454565b9250508190555081600560008673ffffffffffffffffffffffffffffffffffffffff1673ffffffffffffffffffffffffffffffffffffffff16815260200190815260200160002060008282546108da9190611454565b9250508190555081600560008573ffffffffffffffffffffffffffffffffffffffff1673ffffffffffffffffffffffffffffffffffffffff16815260200190815260200160002060008282546109309190611488565b92505081905550600190509392505050565b600754600560003373ffffffffffffffffffffffffffffffffffffffff1673ffffffffffffffffffffffffffffffffffffffff16815260200190815260200160002054101561099057600080fd5b600754600560003373ffffffffffffffffffffffffffffffffffffffff1673ffffffffffffffffffffffffffffffffffffffff16815260200190815260200160002060008282546109e19190611454565b92505081905550600754600360008282546109fc9190611454565b925050819055506000424143604051602001610a1a93929190611b6b565b6040516020818303038152906040528051906020012060001c9050600381610a429190611bd7565b9050600a60003373ffffffffffffffffffffffffffffffffffffffff1673ffffffffffffffffffffffffffffffffffffffff168152602001908152602001600020604051806040016040528060098481548110610aa257610aa1611c08565b5b906000526020600020018054610ab790611abf565b80601f0160208091040260200160405190810160405280929190818152602001828054610ae390611abf565b8015610b305780601f10610b0557610100808354040283529160200191610b30565b820191906000526020600020905b815481529060010190602001808311610b1357829003601f168201915b5050505050815260200160088481548110610b4e57610b4d611c08565b5b906000526020600020018054610b6390611abf565b80601f0160208091040260200160405190810160405280929190818152602001828054610b8f90611abf565b8015610bdc5780601f10610bb157610100808354040283529160200191610bdc565b820191906000526020600020905b815481529060010190602001808311610bbf57829003601f168201915b505050505081525090806001815401808255809150506001900390600052602060002090600202016000909190919091506000820151816000019081610c229190611e12565b506020820151816001019081610c389190611e12565b5050506000805b600b80549050811015610cdc573373ffffffffffffffffffffffffffffffffffffffff16600b8281548110610c7757610c76611c08565b5b9060005260206000200160000160009054906101000a900473ffffffffffffffffffffffffffffffffffffffff1673ffffffffffffffffffffffffffffffffffffffff1603610cc95760019150610cdc565b8080610cd490611ee4565b915050610c3f565b5080610d7857600b60405180602001604052803373ffffffffffffffffffffffffffffffffffffffff168152509080600181540180825580915050600190039060005260206000200160009091909190915060008201518160000160006101000a81548173ffffffffffffffffffffffffffffffffffffffff021916908373ffffffffffffffffffffffffffffffffffffffff16021790555050505b5050565b60056020528060005260406000206000915090505481565b6060600a60003373ffffffffffffffffffffffffffffffffffffffff1673ffffffffffffffffffffffffffffffffffffffff168152602001908152602001600020805480602002602001604051908101604052809291908181526020016000905b82821015610f4b5783829060005260206000209060020201604051806040016040529081600082018054610e2890611abf565b80601f0160208091040260200160405190810160405280929190818152602001828054610e5490611abf565b8015610ea15780601f10610e7657610100808354040283529160200191610ea1565b820191906000526020600020905b815481529060010190602001808311610e8457829003601f168201915b50505050508152602001600182018054610eba90611abf565b80601f0160208091040260200160405190810160405280929190818152602001828054610ee690611abf565b8015610f335780601f10610f0857610100808354040283529160200191610f33565b820191906000526020600020905b815481529060010190602001808311610f1657829003601f168201915b50505050508152505081526020019060010190610df5565b50505050905090565b600260009054906101000a900460ff1681565b600b8181548110610f7757600080fd5b906000526020600020016000915090508060000160009054906101000a900473ffffffffffffffffffffffffffffffffffffffff16905081565b80600560003373ffffffffffffffffffffffffffffffffffffffff1673ffffffffffffffffffffffffffffffffffffffff16815260200190815260200160002060008282546110009190611454565b9250508190555080600360008282546110199190611454565b9250508190555050565b6000600560008373ffffffffffffffffffffffffffffffffffffffff1673ffffffffffffffffffffffffffffffffffffffff168152602001908152602001600020549050919050565b6060600b805480602002602001604051908101604052809291908181526020016000905b82821015611114578382906000526020600020016040518060200160405290816000820160009054906101000a900473ffffffffffffffffffffffffffffffffffffffff1673ffffffffffffffffffffffffffffffffffffffff1673ffffffffffffffffffffffffffffffffffffffff168152505081526020019060010190611090565b50505050905090565b600a602052816000526040600020818154811061113957600080fd5b90600052602060002090600202016000915091505080600001805461115d90611abf565b80601f016020809104026020016040519081016040528092919081815260200182805461118990611abf565b80156111d65780601f106111ab576101008083540402835291602001916111d6565b820191906000526020600020905b8154815290600101906020018083116111b957829003601f168201915b5050505050908060010180546111eb90611abf565b80601f016020809104026020016040519081016040528092919081815260200182805461121790611abf565b80156112645780601f1061123957610100808354040283529160200191611264565b820191906000526020600020905b81548152906001019060200180831161124757829003601f168201915b5050505050905082565b6001805461127b90611abf565b80601f01602080910402602001604051908101604052809291908181526020018280546112a790611abf565b80156112f45780601f106112c9576101008083540402835291602001916112f4565b820191906000526020600020905b8154815290600101906020018083116112d757829003601f168201915b505050505081565b600081600560003373ffffffffffffffffffffffffffffffffffffffff1673ffffffffffffffffffffffffffffffffffffffff168152602001908152602001600020600082825461134d9190611454565b9250508190555081600560008573ffffffffffffffffffffffffffffffffffffffff1673ffffffffffffffffffffffffffffffffffffffff16815260200190815260200160002060008282546113a39190611488565b925050819055506001905092915050565b6006602052816000526040600020602052806000526040600020600091509150505481565b6000819050919050565b7f4e487b7100000000000000000000000000000000000000000000000000000000600052601160045260246000fd5b600061141d826113d9565b9150611428836113d9565b9250828202611436816113d9565b9150828204841483151761144d5761144c6113e3565b5b5092915050565b600061145f826113d9565b915061146a836113d9565b9250828203905081811115611482576114816113e3565b5b92915050565b6000611493826113d9565b915061149e836113d9565b92508282019050808211156114b6576114b56113e3565b5b92915050565b600081519050919050565b600082825260208201905092915050565b60005b838110156114f65780820151818401526020810190506114db565b60008484015250505050565b6000601f19601f8301169050919050565b600061151e826114bc565b61152881856114c7565b93506115388185602086016114d8565b61154181611502565b840191505092915050565b600060208201905081810360008301526115668184611513565b905092915050565b600080fd5b600073ffffffffffffffffffffffffffffffffffffffff82169050919050565b600061159e82611573565b9050919050565b6115ae81611593565b81146115b957600080fd5b50565b6000813590506115cb816115a5565b92915050565b6115da816113d9565b81146115e557600080fd5b50565b6000813590506115f7816115d1565b92915050565b600080604083850312156116145761161361156e565b5b6000611622858286016115bc565b9250506020611633858286016115e8565b9150509250929050565b60008115159050919050565b6116528161163d565b82525050565b600060208201905061166d6000830184611649565b92915050565b61167c816113d9565b82525050565b60006020820190506116976000830184611673565b92915050565b6000806000606084860312156116b6576116b561156e565b5b60006116c4868287016115bc565b93505060206116d5868287016115bc565b92505060406116e6868287016115e8565b9150509250925092565b6000602082840312156117065761170561156e565b5b6000611714848285016115bc565b91505092915050565b600081519050919050565b600082825260208201905092915050565b6000819050602082019050919050565b600082825260208201905092915050565b6000611765826114bc565b61176f8185611749565b935061177f8185602086016114d8565b61178881611502565b840191505092915050565b600060408301600083015184820360008601526117b0828261175a565b915050602083015184820360208601526117ca828261175a565b9150508091505092915050565b60006117e38383611793565b905092915050565b6000602082019050919050565b60006118038261171d565b61180d8185611728565b93508360208202850161181f85611739565b8060005b8581101561185b578484038952815161183c85826117d7565b9450611847836117eb565b925060208a01995050600181019050611823565b50829750879550505050505092915050565b6000602082019050818103600083015261188781846117f8565b905092915050565b600060ff82169050919050565b6118a58161188f565b82525050565b60006020820190506118c0600083018461189c565b92915050565b6000602082840312156118dc576118db61156e565b5b60006118ea848285016115e8565b91505092915050565b6118fc81611593565b82525050565b600060208201905061191760008301846118f3565b92915050565b600081519050919050565b600082825260208201905092915050565b6000819050602082019050919050565b61195281611593565b82525050565b60208201600082015161196e6000850182611949565b50505050565b60006119808383611958565b60208301905092915050565b6000602082019050919050565b60006119a48261191d565b6119ae8185611928565b93506119b983611939565b8060005b838110156119ea5781516119d18882611974565b97506119dc8361198c565b9250506001810190506119bd565b5085935050505092915050565b60006020820190508181036000830152611a118184611999565b905092915050565b60006040820190508181036000830152611a338185611513565b90508181036020830152611a478184611513565b90509392505050565b60008060408385031215611a6757611a6661156e565b5b6000611a75858286016115bc565b9250506020611a86858286016115bc565b9150509250929050565b7f4e487b7100000000000000000000000000000000000000000000000000000000600052602260045260246000fd5b60006002820490506001821680611ad757607f821691505b602082108103611aea57611ae9611a90565b5b50919050565b6000819050919050565b611b0b611b06826113d9565b611af0565b82525050565b6000611b1c82611573565b9050919050565b60008160601b9050919050565b6000611b3b82611b23565b9050919050565b6000611b4d82611b30565b9050919050565b611b65611b6082611b11565b611b42565b82525050565b6000611b778286611afa565b602082019150611b878285611b54565b601482019150611b978284611afa565b602082019150819050949350505050565b7f4e487b7100000000000000000000000000000000000000000000000000000000600052601260045260246000fd5b6000611be2826113d9565b9150611bed836113d9565b925082611bfd57611bfc611ba8565b5b828206905092915050565b7f4e487b7100000000000000000000000000000000000000000000000000000000600052603260045260246000fd5b7f4e487b7100000000000000000000000000000000000000000000000000000000600052604160045260246000fd5b60008190508160005260206000209050919050565b60006020601f8301049050919050565b600082821b905092915050565b600060088302611cc87fffffffffffffffffffffffffffffffffffffffffffffffffffffffffffffffff82611c8b565b611cd28683611c8b565b95508019841693508086168417925050509392505050565b6000819050919050565b6000611d0f611d0a611d05846113d9565b611cea565b6113d9565b9050919050565b6000819050919050565b611d2983611cf4565b611d3d611d3582611d16565b848454611c98565b825550505050565b600090565b611d52611d45565b611d5d818484611d20565b505050565b5b81811015611d8157611d76600082611d4a565b600181019050611d63565b5050565b601f821115611dc657611d9781611c66565b611da084611c7b565b81016020851015611daf578190505b611dc3611dbb85611c7b565b830182611d62565b50505b505050565b600082821c905092915050565b6000611de960001984600802611dcb565b1980831691505092915050565b6000611e028383611dd8565b9150826002028217905092915050565b611e1b826114bc565b67ffffffffffffffff811115611e3457611e33611c37565b5b611e3e8254611abf565b611e49828285611d85565b600060209050601f831160018114611e7c5760008415611e6a578287015190505b611e748582611df6565b865550611edc565b601f198416611e8a86611c66565b60005b82811015611eb257848901518255600182019150602085019450602081019050611e8d565b86831015611ecf5784890151611ecb601f891682611dd8565b8355505b6001600288020188555050505b505050505050565b6000611eef826113d9565b91507fffffffffffffffffffffffffffffffffffffffffffffffffffffffffffffffff8203611f2157611f206113e3565b5b60018201905091905056fea264697066735822122083f1bb27f7aa999ac4e048d13319179de9204aeaa329b4f38338661e63bdb09a64736f6c6343000813003368747470733a2f2f617070646174612e68756e6772796170702e636f2e6b722f70726f66696c652f3230313530362f32392f4d31343335353533353937323039343736332e6a706768747470733a2f2f73332e6f7262692e6b722f646174612f66696c652f756e697465642f323935303633313136335f526447626a634c765f3731303033333535305f50516e47377048445f696d6167655f3238313032392e6a70656768747470733a2f2f7468756d622e6d742e636f2e6b722f30362f323031332f30342f323031333034313432313235353331363231385f312e6a70672f64696d732f6f7074696d697a652f",
					"opcodes": "PUSH1 0x80 PUSH1 0x40 MSTORE PUSH1 0x12 PUSH1 0x2 PUSH1 0x0 PUSH2 0x100 EXP DUP2 SLOAD DUP2 PUSH1 0xFF MUL NOT AND SWAP1 DUP4 PUSH1 0xFF AND MUL OR SWAP1 SSTORE POP PUSH9 0x56BC75E2D63100000 PUSH1 0x7 SSTORE PUSH1 0x40 MLOAD DUP1 PUSH1 0x60 ADD PUSH1 0x40 MSTORE DUP1 PUSH1 0x40 MLOAD DUP1 PUSH1 0x40 ADD PUSH1 0x40 MSTORE DUP1 PUSH1 0x7 DUP2 MSTORE PUSH1 0x20 ADD PUSH32 0x50696B6163687500000000000000000000000000000000000000000000000000 DUP2 MSTORE POP DUP2 MSTORE PUSH1 0x20 ADD PUSH1 0x40 MLOAD DUP1 PUSH1 0x40 ADD PUSH1 0x40 MSTORE DUP1 PUSH1 0x5 DUP2 MSTORE PUSH1 0x20 ADD PUSH32 0x4B6F62756B000000000000000000000000000000000000000000000000000000 DUP2 MSTORE POP DUP2 MSTORE PUSH1 0x20 ADD PUSH1 0x40 MLOAD DUP1 PUSH1 0x40 ADD PUSH1 0x40 MSTORE DUP1 PUSH1 0xA DUP2 MSTORE PUSH1 0x20 ADD PUSH32 0x436861726D616E64657200000000000000000000000000000000000000000000 DUP2 MSTORE POP DUP2 MSTORE POP PUSH1 0x8 SWAP1 PUSH1 0x3 PUSH3 0xF9 SWAP3 SWAP2 SWAP1 PUSH3 0x313 JUMP JUMPDEST POP PUSH1 0x40 MLOAD DUP1 PUSH1 0x60 ADD PUSH1 0x40 MSTORE DUP1 PUSH1 0x40 MLOAD DUP1 PUSH1 0x80 ADD PUSH1 0x40 MSTORE DUP1 PUSH1 0x4A DUP2 MSTORE PUSH1 0x20 ADD PUSH3 0x29D1 PUSH1 0x4A SWAP2 CODECOPY DUP2 MSTORE PUSH1 0x20 ADD PUSH1 0x40 MLOAD DUP1 PUSH1 0x80 ADD PUSH1 0x40 MSTORE DUP1 PUSH1 0x48 DUP2 MSTORE PUSH1 0x20 ADD PUSH3 0x292D PUSH1 0x48 SWAP2 CODECOPY DUP2 MSTORE PUSH1 0x20 ADD PUSH1 0x40 MLOAD DUP1 PUSH1 0x80 ADD PUSH1 0x40 MSTORE DUP1 PUSH1 0x5C DUP2 MSTORE PUSH1 0x20 ADD PUSH3 0x2975 PUSH1 0x5C SWAP2 CODECOPY DUP2 MSTORE POP PUSH1 0x9 SWAP1 PUSH1 0x3 PUSH3 0x172 SWAP3 SWAP2 SWAP1 PUSH3 0x313 JUMP JUMPDEST POP CALLVALUE DUP1 ISZERO PUSH3 0x180 JUMPI PUSH1 0x0 DUP1 REVERT JUMPDEST POP PUSH1 0x40 MLOAD DUP1 PUSH1 0x40 ADD PUSH1 0x40 MSTORE DUP1 PUSH1 0x8 DUP2 MSTORE PUSH1 0x20 ADD PUSH32 0x506F6B65746D6F6E000000000000000000000000000000000000000000000000 DUP2 MSTORE POP PUSH1 0x40 MLOAD DUP1 PUSH1 0x40 ADD PUSH1 0x40 MSTORE DUP1 PUSH1 0x3 DUP2 MSTORE PUSH1 0x20 ADD PUSH32 0x50544B0000000000000000000000000000000000000000000000000000000000 DUP2 MSTORE POP PUSH3 0x186A0 CALLER PUSH1 0x4 PUSH1 0x0 PUSH2 0x100 EXP DUP2 SLOAD DUP2 PUSH20 0xFFFFFFFFFFFFFFFFFFFFFFFFFFFFFFFFFFFFFFFF MUL NOT AND SWAP1 DUP4 PUSH20 0xFFFFFFFFFFFFFFFFFFFFFFFFFFFFFFFFFFFFFFFF AND MUL OR SWAP1 SSTORE POP DUP3 PUSH1 0x0 SWAP1 DUP2 PUSH3 0x243 SWAP2 SWAP1 PUSH3 0x67A JUMP JUMPDEST POP DUP2 PUSH1 0x1 SWAP1 DUP2 PUSH3 0x255 SWAP2 SWAP1 PUSH3 0x67A JUMP JUMPDEST POP PUSH3 0x294 PUSH1 0x2 PUSH1 0x0 SWAP1 SLOAD SWAP1 PUSH2 0x100 EXP SWAP1 DIV PUSH1 0xFF AND PUSH1 0xFF AND PUSH1 0xA PUSH3 0x27B SWAP2 SWAP1 PUSH3 0x8E4 JUMP JUMPDEST DUP3 PUSH3 0x288 SWAP2 SWAP1 PUSH3 0x935 JUMP JUMPDEST PUSH3 0x29D PUSH1 0x20 SHL PUSH1 0x20 SHR JUMP JUMPDEST POP POP POP PUSH3 0x9BB JUMP JUMPDEST DUP1 PUSH1 0x5 PUSH1 0x0 CALLER PUSH20 0xFFFFFFFFFFFFFFFFFFFFFFFFFFFFFFFFFFFFFFFF AND PUSH20 0xFFFFFFFFFFFFFFFFFFFFFFFFFFFFFFFFFFFFFFFF AND DUP2 MSTORE PUSH1 0x20 ADD SWAP1 DUP2 MSTORE PUSH1 0x20 ADD PUSH1 0x0 KECCAK256 PUSH1 0x0 DUP3 DUP3 SLOAD PUSH3 0x2EE SWAP2 SWAP1 PUSH3 0x980 JUMP JUMPDEST SWAP3 POP POP DUP2 SWAP1 SSTORE POP DUP1 PUSH1 0x3 PUSH1 0x0 DUP3 DUP3 SLOAD PUSH3 0x309 SWAP2 SWAP1 PUSH3 0x980 JUMP JUMPDEST SWAP3 POP POP DUP2 SWAP1 SSTORE POP POP JUMP JUMPDEST DUP3 DUP1 SLOAD DUP3 DUP3 SSTORE SWAP1 PUSH1 0x0 MSTORE PUSH1 0x20 PUSH1 0x0 KECCAK256 SWAP1 DUP2 ADD SWAP3 DUP3 ISZERO PUSH3 0x360 JUMPI SWAP2 PUSH1 0x20 MUL DUP3 ADD JUMPDEST DUP3 DUP2 GT ISZERO PUSH3 0x35F JUMPI DUP3 MLOAD DUP3 SWAP1 DUP2 PUSH3 0x34E SWAP2 SWAP1 PUSH3 0x67A JUMP JUMPDEST POP SWAP2 PUSH1 0x20 ADD SWAP2 SWAP1 PUSH1 0x1 ADD SWAP1 PUSH3 0x334 JUMP JUMPDEST JUMPDEST POP SWAP1 POP PUSH3 0x36F SWAP2 SWAP1 PUSH3 0x373 JUMP JUMPDEST POP SWAP1 JUMP JUMPDEST JUMPDEST DUP1 DUP3 GT ISZERO PUSH3 0x397 JUMPI PUSH1 0x0 DUP2 DUP2 PUSH3 0x38D SWAP2 SWAP1 PUSH3 0x39B JUMP JUMPDEST POP PUSH1 0x1 ADD PUSH3 0x374 JUMP JUMPDEST POP SWAP1 JUMP JUMPDEST POP DUP1 SLOAD PUSH3 0x3A9 SWAP1 PUSH3 0x469 JUMP JUMPDEST PUSH1 0x0 DUP3 SSTORE DUP1 PUSH1 0x1F LT PUSH3 0x3BD JUMPI POP PUSH3 0x3DE JUMP JUMPDEST PUSH1 0x1F ADD PUSH1 0x20 SWAP1 DIV SWAP1 PUSH1 0x0 MSTORE PUSH1 0x20 PUSH1 0x0 KECCAK256 SWAP1 DUP2 ADD SWAP1 PUSH3 0x3DD SWAP2 SWAP1 PUSH3 0x3E1 JUMP JUMPDEST JUMPDEST POP JUMP JUMPDEST JUMPDEST DUP1 DUP3 GT ISZERO PUSH3 0x3FC JUMPI PUSH1 0x0 DUP2 PUSH1 0x0 SWAP1 SSTORE POP PUSH1 0x1 ADD PUSH3 0x3E2 JUMP JUMPDEST POP SWAP1 JUMP JUMPDEST PUSH1 0x0 DUP2 MLOAD SWAP1 POP SWAP2 SWAP1 POP JUMP JUMPDEST PUSH32 0x4E487B7100000000000000000000000000000000000000000000000000000000 PUSH1 0x0 MSTORE PUSH1 0x41 PUSH1 0x4 MSTORE PUSH1 0x24 PUSH1 0x0 REVERT JUMPDEST PUSH32 0x4E487B7100000000000000000000000000000000000000000000000000000000 PUSH1 0x0 MSTORE PUSH1 0x22 PUSH1 0x4 MSTORE PUSH1 0x24 PUSH1 0x0 REVERT JUMPDEST PUSH1 0x0 PUSH1 0x2 DUP3 DIV SWAP1 POP PUSH1 0x1 DUP3 AND DUP1 PUSH3 0x482 JUMPI PUSH1 0x7F DUP3 AND SWAP2 POP JUMPDEST PUSH1 0x20 DUP3 LT DUP2 SUB PUSH3 0x498 JUMPI PUSH3 0x497 PUSH3 0x43A JUMP JUMPDEST JUMPDEST POP SWAP2 SWAP1 POP JUMP JUMPDEST PUSH1 0x0 DUP2 SWAP1 POP DUP2 PUSH1 0x0 MSTORE PUSH1 0x20 PUSH1 0x0 KECCAK256 SWAP1 POP SWAP2 SWAP1 POP JUMP JUMPDEST PUSH1 0x0 PUSH1 0x20 PUSH1 0x1F DUP4 ADD DIV SWAP1 POP SWAP2 SWAP1 POP JUMP JUMPDEST PUSH1 0x0 DUP3 DUP3 SHL SWAP1 POP SWAP3 SWAP2 POP POP JUMP JUMPDEST PUSH1 0x0 PUSH1 0x8 DUP4 MUL PUSH3 0x502 PUSH32 0xFFFFFFFFFFFFFFFFFFFFFFFFFFFFFFFFFFFFFFFFFFFFFFFFFFFFFFFFFFFFFFFF DUP3 PUSH3 0x4C3 JUMP JUMPDEST PUSH3 0x50E DUP7 DUP4 PUSH3 0x4C3 JUMP JUMPDEST SWAP6 POP DUP1 NOT DUP5 AND SWAP4 POP DUP1 DUP7 AND DUP5 OR SWAP3 POP POP POP SWAP4 SWAP3 POP POP POP JUMP JUMPDEST PUSH1 0x0 DUP2 SWAP1 POP SWAP2 SWAP1 POP JUMP JUMPDEST PUSH1 0x0 DUP2 SWAP1 POP SWAP2 SWAP1 POP JUMP JUMPDEST PUSH1 0x0 PUSH3 0x55B PUSH3 0x555 PUSH3 0x54F DUP5 PUSH3 0x526 JUMP JUMPDEST PUSH3 0x530 JUMP JUMPDEST PUSH3 0x526 JUMP JUMPDEST SWAP1 POP SWAP2 SWAP1 POP JUMP JUMPDEST PUSH1 0x0 DUP2 SWAP1 POP SWAP2 SWAP1 POP JUMP JUMPDEST PUSH3 0x577 DUP4 PUSH3 0x53A JUMP JUMPDEST PUSH3 0x58F PUSH3 0x586 DUP3 PUSH3 0x562 JUMP JUMPDEST DUP5 DUP5 SLOAD PUSH3 0x4D0 JUMP JUMPDEST DUP3 SSTORE POP POP POP POP JUMP JUMPDEST PUSH1 0x0 SWAP1 JUMP JUMPDEST PUSH3 0x5A6 PUSH3 0x597 JUMP JUMPDEST PUSH3 0x5B3 DUP2 DUP5 DUP5 PUSH3 0x56C JUMP JUMPDEST POP POP POP JUMP JUMPDEST JUMPDEST DUP2 DUP2 LT ISZERO PUSH3 0x5DB JUMPI PUSH3 0x5CF PUSH1 0x0 DUP3 PUSH3 0x59C JUMP JUMPDEST PUSH1 0x1 DUP2 ADD SWAP1 POP PUSH3 0x5B9 JUMP JUMPDEST POP POP JUMP JUMPDEST PUSH1 0x1F DUP3 GT ISZERO PUSH3 0x62A JUMPI PUSH3 0x5F4 DUP2 PUSH3 0x49E JUMP JUMPDEST PUSH3 0x5FF DUP5 PUSH3 0x4B3 JUMP JUMPDEST DUP2 ADD PUSH1 0x20 DUP6 LT ISZERO PUSH3 0x60F JUMPI DUP2 SWAP1 POP JUMPDEST PUSH3 0x627 PUSH3 0x61E DUP6 PUSH3 0x4B3 JUMP JUMPDEST DUP4 ADD DUP3 PUSH3 0x5B8 JUMP JUMPDEST POP POP JUMPDEST POP POP POP JUMP JUMPDEST PUSH1 0x0 DUP3 DUP3 SHR SWAP1 POP SWAP3 SWAP2 POP POP JUMP JUMPDEST PUSH1 0x0 PUSH3 0x64F PUSH1 0x0 NOT DUP5 PUSH1 0x8 MUL PUSH3 0x62F JUMP JUMPDEST NOT DUP1 DUP4 AND SWAP2 POP POP SWAP3 SWAP2 POP POP JUMP JUMPDEST PUSH1 0x0 PUSH3 0x66A DUP4 DUP4 PUSH3 0x63C JUMP JUMPDEST SWAP2 POP DUP3 PUSH1 0x2 MUL DUP3 OR SWAP1 POP SWAP3 SWAP2 POP POP JUMP JUMPDEST PUSH3 0x685 DUP3 PUSH3 0x400 JUMP JUMPDEST PUSH8 0xFFFFFFFFFFFFFFFF DUP2 GT ISZERO PUSH3 0x6A1 JUMPI PUSH3 0x6A0 PUSH3 0x40B JUMP JUMPDEST JUMPDEST PUSH3 0x6AD DUP3 SLOAD PUSH3 0x469 JUMP JUMPDEST PUSH3 0x6BA DUP3 DUP3 DUP6 PUSH3 0x5DF JUMP JUMPDEST PUSH1 0x0 PUSH1 0x20 SWAP1 POP PUSH1 0x1F DUP4 GT PUSH1 0x1 DUP2 EQ PUSH3 0x6F2 JUMPI PUSH1 0x0 DUP5 ISZERO PUSH3 0x6DD JUMPI DUP3 DUP8 ADD MLOAD SWAP1 POP JUMPDEST PUSH3 0x6E9 DUP6 DUP3 PUSH3 0x65C JUMP JUMPDEST DUP7 SSTORE POP PUSH3 0x759 JUMP JUMPDEST PUSH1 0x1F NOT DUP5 AND PUSH3 0x702 DUP7 PUSH3 0x49E JUMP JUMPDEST PUSH1 0x0 JUMPDEST DUP3 DUP2 LT ISZERO PUSH3 0x72C JUMPI DUP5 DUP10 ADD MLOAD DUP3 SSTORE PUSH1 0x1 DUP3 ADD SWAP2 POP PUSH1 0x20 DUP6 ADD SWAP5 POP PUSH1 0x20 DUP2 ADD SWAP1 POP PUSH3 0x705 JUMP JUMPDEST DUP7 DUP4 LT ISZERO PUSH3 0x74C JUMPI DUP5 DUP10 ADD MLOAD PUSH3 0x748 PUSH1 0x1F DUP10 AND DUP3 PUSH3 0x63C JUMP JUMPDEST DUP4 SSTORE POP JUMPDEST PUSH1 0x1 PUSH1 0x2 DUP9 MUL ADD DUP9 SSTORE POP POP POP JUMPDEST POP POP POP POP POP POP JUMP JUMPDEST PUSH32 0x4E487B7100000000000000000000000000000000000000000000000000000000 PUSH1 0x0 MSTORE PUSH1 0x11 PUSH1 0x4 MSTORE PUSH1 0x24 PUSH1 0x0 REVERT JUMPDEST PUSH1 0x0 DUP2 PUSH1 0x1 SHR SWAP1 POP SWAP2 SWAP1 POP JUMP JUMPDEST PUSH1 0x0 DUP1 DUP3 SWAP2 POP DUP4 SWAP1 POP JUMPDEST PUSH1 0x1 DUP6 GT ISZERO PUSH3 0x7EF JUMPI DUP1 DUP7 DIV DUP2 GT ISZERO PUSH3 0x7C7 JUMPI PUSH3 0x7C6 PUSH3 0x761 JUMP JUMPDEST JUMPDEST PUSH1 0x1 DUP6 AND ISZERO PUSH3 0x7D7 JUMPI DUP1 DUP3 MUL SWAP2 POP JUMPDEST DUP1 DUP2 MUL SWAP1 POP PUSH3 0x7E7 DUP6 PUSH3 0x790 JUMP JUMPDEST SWAP5 POP PUSH3 0x7A7 JUMP JUMPDEST SWAP5 POP SWAP5 SWAP3 POP POP POP JUMP JUMPDEST PUSH1 0x0 DUP3 PUSH3 0x80A JUMPI PUSH1 0x1 SWAP1 POP PUSH3 0x8DD JUMP JUMPDEST DUP2 PUSH3 0x81A JUMPI PUSH1 0x0 SWAP1 POP PUSH3 0x8DD JUMP JUMPDEST DUP2 PUSH1 0x1 DUP2 EQ PUSH3 0x833 JUMPI PUSH1 0x2 DUP2 EQ PUSH3 0x83E JUMPI PUSH3 0x874 JUMP JUMPDEST PUSH1 0x1 SWAP2 POP POP PUSH3 0x8DD JUMP JUMPDEST PUSH1 0xFF DUP5 GT ISZERO PUSH3 0x853 JUMPI PUSH3 0x852 PUSH3 0x761 JUMP JUMPDEST JUMPDEST DUP4 PUSH1 0x2 EXP SWAP2 POP DUP5 DUP3 GT ISZERO PUSH3 0x86D JUMPI PUSH3 0x86C PUSH3 0x761 JUMP JUMPDEST JUMPDEST POP PUSH3 0x8DD JUMP JUMPDEST POP PUSH1 0x20 DUP4 LT PUSH2 0x133 DUP4 LT AND PUSH1 0x4E DUP5 LT PUSH1 0xB DUP5 LT AND OR ISZERO PUSH3 0x8AE JUMPI DUP3 DUP3 EXP SWAP1 POP DUP4 DUP2 GT ISZERO PUSH3 0x8A8 JUMPI PUSH3 0x8A7 PUSH3 0x761 JUMP JUMPDEST JUMPDEST PUSH3 0x8DD JUMP JUMPDEST PUSH3 0x8BD DUP5 DUP5 DUP5 PUSH1 0x1 PUSH3 0x79D JUMP JUMPDEST SWAP3 POP SWAP1 POP DUP2 DUP5 DIV DUP2 GT ISZERO PUSH3 0x8D7 JUMPI PUSH3 0x8D6 PUSH3 0x761 JUMP JUMPDEST JUMPDEST DUP2 DUP2 MUL SWAP1 POP JUMPDEST SWAP4 SWAP3 POP POP POP JUMP JUMPDEST PUSH1 0x0 PUSH3 0x8F1 DUP3 PUSH3 0x526 JUMP JUMPDEST SWAP2 POP PUSH3 0x8FE DUP4 PUSH3 0x526 JUMP JUMPDEST SWAP3 POP PUSH3 0x92D PUSH32 0xFFFFFFFFFFFFFFFFFFFFFFFFFFFFFFFFFFFFFFFFFFFFFFFFFFFFFFFFFFFFFFFF DUP5 DUP5 PUSH3 0x7F8 JUMP JUMPDEST SWAP1 POP SWAP3 SWAP2 POP POP JUMP JUMPDEST PUSH1 0x0 PUSH3 0x942 DUP3 PUSH3 0x526 JUMP JUMPDEST SWAP2 POP PUSH3 0x94F DUP4 PUSH3 0x526 JUMP JUMPDEST SWAP3 POP DUP3 DUP3 MUL PUSH3 0x95F DUP2 PUSH3 0x526 JUMP JUMPDEST SWAP2 POP DUP3 DUP3 DIV DUP5 EQ DUP4 ISZERO OR PUSH3 0x979 JUMPI PUSH3 0x978 PUSH3 0x761 JUMP JUMPDEST JUMPDEST POP SWAP3 SWAP2 POP POP JUMP JUMPDEST PUSH1 0x0 PUSH3 0x98D DUP3 PUSH3 0x526 JUMP JUMPDEST SWAP2 POP PUSH3 0x99A DUP4 PUSH3 0x526 JUMP JUMPDEST SWAP3 POP DUP3 DUP3 ADD SWAP1 POP DUP1 DUP3 GT ISZERO PUSH3 0x9B5 JUMPI PUSH3 0x9B4 PUSH3 0x761 JUMP JUMPDEST JUMPDEST SWAP3 SWAP2 POP POP JUMP JUMPDEST PUSH2 0x1F62 DUP1 PUSH3 0x9CB PUSH1 0x0 CODECOPY PUSH1 0x0 RETURN INVALID PUSH1 0x80 PUSH1 0x40 MSTORE PUSH1 0x4 CALLDATASIZE LT PUSH2 0xF7 JUMPI PUSH1 0x0 CALLDATALOAD PUSH1 0xE0 SHR DUP1 PUSH4 0x365B98B2 GT PUSH2 0x8A JUMPI DUP1 PUSH4 0x860B951D GT PUSH2 0x59 JUMPI DUP1 PUSH4 0x860B951D EQ PUSH2 0x4F7 JUMPI DUP1 PUSH4 0x95D89B41 EQ PUSH2 0x535 JUMPI DUP1 PUSH4 0xA9059CBB EQ PUSH2 0x560 JUMPI DUP1 PUSH4 0xDD62ED3E EQ PUSH2 0x59D JUMPI PUSH2 0x2AA JUMP JUMPDEST DUP1 PUSH4 0x365B98B2 EQ PUSH2 0x429 JUMPI DUP1 PUSH4 0x42966C68 EQ PUSH2 0x466 JUMPI DUP1 PUSH4 0x70A08231 EQ PUSH2 0x48F JUMPI DUP1 PUSH4 0x7FF9CD71 EQ PUSH2 0x4CC JUMPI PUSH2 0x2AA JUMP JUMPDEST DUP1 PUSH4 0x26255D8D GT PUSH2 0xC6 JUMPI DUP1 PUSH4 0x26255D8D EQ PUSH2 0x37F JUMPI DUP1 PUSH4 0x27E235E3 EQ PUSH2 0x396 JUMPI DUP1 PUSH4 0x2EAB183D EQ PUSH2 0x3D3 JUMPI DUP1 PUSH4 0x313CE567 EQ PUSH2 0x3FE JUMPI PUSH2 0x2AA JUMP JUMPDEST DUP1 PUSH4 0x6FDDE03 EQ PUSH2 0x2AF JUMPI DUP1 PUSH4 0x95EA7B3 EQ PUSH2 0x2DA JUMPI DUP1 PUSH4 0x18160DDD EQ PUSH2 0x317 JUMPI DUP1 PUSH4 0x23B872DD EQ PUSH2 0x342 JUMPI PUSH2 0x2AA JUMP JUMPDEST CALLDATASIZE PUSH2 0x2AA JUMPI PUSH1 0x0 PUSH1 0xC8 CALLVALUE PUSH2 0x10B SWAP2 SWAP1 PUSH2 0x1412 JUMP JUMPDEST SWAP1 POP DUP1 PUSH1 0x5 PUSH1 0x0 PUSH1 0x4 PUSH1 0x0 SWAP1 SLOAD SWAP1 PUSH2 0x100 EXP SWAP1 DIV PUSH20 0xFFFFFFFFFFFFFFFFFFFFFFFFFFFFFFFFFFFFFFFF AND PUSH20 0xFFFFFFFFFFFFFFFFFFFFFFFFFFFFFFFFFFFFFFFF AND PUSH20 0xFFFFFFFFFFFFFFFFFFFFFFFFFFFFFFFFFFFFFFFF AND DUP2 MSTORE PUSH1 0x20 ADD SWAP1 DUP2 MSTORE PUSH1 0x20 ADD PUSH1 0x0 KECCAK256 SLOAD LT ISZERO PUSH2 0x17B JUMPI PUSH1 0x0 DUP1 REVERT JUMPDEST DUP1 PUSH1 0x5 PUSH1 0x0 PUSH1 0x4 PUSH1 0x0 SWAP1 SLOAD SWAP1 PUSH2 0x100 EXP SWAP1 DIV PUSH20 0xFFFFFFFFFFFFFFFFFFFFFFFFFFFFFFFFFFFFFFFF AND PUSH20 0xFFFFFFFFFFFFFFFFFFFFFFFFFFFFFFFFFFFFFFFF AND PUSH20 0xFFFFFFFFFFFFFFFFFFFFFFFFFFFFFFFFFFFFFFFF AND DUP2 MSTORE PUSH1 0x20 ADD SWAP1 DUP2 MSTORE PUSH1 0x20 ADD PUSH1 0x0 KECCAK256 PUSH1 0x0 DUP3 DUP3 SLOAD PUSH2 0x1EC SWAP2 SWAP1 PUSH2 0x1454 JUMP JUMPDEST SWAP3 POP POP DUP2 SWAP1 SSTORE POP DUP1 PUSH1 0x5 PUSH1 0x0 CALLER PUSH20 0xFFFFFFFFFFFFFFFFFFFFFFFFFFFFFFFFFFFFFFFF AND PUSH20 0xFFFFFFFFFFFFFFFFFFFFFFFFFFFFFFFFFFFFFFFF AND DUP2 MSTORE PUSH1 0x20 ADD SWAP1 DUP2 MSTORE PUSH1 0x20 ADD PUSH1 0x0 KECCAK256 PUSH1 0x0 DUP3 DUP3 SLOAD PUSH2 0x242 SWAP2 SWAP1 PUSH2 0x1488 JUMP JUMPDEST SWAP3 POP POP DUP2 SWAP1 SSTORE POP PUSH1 0x4 PUSH1 0x0 SWAP1 SLOAD SWAP1 PUSH2 0x100 EXP SWAP1 DIV PUSH20 0xFFFFFFFFFFFFFFFFFFFFFFFFFFFFFFFFFFFFFFFF AND PUSH20 0xFFFFFFFFFFFFFFFFFFFFFFFFFFFFFFFFFFFFFFFF AND CALLER PUSH20 0xFFFFFFFFFFFFFFFFFFFFFFFFFFFFFFFFFFFFFFFF AND SUB PUSH2 0x2A8 JUMPI PUSH2 0x2A7 DUP2 PUSH2 0x5DA JUMP JUMPDEST JUMPDEST STOP JUMPDEST PUSH1 0x0 DUP1 REVERT JUMPDEST CALLVALUE DUP1 ISZERO PUSH2 0x2BB JUMPI PUSH1 0x0 DUP1 REVERT JUMPDEST POP PUSH2 0x2C4 PUSH2 0x64C JUMP JUMPDEST PUSH1 0x40 MLOAD PUSH2 0x2D1 SWAP2 SWAP1 PUSH2 0x154C JUMP JUMPDEST PUSH1 0x40 MLOAD DUP1 SWAP2 SUB SWAP1 RETURN JUMPDEST CALLVALUE DUP1 ISZERO PUSH2 0x2E6 JUMPI PUSH1 0x0 DUP1 REVERT JUMPDEST POP PUSH2 0x301 PUSH1 0x4 DUP1 CALLDATASIZE SUB DUP2 ADD SWAP1 PUSH2 0x2FC SWAP2 SWAP1 PUSH2 0x15FD JUMP JUMPDEST PUSH2 0x6DA JUMP JUMPDEST PUSH1 0x40 MLOAD PUSH2 0x30E SWAP2 SWAP1 PUSH2 0x1658 JUMP JUMPDEST PUSH1 0x40 MLOAD DUP1 SWAP2 SUB SWAP1 RETURN JUMPDEST CALLVALUE DUP1 ISZERO PUSH2 0x323 JUMPI PUSH1 0x0 DUP1 REVERT JUMPDEST POP PUSH2 0x32C PUSH2 0x767 JUMP JUMPDEST PUSH1 0x40 MLOAD PUSH2 0x339 SWAP2 SWAP1 PUSH2 0x1682 JUMP JUMPDEST PUSH1 0x40 MLOAD DUP1 SWAP2 SUB SWAP1 RETURN JUMPDEST CALLVALUE DUP1 ISZERO PUSH2 0x34E JUMPI PUSH1 0x0 DUP1 REVERT JUMPDEST POP PUSH2 0x369 PUSH1 0x4 DUP1 CALLDATASIZE SUB DUP2 ADD SWAP1 PUSH2 0x364 SWAP2 SWAP1 PUSH2 0x169D JUMP JUMPDEST PUSH2 0x76D JUMP JUMPDEST PUSH1 0x40 MLOAD PUSH2 0x376 SWAP2 SWAP1 PUSH2 0x1658 JUMP JUMPDEST PUSH1 0x40 MLOAD DUP1 SWAP2 SUB SWAP1 RETURN JUMPDEST CALLVALUE DUP1 ISZERO PUSH2 0x38B JUMPI PUSH1 0x0 DUP1 REVERT JUMPDEST POP PUSH2 0x394 PUSH2 0x942 JUMP JUMPDEST STOP JUMPDEST CALLVALUE DUP1 ISZERO PUSH2 0x3A2 JUMPI PUSH1 0x0 DUP1 REVERT JUMPDEST POP PUSH2 0x3BD PUSH1 0x4 DUP1 CALLDATASIZE SUB DUP2 ADD SWAP1 PUSH2 0x3B8 SWAP2 SWAP1 PUSH2 0x16F0 JUMP JUMPDEST PUSH2 0xD7C JUMP JUMPDEST PUSH1 0x40 MLOAD PUSH2 0x3CA SWAP2 SWAP1 PUSH2 0x1682 JUMP JUMPDEST PUSH1 0x40 MLOAD DUP1 SWAP2 SUB SWAP1 RETURN JUMPDEST CALLVALUE DUP1 ISZERO PUSH2 0x3DF JUMPI PUSH1 0x0 DUP1 REVERT JUMPDEST POP PUSH2 0x3E8 PUSH2 0xD94 JUMP JUMPDEST PUSH1 0x40 MLOAD PUSH2 0x3F5 SWAP2 SWAP1 PUSH2 0x186D JUMP JUMPDEST PUSH1 0x40 MLOAD DUP1 SWAP2 SUB SWAP1 RETURN JUMPDEST CALLVALUE DUP1 ISZERO PUSH2 0x40A JUMPI PUSH1 0x0 DUP1 REVERT JUMPDEST POP PUSH2 0x413 PUSH2 0xF54 JUMP JUMPDEST PUSH1 0x40 MLOAD PUSH2 0x420 SWAP2 SWAP1 PUSH2 0x18AB JUMP JUMPDEST PUSH1 0x40 MLOAD DUP1 SWAP2 SUB SWAP1 RETURN JUMPDEST CALLVALUE DUP1 ISZERO PUSH2 0x435 JUMPI PUSH1 0x0 DUP1 REVERT JUMPDEST POP PUSH2 0x450 PUSH1 0x4 DUP1 CALLDATASIZE SUB DUP2 ADD SWAP1 PUSH2 0x44B SWAP2 SWAP1 PUSH2 0x18C6 JUMP JUMPDEST PUSH2 0xF67 JUMP JUMPDEST PUSH1 0x40 MLOAD PUSH2 0x45D SWAP2 SWAP1 PUSH2 0x1902 JUMP JUMPDEST PUSH1 0x40 MLOAD DUP1 SWAP2 SUB SWAP1 RETURN JUMPDEST CALLVALUE DUP1 ISZERO PUSH2 0x472 JUMPI PUSH1 0x0 DUP1 REVERT JUMPDEST POP PUSH2 0x48D PUSH1 0x4 DUP1 CALLDATASIZE SUB DUP2 ADD SWAP1 PUSH2 0x488 SWAP2 SWAP1 PUSH2 0x18C6 JUMP JUMPDEST PUSH2 0xFB1 JUMP JUMPDEST STOP JUMPDEST CALLVALUE DUP1 ISZERO PUSH2 0x49B JUMPI PUSH1 0x0 DUP1 REVERT JUMPDEST POP PUSH2 0x4B6 PUSH1 0x4 DUP1 CALLDATASIZE SUB DUP2 ADD SWAP1 PUSH2 0x4B1 SWAP2 SWAP1 PUSH2 0x16F0 JUMP JUMPDEST PUSH2 0x1023 JUMP JUMPDEST PUSH1 0x40 MLOAD PUSH2 0x4C3 SWAP2 SWAP1 PUSH2 0x1682 JUMP JUMPDEST PUSH1 0x40 MLOAD DUP1 SWAP2 SUB SWAP1 RETURN JUMPDEST CALLVALUE DUP1 ISZERO PUSH2 0x4D8 JUMPI PUSH1 0x0 DUP1 REVERT JUMPDEST POP PUSH2 0x4E1 PUSH2 0x106C JUMP JUMPDEST PUSH1 0x40 MLOAD PUSH2 0x4EE SWAP2 SWAP1 PUSH2 0x19F7 JUMP JUMPDEST PUSH1 0x40 MLOAD DUP1 SWAP2 SUB SWAP1 RETURN JUMPDEST CALLVALUE DUP1 ISZERO PUSH2 0x503 JUMPI PUSH1 0x0 DUP1 REVERT JUMPDEST POP PUSH2 0x51E PUSH1 0x4 DUP1 CALLDATASIZE SUB DUP2 ADD SWAP1 PUSH2 0x519 SWAP2 SWAP1 PUSH2 0x15FD JUMP JUMPDEST PUSH2 0x111D JUMP JUMPDEST PUSH1 0x40 MLOAD PUSH2 0x52C SWAP3 SWAP2 SWAP1 PUSH2 0x1A19 JUMP JUMPDEST PUSH1 0x40 MLOAD DUP1 SWAP2 SUB SWAP1 RETURN JUMPDEST CALLVALUE DUP1 ISZERO PUSH2 0x541 JUMPI PUSH1 0x0 DUP1 REVERT JUMPDEST POP PUSH2 0x54A PUSH2 0x126E JUMP JUMPDEST PUSH1 0x40 MLOAD PUSH2 0x557 SWAP2 SWAP1 PUSH2 0x154C JUMP JUMPDEST PUSH1 0x40 MLOAD DUP1 SWAP2 SUB SWAP1 RETURN JUMPDEST CALLVALUE DUP1 ISZERO PUSH2 0x56C JUMPI PUSH1 0x0 DUP1 REVERT JUMPDEST POP PUSH2 0x587 PUSH1 0x4 DUP1 CALLDATASIZE SUB DUP2 ADD SWAP1 PUSH2 0x582 SWAP2 SWAP1 PUSH2 0x15FD JUMP JUMPDEST PUSH2 0x12FC JUMP JUMPDEST PUSH1 0x40 MLOAD PUSH2 0x594 SWAP2 SWAP1 PUSH2 0x1658 JUMP JUMPDEST PUSH1 0x40 MLOAD DUP1 SWAP2 SUB SWAP1 RETURN JUMPDEST CALLVALUE DUP1 ISZERO PUSH2 0x5A9 JUMPI PUSH1 0x0 DUP1 REVERT JUMPDEST POP PUSH2 0x5C4 PUSH1 0x4 DUP1 CALLDATASIZE SUB DUP2 ADD SWAP1 PUSH2 0x5BF SWAP2 SWAP1 PUSH2 0x1A50 JUMP JUMPDEST PUSH2 0x13B4 JUMP JUMPDEST PUSH1 0x40 MLOAD PUSH2 0x5D1 SWAP2 SWAP1 PUSH2 0x1682 JUMP JUMPDEST PUSH1 0x40 MLOAD DUP1 SWAP2 SUB SWAP1 RETURN JUMPDEST DUP1 PUSH1 0x5 PUSH1 0x0 CALLER PUSH20 0xFFFFFFFFFFFFFFFFFFFFFFFFFFFFFFFFFFFFFFFF AND PUSH20 0xFFFFFFFFFFFFFFFFFFFFFFFFFFFFFFFFFFFFFFFF AND DUP2 MSTORE PUSH1 0x20 ADD SWAP1 DUP2 MSTORE PUSH1 0x20 ADD PUSH1 0x0 KECCAK256 PUSH1 0x0 DUP3 DUP3 SLOAD PUSH2 0x629 SWAP2 SWAP1 PUSH2 0x1488 JUMP JUMPDEST SWAP3 POP POP DUP2 SWAP1 SSTORE POP DUP1 PUSH1 0x3 PUSH1 0x0 DUP3 DUP3 SLOAD PUSH2 0x642 SWAP2 SWAP1 PUSH2 0x1488 JUMP JUMPDEST SWAP3 POP POP DUP2 SWAP1 SSTORE POP POP JUMP JUMPDEST PUSH1 0x0 DUP1 SLOAD PUSH2 0x659 SWAP1 PUSH2 0x1ABF JUMP JUMPDEST DUP1 PUSH1 0x1F ADD PUSH1 0x20 DUP1 SWAP2 DIV MUL PUSH1 0x20 ADD PUSH1 0x40 MLOAD SWAP1 DUP2 ADD PUSH1 0x40 MSTORE DUP1 SWAP3 SWAP2 SWAP1 DUP2 DUP2 MSTORE PUSH1 0x20 ADD DUP3 DUP1 SLOAD PUSH2 0x685 SWAP1 PUSH2 0x1ABF JUMP JUMPDEST DUP1 ISZERO PUSH2 0x6D2 JUMPI DUP1 PUSH1 0x1F LT PUSH2 0x6A7 JUMPI PUSH2 0x100 DUP1 DUP4 SLOAD DIV MUL DUP4 MSTORE SWAP2 PUSH1 0x20 ADD SWAP2 PUSH2 0x6D2 JUMP JUMPDEST DUP3 ADD SWAP2 SWAP1 PUSH1 0x0 MSTORE PUSH1 0x20 PUSH1 0x0 KECCAK256 SWAP1 JUMPDEST DUP2 SLOAD DUP2 MSTORE SWAP1 PUSH1 0x1 ADD SWAP1 PUSH1 0x20 ADD DUP1 DUP4 GT PUSH2 0x6B5 JUMPI DUP3 SWAP1 SUB PUSH1 0x1F AND DUP3 ADD SWAP2 JUMPDEST POP POP POP POP POP DUP2 JUMP JUMPDEST PUSH1 0x0 DUP2 PUSH1 0x6 PUSH1 0x0 CALLER PUSH20 0xFFFFFFFFFFFFFFFFFFFFFFFFFFFFFFFFFFFFFFFF AND PUSH20 0xFFFFFFFFFFFFFFFFFFFFFFFFFFFFFFFFFFFFFFFF AND DUP2 MSTORE PUSH1 0x20 ADD SWAP1 DUP2 MSTORE PUSH1 0x20 ADD PUSH1 0x0 KECCAK256 PUSH1 0x0 DUP6 PUSH20 0xFFFFFFFFFFFFFFFFFFFFFFFFFFFFFFFFFFFFFFFF AND PUSH20 0xFFFFFFFFFFFFFFFFFFFFFFFFFFFFFFFFFFFFFFFF AND DUP2 MSTORE PUSH1 0x20 ADD SWAP1 DUP2 MSTORE PUSH1 0x20 ADD PUSH1 0x0 KECCAK256 DUP2 SWAP1 SSTORE POP PUSH1 0x1 SWAP1 POP SWAP3 SWAP2 POP POP JUMP JUMPDEST PUSH1 0x3 SLOAD DUP2 JUMP JUMPDEST PUSH1 0x0 DUP2 PUSH1 0x6 PUSH1 0x0 DUP7 PUSH20 0xFFFFFFFFFFFFFFFFFFFFFFFFFFFFFFFFFFFFFFFF AND PUSH20 0xFFFFFFFFFFFFFFFFFFFFFFFFFFFFFFFFFFFFFFFF AND DUP2 MSTORE PUSH1 0x20 ADD SWAP1 DUP2 MSTORE PUSH1 0x20 ADD PUSH1 0x0 KECCAK256 PUSH1 0x0 CALLER PUSH20 0xFFFFFFFFFFFFFFFFFFFFFFFFFFFFFFFFFFFFFFFF AND PUSH20 0xFFFFFFFFFFFFFFFFFFFFFFFFFFFFFFFFFFFFFFFF AND DUP2 MSTORE PUSH1 0x20 ADD SWAP1 DUP2 MSTORE PUSH1 0x20 ADD PUSH1 0x0 KECCAK256 SLOAD LT ISZERO PUSH2 0x7F8 JUMPI PUSH1 0x0 DUP1 REVERT JUMPDEST DUP2 PUSH1 0x6 PUSH1 0x0 DUP7 PUSH20 0xFFFFFFFFFFFFFFFFFFFFFFFFFFFFFFFFFFFFFFFF AND PUSH20 0xFFFFFFFFFFFFFFFFFFFFFFFFFFFFFFFFFFFFFFFF AND DUP2 MSTORE PUSH1 0x20 ADD SWAP1 DUP2 MSTORE PUSH1 0x20 ADD PUSH1 0x0 KECCAK256 PUSH1 0x0 CALLER PUSH20 0xFFFFFFFFFFFFFFFFFFFFFFFFFFFFFFFFFFFFFFFF AND PUSH20 0xFFFFFFFFFFFFFFFFFFFFFFFFFFFFFFFFFFFFFFFF AND DUP2 MSTORE PUSH1 0x20 ADD SWAP1 DUP2 MSTORE PUSH1 0x20 ADD PUSH1 0x0 KECCAK256 PUSH1 0x0 DUP3 DUP3 SLOAD PUSH2 0x884 SWAP2 SWAP1 PUSH2 0x1454 JUMP JUMPDEST SWAP3 POP POP DUP2 SWAP1 SSTORE POP DUP2 PUSH1 0x5 PUSH1 0x0 DUP7 PUSH20 0xFFFFFFFFFFFFFFFFFFFFFFFFFFFFFFFFFFFFFFFF AND PUSH20 0xFFFFFFFFFFFFFFFFFFFFFFFFFFFFFFFFFFFFFFFF AND DUP2 MSTORE PUSH1 0x20 ADD SWAP1 DUP2 MSTORE PUSH1 0x20 ADD PUSH1 0x0 KECCAK256 PUSH1 0x0 DUP3 DUP3 SLOAD PUSH2 0x8DA SWAP2 SWAP1 PUSH2 0x1454 JUMP JUMPDEST SWAP3 POP POP DUP2 SWAP1 SSTORE POP DUP2 PUSH1 0x5 PUSH1 0x0 DUP6 PUSH20 0xFFFFFFFFFFFFFFFFFFFFFFFFFFFFFFFFFFFFFFFF AND PUSH20 0xFFFFFFFFFFFFFFFFFFFFFFFFFFFFFFFFFFFFFFFF AND DUP2 MSTORE PUSH1 0x20 ADD SWAP1 DUP2 MSTORE PUSH1 0x20 ADD PUSH1 0x0 KECCAK256 PUSH1 0x0 DUP3 DUP3 SLOAD PUSH2 0x930 SWAP2 SWAP1 PUSH2 0x1488 JUMP JUMPDEST SWAP3 POP POP DUP2 SWAP1 SSTORE POP PUSH1 0x1 SWAP1 POP SWAP4 SWAP3 POP POP POP JUMP JUMPDEST PUSH1 0x7 SLOAD PUSH1 0x5 PUSH1 0x0 CALLER PUSH20 0xFFFFFFFFFFFFFFFFFFFFFFFFFFFFFFFFFFFFFFFF AND PUSH20 0xFFFFFFFFFFFFFFFFFFFFFFFFFFFFFFFFFFFFFFFF AND DUP2 MSTORE PUSH1 0x20 ADD SWAP1 DUP2 MSTORE PUSH1 0x20 ADD PUSH1 0x0 KECCAK256 SLOAD LT ISZERO PUSH2 0x990 JUMPI PUSH1 0x0 DUP1 REVERT JUMPDEST PUSH1 0x7 SLOAD PUSH1 0x5 PUSH1 0x0 CALLER PUSH20 0xFFFFFFFFFFFFFFFFFFFFFFFFFFFFFFFFFFFFFFFF AND PUSH20 0xFFFFFFFFFFFFFFFFFFFFFFFFFFFFFFFFFFFFFFFF AND DUP2 MSTORE PUSH1 0x20 ADD SWAP1 DUP2 MSTORE PUSH1 0x20 ADD PUSH1 0x0 KECCAK256 PUSH1 0x0 DUP3 DUP3 SLOAD PUSH2 0x9E1 SWAP2 SWAP1 PUSH2 0x1454 JUMP JUMPDEST SWAP3 POP POP DUP2 SWAP1 SSTORE POP PUSH1 0x7 SLOAD PUSH1 0x3 PUSH1 0x0 DUP3 DUP3 SLOAD PUSH2 0x9FC SWAP2 SWAP1 PUSH2 0x1454 JUMP JUMPDEST SWAP3 POP POP DUP2 SWAP1 SSTORE POP PUSH1 0x0 TIMESTAMP COINBASE NUMBER PUSH1 0x40 MLOAD PUSH1 0x20 ADD PUSH2 0xA1A SWAP4 SWAP3 SWAP2 SWAP1 PUSH2 0x1B6B JUMP JUMPDEST PUSH1 0x40 MLOAD PUSH1 0x20 DUP2 DUP4 SUB SUB DUP2 MSTORE SWAP1 PUSH1 0x40 MSTORE DUP1 MLOAD SWAP1 PUSH1 0x20 ADD KECCAK256 PUSH1 0x0 SHR SWAP1 POP PUSH1 0x3 DUP2 PUSH2 0xA42 SWAP2 SWAP1 PUSH2 0x1BD7 JUMP JUMPDEST SWAP1 POP PUSH1 0xA PUSH1 0x0 CALLER PUSH20 0xFFFFFFFFFFFFFFFFFFFFFFFFFFFFFFFFFFFFFFFF AND PUSH20 0xFFFFFFFFFFFFFFFFFFFFFFFFFFFFFFFFFFFFFFFF AND DUP2 MSTORE PUSH1 0x20 ADD SWAP1 DUP2 MSTORE PUSH1 0x20 ADD PUSH1 0x0 KECCAK256 PUSH1 0x40 MLOAD DUP1 PUSH1 0x40 ADD PUSH1 0x40 MSTORE DUP1 PUSH1 0x9 DUP5 DUP2 SLOAD DUP2 LT PUSH2 0xAA2 JUMPI PUSH2 0xAA1 PUSH2 0x1C08 JUMP JUMPDEST JUMPDEST SWAP1 PUSH1 0x0 MSTORE PUSH1 0x20 PUSH1 0x0 KECCAK256 ADD DUP1 SLOAD PUSH2 0xAB7 SWAP1 PUSH2 0x1ABF JUMP JUMPDEST DUP1 PUSH1 0x1F ADD PUSH1 0x20 DUP1 SWAP2 DIV MUL PUSH1 0x20 ADD PUSH1 0x40 MLOAD SWAP1 DUP2 ADD PUSH1 0x40 MSTORE DUP1 SWAP3 SWAP2 SWAP1 DUP2 DUP2 MSTORE PUSH1 0x20 ADD DUP3 DUP1 SLOAD PUSH2 0xAE3 SWAP1 PUSH2 0x1ABF JUMP JUMPDEST DUP1 ISZERO PUSH2 0xB30 JUMPI DUP1 PUSH1 0x1F LT PUSH2 0xB05 JUMPI PUSH2 0x100 DUP1 DUP4 SLOAD DIV MUL DUP4 MSTORE SWAP2 PUSH1 0x20 ADD SWAP2 PUSH2 0xB30 JUMP JUMPDEST DUP3 ADD SWAP2 SWAP1 PUSH1 0x0 MSTORE PUSH1 0x20 PUSH1 0x0 KECCAK256 SWAP1 JUMPDEST DUP2 SLOAD DUP2 MSTORE SWAP1 PUSH1 0x1 ADD SWAP1 PUSH1 0x20 ADD DUP1 DUP4 GT PUSH2 0xB13 JUMPI DUP3 SWAP1 SUB PUSH1 0x1F AND DUP3 ADD SWAP2 JUMPDEST POP POP POP POP POP DUP2 MSTORE PUSH1 0x20 ADD PUSH1 0x8 DUP5 DUP2 SLOAD DUP2 LT PUSH2 0xB4E JUMPI PUSH2 0xB4D PUSH2 0x1C08 JUMP JUMPDEST JUMPDEST SWAP1 PUSH1 0x0 MSTORE PUSH1 0x20 PUSH1 0x0 KECCAK256 ADD DUP1 SLOAD PUSH2 0xB63 SWAP1 PUSH2 0x1ABF JUMP JUMPDEST DUP1 PUSH1 0x1F ADD PUSH1 0x20 DUP1 SWAP2 DIV MUL PUSH1 0x20 ADD PUSH1 0x40 MLOAD SWAP1 DUP2 ADD PUSH1 0x40 MSTORE DUP1 SWAP3 SWAP2 SWAP1 DUP2 DUP2 MSTORE PUSH1 0x20 ADD DUP3 DUP1 SLOAD PUSH2 0xB8F SWAP1 PUSH2 0x1ABF JUMP JUMPDEST DUP1 ISZERO PUSH2 0xBDC JUMPI DUP1 PUSH1 0x1F LT PUSH2 0xBB1 JUMPI PUSH2 0x100 DUP1 DUP4 SLOAD DIV MUL DUP4 MSTORE SWAP2 PUSH1 0x20 ADD SWAP2 PUSH2 0xBDC JUMP JUMPDEST DUP3 ADD SWAP2 SWAP1 PUSH1 0x0 MSTORE PUSH1 0x20 PUSH1 0x0 KECCAK256 SWAP1 JUMPDEST DUP2 SLOAD DUP2 MSTORE SWAP1 PUSH1 0x1 ADD SWAP1 PUSH1 0x20 ADD DUP1 DUP4 GT PUSH2 0xBBF JUMPI DUP3 SWAP1 SUB PUSH1 0x1F AND DUP3 ADD SWAP2 JUMPDEST POP POP POP POP POP DUP2 MSTORE POP SWAP1 DUP1 PUSH1 0x1 DUP2 SLOAD ADD DUP1 DUP3 SSTORE DUP1 SWAP2 POP POP PUSH1 0x1 SWAP1 SUB SWAP1 PUSH1 0x0 MSTORE PUSH1 0x20 PUSH1 0x0 KECCAK256 SWAP1 PUSH1 0x2 MUL ADD PUSH1 0x0 SWAP1 SWAP2 SWAP1 SWAP2 SWAP1 SWAP2 POP PUSH1 0x0 DUP3 ADD MLOAD DUP2 PUSH1 0x0 ADD SWAP1 DUP2 PUSH2 0xC22 SWAP2 SWAP1 PUSH2 0x1E12 JUMP JUMPDEST POP PUSH1 0x20 DUP3 ADD MLOAD DUP2 PUSH1 0x1 ADD SWAP1 DUP2 PUSH2 0xC38 SWAP2 SWAP1 PUSH2 0x1E12 JUMP JUMPDEST POP POP POP PUSH1 0x0 DUP1 JUMPDEST PUSH1 0xB DUP1 SLOAD SWAP1 POP DUP2 LT ISZERO PUSH2 0xCDC JUMPI CALLER PUSH20 0xFFFFFFFFFFFFFFFFFFFFFFFFFFFFFFFFFFFFFFFF AND PUSH1 0xB DUP3 DUP2 SLOAD DUP2 LT PUSH2 0xC77 JUMPI PUSH2 0xC76 PUSH2 0x1C08 JUMP JUMPDEST JUMPDEST SWAP1 PUSH1 0x0 MSTORE PUSH1 0x20 PUSH1 0x0 KECCAK256 ADD PUSH1 0x0 ADD PUSH1 0x0 SWAP1 SLOAD SWAP1 PUSH2 0x100 EXP SWAP1 DIV PUSH20 0xFFFFFFFFFFFFFFFFFFFFFFFFFFFFFFFFFFFFFFFF AND PUSH20 0xFFFFFFFFFFFFFFFFFFFFFFFFFFFFFFFFFFFFFFFF AND SUB PUSH2 0xCC9 JUMPI PUSH1 0x1 SWAP2 POP PUSH2 0xCDC JUMP JUMPDEST DUP1 DUP1 PUSH2 0xCD4 SWAP1 PUSH2 0x1EE4 JUMP JUMPDEST SWAP2 POP POP PUSH2 0xC3F JUMP JUMPDEST POP DUP1 PUSH2 0xD78 JUMPI PUSH1 0xB PUSH1 0x40 MLOAD DUP1 PUSH1 0x20 ADD PUSH1 0x40 MSTORE DUP1 CALLER PUSH20 0xFFFFFFFFFFFFFFFFFFFFFFFFFFFFFFFFFFFFFFFF AND DUP2 MSTORE POP SWAP1 DUP1 PUSH1 0x1 DUP2 SLOAD ADD DUP1 DUP3 SSTORE DUP1 SWAP2 POP POP PUSH1 0x1 SWAP1 SUB SWAP1 PUSH1 0x0 MSTORE PUSH1 0x20 PUSH1 0x0 KECCAK256 ADD PUSH1 0x0 SWAP1 SWAP2 SWAP1 SWAP2 SWAP1 SWAP2 POP PUSH1 0x0 DUP3 ADD MLOAD DUP2 PUSH1 0x0 ADD PUSH1 0x0 PUSH2 0x100 EXP DUP2 SLOAD DUP2 PUSH20 0xFFFFFFFFFFFFFFFFFFFFFFFFFFFFFFFFFFFFFFFF MUL NOT AND SWAP1 DUP4 PUSH20 0xFFFFFFFFFFFFFFFFFFFFFFFFFFFFFFFFFFFFFFFF AND MUL OR SWAP1 SSTORE POP POP POP JUMPDEST POP POP JUMP JUMPDEST PUSH1 0x5 PUSH1 0x20 MSTORE DUP1 PUSH1 0x0 MSTORE PUSH1 0x40 PUSH1 0x0 KECCAK256 PUSH1 0x0 SWAP2 POP SWAP1 POP SLOAD DUP2 JUMP JUMPDEST PUSH1 0x60 PUSH1 0xA PUSH1 0x0 CALLER PUSH20 0xFFFFFFFFFFFFFFFFFFFFFFFFFFFFFFFFFFFFFFFF AND PUSH20 0xFFFFFFFFFFFFFFFFFFFFFFFFFFFFFFFFFFFFFFFF AND DUP2 MSTORE PUSH1 0x20 ADD SWAP1 DUP2 MSTORE PUSH1 0x20 ADD PUSH1 0x0 KECCAK256 DUP1 SLOAD DUP1 PUSH1 0x20 MUL PUSH1 0x20 ADD PUSH1 0x40 MLOAD SWAP1 DUP2 ADD PUSH1 0x40 MSTORE DUP1 SWAP3 SWAP2 SWAP1 DUP2 DUP2 MSTORE PUSH1 0x20 ADD PUSH1 0x0 SWAP1 JUMPDEST DUP3 DUP3 LT ISZERO PUSH2 0xF4B JUMPI DUP4 DUP3 SWAP1 PUSH1 0x0 MSTORE PUSH1 0x20 PUSH1 0x0 KECCAK256 SWAP1 PUSH1 0x2 MUL ADD PUSH1 0x40 MLOAD DUP1 PUSH1 0x40 ADD PUSH1 0x40 MSTORE SWAP1 DUP2 PUSH1 0x0 DUP3 ADD DUP1 SLOAD PUSH2 0xE28 SWAP1 PUSH2 0x1ABF JUMP JUMPDEST DUP1 PUSH1 0x1F ADD PUSH1 0x20 DUP1 SWAP2 DIV MUL PUSH1 0x20 ADD PUSH1 0x40 MLOAD SWAP1 DUP2 ADD PUSH1 0x40 MSTORE DUP1 SWAP3 SWAP2 SWAP1 DUP2 DUP2 MSTORE PUSH1 0x20 ADD DUP3 DUP1 SLOAD PUSH2 0xE54 SWAP1 PUSH2 0x1ABF JUMP JUMPDEST DUP1 ISZERO PUSH2 0xEA1 JUMPI DUP1 PUSH1 0x1F LT PUSH2 0xE76 JUMPI PUSH2 0x100 DUP1 DUP4 SLOAD DIV MUL DUP4 MSTORE SWAP2 PUSH1 0x20 ADD SWAP2 PUSH2 0xEA1 JUMP JUMPDEST DUP3 ADD SWAP2 SWAP1 PUSH1 0x0 MSTORE PUSH1 0x20 PUSH1 0x0 KECCAK256 SWAP1 JUMPDEST DUP2 SLOAD DUP2 MSTORE SWAP1 PUSH1 0x1 ADD SWAP1 PUSH1 0x20 ADD DUP1 DUP4 GT PUSH2 0xE84 JUMPI DUP3 SWAP1 SUB PUSH1 0x1F AND DUP3 ADD SWAP2 JUMPDEST POP POP POP POP POP DUP2 MSTORE PUSH1 0x20 ADD PUSH1 0x1 DUP3 ADD DUP1 SLOAD PUSH2 0xEBA SWAP1 PUSH2 0x1ABF JUMP JUMPDEST DUP1 PUSH1 0x1F ADD PUSH1 0x20 DUP1 SWAP2 DIV MUL PUSH1 0x20 ADD PUSH1 0x40 MLOAD SWAP1 DUP2 ADD PUSH1 0x40 MSTORE DUP1 SWAP3 SWAP2 SWAP1 DUP2 DUP2 MSTORE PUSH1 0x20 ADD DUP3 DUP1 SLOAD PUSH2 0xEE6 SWAP1 PUSH2 0x1ABF JUMP JUMPDEST DUP1 ISZERO PUSH2 0xF33 JUMPI DUP1 PUSH1 0x1F LT PUSH2 0xF08 JUMPI PUSH2 0x100 DUP1 DUP4 SLOAD DIV MUL DUP4 MSTORE SWAP2 PUSH1 0x20 ADD SWAP2 PUSH2 0xF33 JUMP JUMPDEST DUP3 ADD SWAP2 SWAP1 PUSH1 0x0 MSTORE PUSH1 0x20 PUSH1 0x0 KECCAK256 SWAP1 JUMPDEST DUP2 SLOAD DUP2 MSTORE SWAP1 PUSH1 0x1 ADD SWAP1 PUSH1 0x20 ADD DUP1 DUP4 GT PUSH2 0xF16 JUMPI DUP3 SWAP1 SUB PUSH1 0x1F AND DUP3 ADD SWAP2 JUMPDEST POP POP POP POP POP DUP2 MSTORE POP POP DUP2 MSTORE PUSH1 0x20 ADD SWAP1 PUSH1 0x1 ADD SWAP1 PUSH2 0xDF5 JUMP JUMPDEST POP POP POP POP SWAP1 POP SWAP1 JUMP JUMPDEST PUSH1 0x2 PUSH1 0x0 SWAP1 SLOAD SWAP1 PUSH2 0x100 EXP SWAP1 DIV PUSH1 0xFF AND DUP2 JUMP JUMPDEST PUSH1 0xB DUP2 DUP2 SLOAD DUP2 LT PUSH2 0xF77 JUMPI PUSH1 0x0 DUP1 REVERT JUMPDEST SWAP1 PUSH1 0x0 MSTORE PUSH1 0x20 PUSH1 0x0 KECCAK256 ADD PUSH1 0x0 SWAP2 POP SWAP1 POP DUP1 PUSH1 0x0 ADD PUSH1 0x0 SWAP1 SLOAD SWAP1 PUSH2 0x100 EXP SWAP1 DIV PUSH20 0xFFFFFFFFFFFFFFFFFFFFFFFFFFFFFFFFFFFFFFFF AND SWAP1 POP DUP2 JUMP JUMPDEST DUP1 PUSH1 0x5 PUSH1 0x0 CALLER PUSH20 0xFFFFFFFFFFFFFFFFFFFFFFFFFFFFFFFFFFFFFFFF AND PUSH20 0xFFFFFFFFFFFFFFFFFFFFFFFFFFFFFFFFFFFFFFFF AND DUP2 MSTORE PUSH1 0x20 ADD SWAP1 DUP2 MSTORE PUSH1 0x20 ADD PUSH1 0x0 KECCAK256 PUSH1 0x0 DUP3 DUP3 SLOAD PUSH2 0x1000 SWAP2 SWAP1 PUSH2 0x1454 JUMP JUMPDEST SWAP3 POP POP DUP2 SWAP1 SSTORE POP DUP1 PUSH1 0x3 PUSH1 0x0 DUP3 DUP3 SLOAD PUSH2 0x1019 SWAP2 SWAP1 PUSH2 0x1454 JUMP JUMPDEST SWAP3 POP POP DUP2 SWAP1 SSTORE POP POP JUMP JUMPDEST PUSH1 0x0 PUSH1 0x5 PUSH1 0x0 DUP4 PUSH20 0xFFFFFFFFFFFFFFFFFFFFFFFFFFFFFFFFFFFFFFFF AND PUSH20 0xFFFFFFFFFFFFFFFFFFFFFFFFFFFFFFFFFFFFFFFF AND DUP2 MSTORE PUSH1 0x20 ADD SWAP1 DUP2 MSTORE PUSH1 0x20 ADD PUSH1 0x0 KECCAK256 SLOAD SWAP1 POP SWAP2 SWAP1 POP JUMP JUMPDEST PUSH1 0x60 PUSH1 0xB DUP1 SLOAD DUP1 PUSH1 0x20 MUL PUSH1 0x20 ADD PUSH1 0x40 MLOAD SWAP1 DUP2 ADD PUSH1 0x40 MSTORE DUP1 SWAP3 SWAP2 SWAP1 DUP2 DUP2 MSTORE PUSH1 0x20 ADD PUSH1 0x0 SWAP1 JUMPDEST DUP3 DUP3 LT ISZERO PUSH2 0x1114 JUMPI DUP4 DUP3 SWAP1 PUSH1 0x0 MSTORE PUSH1 0x20 PUSH1 0x0 KECCAK256 ADD PUSH1 0x40 MLOAD DUP1 PUSH1 0x20 ADD PUSH1 0x40 MSTORE SWAP1 DUP2 PUSH1 0x0 DUP3 ADD PUSH1 0x0 SWAP1 SLOAD SWAP1 PUSH2 0x100 EXP SWAP1 DIV PUSH20 0xFFFFFFFFFFFFFFFFFFFFFFFFFFFFFFFFFFFFFFFF AND PUSH20 0xFFFFFFFFFFFFFFFFFFFFFFFFFFFFFFFFFFFFFFFF AND PUSH20 0xFFFFFFFFFFFFFFFFFFFFFFFFFFFFFFFFFFFFFFFF AND DUP2 MSTORE POP POP DUP2 MSTORE PUSH1 0x20 ADD SWAP1 PUSH1 0x1 ADD SWAP1 PUSH2 0x1090 JUMP JUMPDEST POP POP POP POP SWAP1 POP SWAP1 JUMP JUMPDEST PUSH1 0xA PUSH1 0x20 MSTORE DUP2 PUSH1 0x0 MSTORE PUSH1 0x40 PUSH1 0x0 KECCAK256 DUP2 DUP2 SLOAD DUP2 LT PUSH2 0x1139 JUMPI PUSH1 0x0 DUP1 REVERT JUMPDEST SWAP1 PUSH1 0x0 MSTORE PUSH1 0x20 PUSH1 0x0 KECCAK256 SWAP1 PUSH1 0x2 MUL ADD PUSH1 0x0 SWAP2 POP SWAP2 POP POP DUP1 PUSH1 0x0 ADD DUP1 SLOAD PUSH2 0x115D SWAP1 PUSH2 0x1ABF JUMP JUMPDEST DUP1 PUSH1 0x1F ADD PUSH1 0x20 DUP1 SWAP2 DIV MUL PUSH1 0x20 ADD PUSH1 0x40 MLOAD SWAP1 DUP2 ADD PUSH1 0x40 MSTORE DUP1 SWAP3 SWAP2 SWAP1 DUP2 DUP2 MSTORE PUSH1 0x20 ADD DUP3 DUP1 SLOAD PUSH2 0x1189 SWAP1 PUSH2 0x1ABF JUMP JUMPDEST DUP1 ISZERO PUSH2 0x11D6 JUMPI DUP1 PUSH1 0x1F LT PUSH2 0x11AB JUMPI PUSH2 0x100 DUP1 DUP4 SLOAD DIV MUL DUP4 MSTORE SWAP2 PUSH1 0x20 ADD SWAP2 PUSH2 0x11D6 JUMP JUMPDEST DUP3 ADD SWAP2 SWAP1 PUSH1 0x0 MSTORE PUSH1 0x20 PUSH1 0x0 KECCAK256 SWAP1 JUMPDEST DUP2 SLOAD DUP2 MSTORE SWAP1 PUSH1 0x1 ADD SWAP1 PUSH1 0x20 ADD DUP1 DUP4 GT PUSH2 0x11B9 JUMPI DUP3 SWAP1 SUB PUSH1 0x1F AND DUP3 ADD SWAP2 JUMPDEST POP POP POP POP POP SWAP1 DUP1 PUSH1 0x1 ADD DUP1 SLOAD PUSH2 0x11EB SWAP1 PUSH2 0x1ABF JUMP JUMPDEST DUP1 PUSH1 0x1F ADD PUSH1 0x20 DUP1 SWAP2 DIV MUL PUSH1 0x20 ADD PUSH1 0x40 MLOAD SWAP1 DUP2 ADD PUSH1 0x40 MSTORE DUP1 SWAP3 SWAP2 SWAP1 DUP2 DUP2 MSTORE PUSH1 0x20 ADD DUP3 DUP1 SLOAD PUSH2 0x1217 SWAP1 PUSH2 0x1ABF JUMP JUMPDEST DUP1 ISZERO PUSH2 0x1264 JUMPI DUP1 PUSH1 0x1F LT PUSH2 0x1239 JUMPI PUSH2 0x100 DUP1 DUP4 SLOAD DIV MUL DUP4 MSTORE SWAP2 PUSH1 0x20 ADD SWAP2 PUSH2 0x1264 JUMP JUMPDEST DUP3 ADD SWAP2 SWAP1 PUSH1 0x0 MSTORE PUSH1 0x20 PUSH1 0x0 KECCAK256 SWAP1 JUMPDEST DUP2 SLOAD DUP2 MSTORE SWAP1 PUSH1 0x1 ADD SWAP1 PUSH1 0x20 ADD DUP1 DUP4 GT PUSH2 0x1247 JUMPI DUP3 SWAP1 SUB PUSH1 0x1F AND DUP3 ADD SWAP2 JUMPDEST POP POP POP POP POP SWAP1 POP DUP3 JUMP JUMPDEST PUSH1 0x1 DUP1 SLOAD PUSH2 0x127B SWAP1 PUSH2 0x1ABF JUMP JUMPDEST DUP1 PUSH1 0x1F ADD PUSH1 0x20 DUP1 SWAP2 DIV MUL PUSH1 0x20 ADD PUSH1 0x40 MLOAD SWAP1 DUP2 ADD PUSH1 0x40 MSTORE DUP1 SWAP3 SWAP2 SWAP1 DUP2 DUP2 MSTORE PUSH1 0x20 ADD DUP3 DUP1 SLOAD PUSH2 0x12A7 SWAP1 PUSH2 0x1ABF JUMP JUMPDEST DUP1 ISZERO PUSH2 0x12F4 JUMPI DUP1 PUSH1 0x1F LT PUSH2 0x12C9 JUMPI PUSH2 0x100 DUP1 DUP4 SLOAD DIV MUL DUP4 MSTORE SWAP2 PUSH1 0x20 ADD SWAP2 PUSH2 0x12F4 JUMP JUMPDEST DUP3 ADD SWAP2 SWAP1 PUSH1 0x0 MSTORE PUSH1 0x20 PUSH1 0x0 KECCAK256 SWAP1 JUMPDEST DUP2 SLOAD DUP2 MSTORE SWAP1 PUSH1 0x1 ADD SWAP1 PUSH1 0x20 ADD DUP1 DUP4 GT PUSH2 0x12D7 JUMPI DUP3 SWAP1 SUB PUSH1 0x1F AND DUP3 ADD SWAP2 JUMPDEST POP POP POP POP POP DUP2 JUMP JUMPDEST PUSH1 0x0 DUP2 PUSH1 0x5 PUSH1 0x0 CALLER PUSH20 0xFFFFFFFFFFFFFFFFFFFFFFFFFFFFFFFFFFFFFFFF AND PUSH20 0xFFFFFFFFFFFFFFFFFFFFFFFFFFFFFFFFFFFFFFFF AND DUP2 MSTORE PUSH1 0x20 ADD SWAP1 DUP2 MSTORE PUSH1 0x20 ADD PUSH1 0x0 KECCAK256 PUSH1 0x0 DUP3 DUP3 SLOAD PUSH2 0x134D SWAP2 SWAP1 PUSH2 0x1454 JUMP JUMPDEST SWAP3 POP POP DUP2 SWAP1 SSTORE POP DUP2 PUSH1 0x5 PUSH1 0x0 DUP6 PUSH20 0xFFFFFFFFFFFFFFFFFFFFFFFFFFFFFFFFFFFFFFFF AND PUSH20 0xFFFFFFFFFFFFFFFFFFFFFFFFFFFFFFFFFFFFFFFF AND DUP2 MSTORE PUSH1 0x20 ADD SWAP1 DUP2 MSTORE PUSH1 0x20 ADD PUSH1 0x0 KECCAK256 PUSH1 0x0 DUP3 DUP3 SLOAD PUSH2 0x13A3 SWAP2 SWAP1 PUSH2 0x1488 JUMP JUMPDEST SWAP3 POP POP DUP2 SWAP1 SSTORE POP PUSH1 0x1 SWAP1 POP SWAP3 SWAP2 POP POP JUMP JUMPDEST PUSH1 0x6 PUSH1 0x20 MSTORE DUP2 PUSH1 0x0 MSTORE PUSH1 0x40 PUSH1 0x0 KECCAK256 PUSH1 0x20 MSTORE DUP1 PUSH1 0x0 MSTORE PUSH1 0x40 PUSH1 0x0 KECCAK256 PUSH1 0x0 SWAP2 POP SWAP2 POP POP SLOAD DUP2 JUMP JUMPDEST PUSH1 0x0 DUP2 SWAP1 POP SWAP2 SWAP1 POP JUMP JUMPDEST PUSH32 0x4E487B7100000000000000000000000000000000000000000000000000000000 PUSH1 0x0 MSTORE PUSH1 0x11 PUSH1 0x4 MSTORE PUSH1 0x24 PUSH1 0x0 REVERT JUMPDEST PUSH1 0x0 PUSH2 0x141D DUP3 PUSH2 0x13D9 JUMP JUMPDEST SWAP2 POP PUSH2 0x1428 DUP4 PUSH2 0x13D9 JUMP JUMPDEST SWAP3 POP DUP3 DUP3 MUL PUSH2 0x1436 DUP2 PUSH2 0x13D9 JUMP JUMPDEST SWAP2 POP DUP3 DUP3 DIV DUP5 EQ DUP4 ISZERO OR PUSH2 0x144D JUMPI PUSH2 0x144C PUSH2 0x13E3 JUMP JUMPDEST JUMPDEST POP SWAP3 SWAP2 POP POP JUMP JUMPDEST PUSH1 0x0 PUSH2 0x145F DUP3 PUSH2 0x13D9 JUMP JUMPDEST SWAP2 POP PUSH2 0x146A DUP4 PUSH2 0x13D9 JUMP JUMPDEST SWAP3 POP DUP3 DUP3 SUB SWAP1 POP DUP2 DUP2 GT ISZERO PUSH2 0x1482 JUMPI PUSH2 0x1481 PUSH2 0x13E3 JUMP JUMPDEST JUMPDEST SWAP3 SWAP2 POP POP JUMP JUMPDEST PUSH1 0x0 PUSH2 0x1493 DUP3 PUSH2 0x13D9 JUMP JUMPDEST SWAP2 POP PUSH2 0x149E DUP4 PUSH2 0x13D9 JUMP JUMPDEST SWAP3 POP DUP3 DUP3 ADD SWAP1 POP DUP1 DUP3 GT ISZERO PUSH2 0x14B6 JUMPI PUSH2 0x14B5 PUSH2 0x13E3 JUMP JUMPDEST JUMPDEST SWAP3 SWAP2 POP POP JUMP JUMPDEST PUSH1 0x0 DUP2 MLOAD SWAP1 POP SWAP2 SWAP1 POP JUMP JUMPDEST PUSH1 0x0 DUP3 DUP3 MSTORE PUSH1 0x20 DUP3 ADD SWAP1 POP SWAP3 SWAP2 POP POP JUMP JUMPDEST PUSH1 0x0 JUMPDEST DUP4 DUP2 LT ISZERO PUSH2 0x14F6 JUMPI DUP1 DUP3 ADD MLOAD DUP2 DUP5 ADD MSTORE PUSH1 0x20 DUP2 ADD SWAP1 POP PUSH2 0x14DB JUMP JUMPDEST PUSH1 0x0 DUP5 DUP5 ADD MSTORE POP POP POP POP JUMP JUMPDEST PUSH1 0x0 PUSH1 0x1F NOT PUSH1 0x1F DUP4 ADD AND SWAP1 POP SWAP2 SWAP1 POP JUMP JUMPDEST PUSH1 0x0 PUSH2 0x151E DUP3 PUSH2 0x14BC JUMP JUMPDEST PUSH2 0x1528 DUP2 DUP6 PUSH2 0x14C7 JUMP JUMPDEST SWAP4 POP PUSH2 0x1538 DUP2 DUP6 PUSH1 0x20 DUP7 ADD PUSH2 0x14D8 JUMP JUMPDEST PUSH2 0x1541 DUP2 PUSH2 0x1502 JUMP JUMPDEST DUP5 ADD SWAP2 POP POP SWAP3 SWAP2 POP POP JUMP JUMPDEST PUSH1 0x0 PUSH1 0x20 DUP3 ADD SWAP1 POP DUP2 DUP2 SUB PUSH1 0x0 DUP4 ADD MSTORE PUSH2 0x1566 DUP2 DUP5 PUSH2 0x1513 JUMP JUMPDEST SWAP1 POP SWAP3 SWAP2 POP POP JUMP JUMPDEST PUSH1 0x0 DUP1 REVERT JUMPDEST PUSH1 0x0 PUSH20 0xFFFFFFFFFFFFFFFFFFFFFFFFFFFFFFFFFFFFFFFF DUP3 AND SWAP1 POP SWAP2 SWAP1 POP JUMP JUMPDEST PUSH1 0x0 PUSH2 0x159E DUP3 PUSH2 0x1573 JUMP JUMPDEST SWAP1 POP SWAP2 SWAP1 POP JUMP JUMPDEST PUSH2 0x15AE DUP2 PUSH2 0x1593 JUMP JUMPDEST DUP2 EQ PUSH2 0x15B9 JUMPI PUSH1 0x0 DUP1 REVERT JUMPDEST POP JUMP JUMPDEST PUSH1 0x0 DUP2 CALLDATALOAD SWAP1 POP PUSH2 0x15CB DUP2 PUSH2 0x15A5 JUMP JUMPDEST SWAP3 SWAP2 POP POP JUMP JUMPDEST PUSH2 0x15DA DUP2 PUSH2 0x13D9 JUMP JUMPDEST DUP2 EQ PUSH2 0x15E5 JUMPI PUSH1 0x0 DUP1 REVERT JUMPDEST POP JUMP JUMPDEST PUSH1 0x0 DUP2 CALLDATALOAD SWAP1 POP PUSH2 0x15F7 DUP2 PUSH2 0x15D1 JUMP JUMPDEST SWAP3 SWAP2 POP POP JUMP JUMPDEST PUSH1 0x0 DUP1 PUSH1 0x40 DUP4 DUP6 SUB SLT ISZERO PUSH2 0x1614 JUMPI PUSH2 0x1613 PUSH2 0x156E JUMP JUMPDEST JUMPDEST PUSH1 0x0 PUSH2 0x1622 DUP6 DUP3 DUP7 ADD PUSH2 0x15BC JUMP JUMPDEST SWAP3 POP POP PUSH1 0x20 PUSH2 0x1633 DUP6 DUP3 DUP7 ADD PUSH2 0x15E8 JUMP JUMPDEST SWAP2 POP POP SWAP3 POP SWAP3 SWAP1 POP JUMP JUMPDEST PUSH1 0x0 DUP2 ISZERO ISZERO SWAP1 POP SWAP2 SWAP1 POP JUMP JUMPDEST PUSH2 0x1652 DUP2 PUSH2 0x163D JUMP JUMPDEST DUP3 MSTORE POP POP JUMP JUMPDEST PUSH1 0x0 PUSH1 0x20 DUP3 ADD SWAP1 POP PUSH2 0x166D PUSH1 0x0 DUP4 ADD DUP5 PUSH2 0x1649 JUMP JUMPDEST SWAP3 SWAP2 POP POP JUMP JUMPDEST PUSH2 0x167C DUP2 PUSH2 0x13D9 JUMP JUMPDEST DUP3 MSTORE POP POP JUMP JUMPDEST PUSH1 0x0 PUSH1 0x20 DUP3 ADD SWAP1 POP PUSH2 0x1697 PUSH1 0x0 DUP4 ADD DUP5 PUSH2 0x1673 JUMP JUMPDEST SWAP3 SWAP2 POP POP JUMP JUMPDEST PUSH1 0x0 DUP1 PUSH1 0x0 PUSH1 0x60 DUP5 DUP7 SUB SLT ISZERO PUSH2 0x16B6 JUMPI PUSH2 0x16B5 PUSH2 0x156E JUMP JUMPDEST JUMPDEST PUSH1 0x0 PUSH2 0x16C4 DUP7 DUP3 DUP8 ADD PUSH2 0x15BC JUMP JUMPDEST SWAP4 POP POP PUSH1 0x20 PUSH2 0x16D5 DUP7 DUP3 DUP8 ADD PUSH2 0x15BC JUMP JUMPDEST SWAP3 POP POP PUSH1 0x40 PUSH2 0x16E6 DUP7 DUP3 DUP8 ADD PUSH2 0x15E8 JUMP JUMPDEST SWAP2 POP POP SWAP3 POP SWAP3 POP SWAP3 JUMP JUMPDEST PUSH1 0x0 PUSH1 0x20 DUP3 DUP5 SUB SLT ISZERO PUSH2 0x1706 JUMPI PUSH2 0x1705 PUSH2 0x156E JUMP JUMPDEST JUMPDEST PUSH1 0x0 PUSH2 0x1714 DUP5 DUP3 DUP6 ADD PUSH2 0x15BC JUMP JUMPDEST SWAP2 POP POP SWAP3 SWAP2 POP POP JUMP JUMPDEST PUSH1 0x0 DUP2 MLOAD SWAP1 POP SWAP2 SWAP1 POP JUMP JUMPDEST PUSH1 0x0 DUP3 DUP3 MSTORE PUSH1 0x20 DUP3 ADD SWAP1 POP SWAP3 SWAP2 POP POP JUMP JUMPDEST PUSH1 0x0 DUP2 SWAP1 POP PUSH1 0x20 DUP3 ADD SWAP1 POP SWAP2 SWAP1 POP JUMP JUMPDEST PUSH1 0x0 DUP3 DUP3 MSTORE PUSH1 0x20 DUP3 ADD SWAP1 POP SWAP3 SWAP2 POP POP JUMP JUMPDEST PUSH1 0x0 PUSH2 0x1765 DUP3 PUSH2 0x14BC JUMP JUMPDEST PUSH2 0x176F DUP2 DUP6 PUSH2 0x1749 JUMP JUMPDEST SWAP4 POP PUSH2 0x177F DUP2 DUP6 PUSH1 0x20 DUP7 ADD PUSH2 0x14D8 JUMP JUMPDEST PUSH2 0x1788 DUP2 PUSH2 0x1502 JUMP JUMPDEST DUP5 ADD SWAP2 POP POP SWAP3 SWAP2 POP POP JUMP JUMPDEST PUSH1 0x0 PUSH1 0x40 DUP4 ADD PUSH1 0x0 DUP4 ADD MLOAD DUP5 DUP3 SUB PUSH1 0x0 DUP7 ADD MSTORE PUSH2 0x17B0 DUP3 DUP3 PUSH2 0x175A JUMP JUMPDEST SWAP2 POP POP PUSH1 0x20 DUP4 ADD MLOAD DUP5 DUP3 SUB PUSH1 0x20 DUP7 ADD MSTORE PUSH2 0x17CA DUP3 DUP3 PUSH2 0x175A JUMP JUMPDEST SWAP2 POP POP DUP1 SWAP2 POP POP SWAP3 SWAP2 POP POP JUMP JUMPDEST PUSH1 0x0 PUSH2 0x17E3 DUP4 DUP4 PUSH2 0x1793 JUMP JUMPDEST SWAP1 POP SWAP3 SWAP2 POP POP JUMP JUMPDEST PUSH1 0x0 PUSH1 0x20 DUP3 ADD SWAP1 POP SWAP2 SWAP1 POP JUMP JUMPDEST PUSH1 0x0 PUSH2 0x1803 DUP3 PUSH2 0x171D JUMP JUMPDEST PUSH2 0x180D DUP2 DUP6 PUSH2 0x1728 JUMP JUMPDEST SWAP4 POP DUP4 PUSH1 0x20 DUP3 MUL DUP6 ADD PUSH2 0x181F DUP6 PUSH2 0x1739 JUMP JUMPDEST DUP1 PUSH1 0x0 JUMPDEST DUP6 DUP2 LT ISZERO PUSH2 0x185B JUMPI DUP5 DUP5 SUB DUP10 MSTORE DUP2 MLOAD PUSH2 0x183C DUP6 DUP3 PUSH2 0x17D7 JUMP JUMPDEST SWAP5 POP PUSH2 0x1847 DUP4 PUSH2 0x17EB JUMP JUMPDEST SWAP3 POP PUSH1 0x20 DUP11 ADD SWAP10 POP POP PUSH1 0x1 DUP2 ADD SWAP1 POP PUSH2 0x1823 JUMP JUMPDEST POP DUP3 SWAP8 POP DUP8 SWAP6 POP POP POP POP POP POP SWAP3 SWAP2 POP POP JUMP JUMPDEST PUSH1 0x0 PUSH1 0x20 DUP3 ADD SWAP1 POP DUP2 DUP2 SUB PUSH1 0x0 DUP4 ADD MSTORE PUSH2 0x1887 DUP2 DUP5 PUSH2 0x17F8 JUMP JUMPDEST SWAP1 POP SWAP3 SWAP2 POP POP JUMP JUMPDEST PUSH1 0x0 PUSH1 0xFF DUP3 AND SWAP1 POP SWAP2 SWAP1 POP JUMP JUMPDEST PUSH2 0x18A5 DUP2 PUSH2 0x188F JUMP JUMPDEST DUP3 MSTORE POP POP JUMP JUMPDEST PUSH1 0x0 PUSH1 0x20 DUP3 ADD SWAP1 POP PUSH2 0x18C0 PUSH1 0x0 DUP4 ADD DUP5 PUSH2 0x189C JUMP JUMPDEST SWAP3 SWAP2 POP POP JUMP JUMPDEST PUSH1 0x0 PUSH1 0x20 DUP3 DUP5 SUB SLT ISZERO PUSH2 0x18DC JUMPI PUSH2 0x18DB PUSH2 0x156E JUMP JUMPDEST JUMPDEST PUSH1 0x0 PUSH2 0x18EA DUP5 DUP3 DUP6 ADD PUSH2 0x15E8 JUMP JUMPDEST SWAP2 POP POP SWAP3 SWAP2 POP POP JUMP JUMPDEST PUSH2 0x18FC DUP2 PUSH2 0x1593 JUMP JUMPDEST DUP3 MSTORE POP POP JUMP JUMPDEST PUSH1 0x0 PUSH1 0x20 DUP3 ADD SWAP1 POP PUSH2 0x1917 PUSH1 0x0 DUP4 ADD DUP5 PUSH2 0x18F3 JUMP JUMPDEST SWAP3 SWAP2 POP POP JUMP JUMPDEST PUSH1 0x0 DUP2 MLOAD SWAP1 POP SWAP2 SWAP1 POP JUMP JUMPDEST PUSH1 0x0 DUP3 DUP3 MSTORE PUSH1 0x20 DUP3 ADD SWAP1 POP SWAP3 SWAP2 POP POP JUMP JUMPDEST PUSH1 0x0 DUP2 SWAP1 POP PUSH1 0x20 DUP3 ADD SWAP1 POP SWAP2 SWAP1 POP JUMP JUMPDEST PUSH2 0x1952 DUP2 PUSH2 0x1593 JUMP JUMPDEST DUP3 MSTORE POP POP JUMP JUMPDEST PUSH1 0x20 DUP3 ADD PUSH1 0x0 DUP3 ADD MLOAD PUSH2 0x196E PUSH1 0x0 DUP6 ADD DUP3 PUSH2 0x1949 JUMP JUMPDEST POP POP POP POP JUMP JUMPDEST PUSH1 0x0 PUSH2 0x1980 DUP4 DUP4 PUSH2 0x1958 JUMP JUMPDEST PUSH1 0x20 DUP4 ADD SWAP1 POP SWAP3 SWAP2 POP POP JUMP JUMPDEST PUSH1 0x0 PUSH1 0x20 DUP3 ADD SWAP1 POP SWAP2 SWAP1 POP JUMP JUMPDEST PUSH1 0x0 PUSH2 0x19A4 DUP3 PUSH2 0x191D JUMP JUMPDEST PUSH2 0x19AE DUP2 DUP6 PUSH2 0x1928 JUMP JUMPDEST SWAP4 POP PUSH2 0x19B9 DUP4 PUSH2 0x1939 JUMP JUMPDEST DUP1 PUSH1 0x0 JUMPDEST DUP4 DUP2 LT ISZERO PUSH2 0x19EA JUMPI DUP2 MLOAD PUSH2 0x19D1 DUP9 DUP3 PUSH2 0x1974 JUMP JUMPDEST SWAP8 POP PUSH2 0x19DC DUP4 PUSH2 0x198C JUMP JUMPDEST SWAP3 POP POP PUSH1 0x1 DUP2 ADD SWAP1 POP PUSH2 0x19BD JUMP JUMPDEST POP DUP6 SWAP4 POP POP POP POP SWAP3 SWAP2 POP POP JUMP JUMPDEST PUSH1 0x0 PUSH1 0x20 DUP3 ADD SWAP1 POP DUP2 DUP2 SUB PUSH1 0x0 DUP4 ADD MSTORE PUSH2 0x1A11 DUP2 DUP5 PUSH2 0x1999 JUMP JUMPDEST SWAP1 POP SWAP3 SWAP2 POP POP JUMP JUMPDEST PUSH1 0x0 PUSH1 0x40 DUP3 ADD SWAP1 POP DUP2 DUP2 SUB PUSH1 0x0 DUP4 ADD MSTORE PUSH2 0x1A33 DUP2 DUP6 PUSH2 0x1513 JUMP JUMPDEST SWAP1 POP DUP2 DUP2 SUB PUSH1 0x20 DUP4 ADD MSTORE PUSH2 0x1A47 DUP2 DUP5 PUSH2 0x1513 JUMP JUMPDEST SWAP1 POP SWAP4 SWAP3 POP POP POP JUMP JUMPDEST PUSH1 0x0 DUP1 PUSH1 0x40 DUP4 DUP6 SUB SLT ISZERO PUSH2 0x1A67 JUMPI PUSH2 0x1A66 PUSH2 0x156E JUMP JUMPDEST JUMPDEST PUSH1 0x0 PUSH2 0x1A75 DUP6 DUP3 DUP7 ADD PUSH2 0x15BC JUMP JUMPDEST SWAP3 POP POP PUSH1 0x20 PUSH2 0x1A86 DUP6 DUP3 DUP7 ADD PUSH2 0x15BC JUMP JUMPDEST SWAP2 POP POP SWAP3 POP SWAP3 SWAP1 POP JUMP JUMPDEST PUSH32 0x4E487B7100000000000000000000000000000000000000000000000000000000 PUSH1 0x0 MSTORE PUSH1 0x22 PUSH1 0x4 MSTORE PUSH1 0x24 PUSH1 0x0 REVERT JUMPDEST PUSH1 0x0 PUSH1 0x2 DUP3 DIV SWAP1 POP PUSH1 0x1 DUP3 AND DUP1 PUSH2 0x1AD7 JUMPI PUSH1 0x7F DUP3 AND SWAP2 POP JUMPDEST PUSH1 0x20 DUP3 LT DUP2 SUB PUSH2 0x1AEA JUMPI PUSH2 0x1AE9 PUSH2 0x1A90 JUMP JUMPDEST JUMPDEST POP SWAP2 SWAP1 POP JUMP JUMPDEST PUSH1 0x0 DUP2 SWAP1 POP SWAP2 SWAP1 POP JUMP JUMPDEST PUSH2 0x1B0B PUSH2 0x1B06 DUP3 PUSH2 0x13D9 JUMP JUMPDEST PUSH2 0x1AF0 JUMP JUMPDEST DUP3 MSTORE POP POP JUMP JUMPDEST PUSH1 0x0 PUSH2 0x1B1C DUP3 PUSH2 0x1573 JUMP JUMPDEST SWAP1 POP SWAP2 SWAP1 POP JUMP JUMPDEST PUSH1 0x0 DUP2 PUSH1 0x60 SHL SWAP1 POP SWAP2 SWAP1 POP JUMP JUMPDEST PUSH1 0x0 PUSH2 0x1B3B DUP3 PUSH2 0x1B23 JUMP JUMPDEST SWAP1 POP SWAP2 SWAP1 POP JUMP JUMPDEST PUSH1 0x0 PUSH2 0x1B4D DUP3 PUSH2 0x1B30 JUMP JUMPDEST SWAP1 POP SWAP2 SWAP1 POP JUMP JUMPDEST PUSH2 0x1B65 PUSH2 0x1B60 DUP3 PUSH2 0x1B11 JUMP JUMPDEST PUSH2 0x1B42 JUMP JUMPDEST DUP3 MSTORE POP POP JUMP JUMPDEST PUSH1 0x0 PUSH2 0x1B77 DUP3 DUP7 PUSH2 0x1AFA JUMP JUMPDEST PUSH1 0x20 DUP3 ADD SWAP2 POP PUSH2 0x1B87 DUP3 DUP6 PUSH2 0x1B54 JUMP JUMPDEST PUSH1 0x14 DUP3 ADD SWAP2 POP PUSH2 0x1B97 DUP3 DUP5 PUSH2 0x1AFA JUMP JUMPDEST PUSH1 0x20 DUP3 ADD SWAP2 POP DUP2 SWAP1 POP SWAP5 SWAP4 POP POP POP POP JUMP JUMPDEST PUSH32 0x4E487B7100000000000000000000000000000000000000000000000000000000 PUSH1 0x0 MSTORE PUSH1 0x12 PUSH1 0x4 MSTORE PUSH1 0x24 PUSH1 0x0 REVERT JUMPDEST PUSH1 0x0 PUSH2 0x1BE2 DUP3 PUSH2 0x13D9 JUMP JUMPDEST SWAP2 POP PUSH2 0x1BED DUP4 PUSH2 0x13D9 JUMP JUMPDEST SWAP3 POP DUP3 PUSH2 0x1BFD JUMPI PUSH2 0x1BFC PUSH2 0x1BA8 JUMP JUMPDEST JUMPDEST DUP3 DUP3 MOD SWAP1 POP SWAP3 SWAP2 POP POP JUMP JUMPDEST PUSH32 0x4E487B7100000000000000000000000000000000000000000000000000000000 PUSH1 0x0 MSTORE PUSH1 0x32 PUSH1 0x4 MSTORE PUSH1 0x24 PUSH1 0x0 REVERT JUMPDEST PUSH32 0x4E487B7100000000000000000000000000000000000000000000000000000000 PUSH1 0x0 MSTORE PUSH1 0x41 PUSH1 0x4 MSTORE PUSH1 0x24 PUSH1 0x0 REVERT JUMPDEST PUSH1 0x0 DUP2 SWAP1 POP DUP2 PUSH1 0x0 MSTORE PUSH1 0x20 PUSH1 0x0 KECCAK256 SWAP1 POP SWAP2 SWAP1 POP JUMP JUMPDEST PUSH1 0x0 PUSH1 0x20 PUSH1 0x1F DUP4 ADD DIV SWAP1 POP SWAP2 SWAP1 POP JUMP JUMPDEST PUSH1 0x0 DUP3 DUP3 SHL SWAP1 POP SWAP3 SWAP2 POP POP JUMP JUMPDEST PUSH1 0x0 PUSH1 0x8 DUP4 MUL PUSH2 0x1CC8 PUSH32 0xFFFFFFFFFFFFFFFFFFFFFFFFFFFFFFFFFFFFFFFFFFFFFFFFFFFFFFFFFFFFFFFF DUP3 PUSH2 0x1C8B JUMP JUMPDEST PUSH2 0x1CD2 DUP7 DUP4 PUSH2 0x1C8B JUMP JUMPDEST SWAP6 POP DUP1 NOT DUP5 AND SWAP4 POP DUP1 DUP7 AND DUP5 OR SWAP3 POP POP POP SWAP4 SWAP3 POP POP POP JUMP JUMPDEST PUSH1 0x0 DUP2 SWAP1 POP SWAP2 SWAP1 POP JUMP JUMPDEST PUSH1 0x0 PUSH2 0x1D0F PUSH2 0x1D0A PUSH2 0x1D05 DUP5 PUSH2 0x13D9 JUMP JUMPDEST PUSH2 0x1CEA JUMP JUMPDEST PUSH2 0x13D9 JUMP JUMPDEST SWAP1 POP SWAP2 SWAP1 POP JUMP JUMPDEST PUSH1 0x0 DUP2 SWAP1 POP SWAP2 SWAP1 POP JUMP JUMPDEST PUSH2 0x1D29 DUP4 PUSH2 0x1CF4 JUMP JUMPDEST PUSH2 0x1D3D PUSH2 0x1D35 DUP3 PUSH2 0x1D16 JUMP JUMPDEST DUP5 DUP5 SLOAD PUSH2 0x1C98 JUMP JUMPDEST DUP3 SSTORE POP POP POP POP JUMP JUMPDEST PUSH1 0x0 SWAP1 JUMP JUMPDEST PUSH2 0x1D52 PUSH2 0x1D45 JUMP JUMPDEST PUSH2 0x1D5D DUP2 DUP5 DUP5 PUSH2 0x1D20 JUMP JUMPDEST POP POP POP JUMP JUMPDEST JUMPDEST DUP2 DUP2 LT ISZERO PUSH2 0x1D81 JUMPI PUSH2 0x1D76 PUSH1 0x0 DUP3 PUSH2 0x1D4A JUMP JUMPDEST PUSH1 0x1 DUP2 ADD SWAP1 POP PUSH2 0x1D63 JUMP JUMPDEST POP POP JUMP JUMPDEST PUSH1 0x1F DUP3 GT ISZERO PUSH2 0x1DC6 JUMPI PUSH2 0x1D97 DUP2 PUSH2 0x1C66 JUMP JUMPDEST PUSH2 0x1DA0 DUP5 PUSH2 0x1C7B JUMP JUMPDEST DUP2 ADD PUSH1 0x20 DUP6 LT ISZERO PUSH2 0x1DAF JUMPI DUP2 SWAP1 POP JUMPDEST PUSH2 0x1DC3 PUSH2 0x1DBB DUP6 PUSH2 0x1C7B JUMP JUMPDEST DUP4 ADD DUP3 PUSH2 0x1D62 JUMP JUMPDEST POP POP JUMPDEST POP POP POP JUMP JUMPDEST PUSH1 0x0 DUP3 DUP3 SHR SWAP1 POP SWAP3 SWAP2 POP POP JUMP JUMPDEST PUSH1 0x0 PUSH2 0x1DE9 PUSH1 0x0 NOT DUP5 PUSH1 0x8 MUL PUSH2 0x1DCB JUMP JUMPDEST NOT DUP1 DUP4 AND SWAP2 POP POP SWAP3 SWAP2 POP POP JUMP JUMPDEST PUSH1 0x0 PUSH2 0x1E02 DUP4 DUP4 PUSH2 0x1DD8 JUMP JUMPDEST SWAP2 POP DUP3 PUSH1 0x2 MUL DUP3 OR SWAP1 POP SWAP3 SWAP2 POP POP JUMP JUMPDEST PUSH2 0x1E1B DUP3 PUSH2 0x14BC JUMP JUMPDEST PUSH8 0xFFFFFFFFFFFFFFFF DUP2 GT ISZERO PUSH2 0x1E34 JUMPI PUSH2 0x1E33 PUSH2 0x1C37 JUMP JUMPDEST JUMPDEST PUSH2 0x1E3E DUP3 SLOAD PUSH2 0x1ABF JUMP JUMPDEST PUSH2 0x1E49 DUP3 DUP3 DUP6 PUSH2 0x1D85 JUMP JUMPDEST PUSH1 0x0 PUSH1 0x20 SWAP1 POP PUSH1 0x1F DUP4 GT PUSH1 0x1 DUP2 EQ PUSH2 0x1E7C JUMPI PUSH1 0x0 DUP5 ISZERO PUSH2 0x1E6A JUMPI DUP3 DUP8 ADD MLOAD SWAP1 POP JUMPDEST PUSH2 0x1E74 DUP6 DUP3 PUSH2 0x1DF6 JUMP JUMPDEST DUP7 SSTORE POP PUSH2 0x1EDC JUMP JUMPDEST PUSH1 0x1F NOT DUP5 AND PUSH2 0x1E8A DUP7 PUSH2 0x1C66 JUMP JUMPDEST PUSH1 0x0 JUMPDEST DUP3 DUP2 LT ISZERO PUSH2 0x1EB2 JUMPI DUP5 DUP10 ADD MLOAD DUP3 SSTORE PUSH1 0x1 DUP3 ADD SWAP2 POP PUSH1 0x20 DUP6 ADD SWAP5 POP PUSH1 0x20 DUP2 ADD SWAP1 POP PUSH2 0x1E8D JUMP JUMPDEST DUP7 DUP4 LT ISZERO PUSH2 0x1ECF JUMPI DUP5 DUP10 ADD MLOAD PUSH2 0x1ECB PUSH1 0x1F DUP10 AND DUP3 PUSH2 0x1DD8 JUMP JUMPDEST DUP4 SSTORE POP JUMPDEST PUSH1 0x1 PUSH1 0x2 DUP9 MUL ADD DUP9 SSTORE POP POP POP JUMPDEST POP POP POP POP POP POP JUMP JUMPDEST PUSH1 0x0 PUSH2 0x1EEF DUP3 PUSH2 0x13D9 JUMP JUMPDEST SWAP2 POP PUSH32 0xFFFFFFFFFFFFFFFFFFFFFFFFFFFFFFFFFFFFFFFFFFFFFFFFFFFFFFFFFFFFFFFF DUP3 SUB PUSH2 0x1F21 JUMPI PUSH2 0x1F20 PUSH2 0x13E3 JUMP JUMPDEST JUMPDEST PUSH1 0x1 DUP3 ADD SWAP1 POP SWAP2 SWAP1 POP JUMP INVALID LOG2 PUSH5 0x6970667358 0x22 SLT KECCAK256 DUP4 CALL 0xBB 0x27 0xF7 0xAA SWAP10 SWAP11 0xC4 0xE0 BASEFEE 0xD1 CALLER NOT OR SWAP14 0xE9 KECCAK256 0x4A 0xEA LOG3 0x29 0xB4 RETURN DUP4 CODESIZE PUSH7 0x1E63BDB09A6473 PUSH16 0x6C6343000813003368747470733A2F2F PUSH2 0x7070 PUSH5 0x6174612E68 PUSH22 0x6E6772796170702E636F2E6B722F70726F66696C652F ORIGIN ADDRESS BALANCE CALLDATALOAD ADDRESS CALLDATASIZE 0x2F ORIGIN CODECOPY 0x2F 0x4D BALANCE CALLVALUE CALLER CALLDATALOAD CALLDATALOAD CALLDATALOAD CALLER CALLDATALOAD CODECOPY CALLDATACOPY ORIGIN ADDRESS CODECOPY CALLVALUE CALLDATACOPY CALLDATASIZE CALLER 0x2E PUSH11 0x706768747470733A2F2F73 CALLER 0x2E PUSH16 0x7262692E6B722F646174612F66696C65 0x2F PUSH22 0x6E697465642F323935303633313136335F526447626A PUSH4 0x4C765F37 BALANCE ADDRESS ADDRESS CALLER CALLER CALLDATALOAD CALLDATALOAD ADDRESS 0x5F POP MLOAD PUSH15 0x47377048445F696D6167655F323831 ADDRESS ORIGIN CODECOPY 0x2E PUSH11 0x70656768747470733A2F2F PUSH21 0x68756D622E6D742E636F2E6B722F30362F32303133 0x2F ADDRESS CALLVALUE 0x2F ORIGIN ADDRESS BALANCE CALLER ADDRESS CALLVALUE BALANCE CALLVALUE ORIGIN BALANCE ORIGIN CALLDATALOAD CALLDATALOAD CALLER BALANCE CALLDATASIZE ORIGIN BALANCE CODESIZE 0x5F BALANCE 0x2E PUSH11 0x70672F64696D732F6F7074 PUSH10 0x6D697A652F0000000000 "
				},
				"gasEstimates": {
					"creation": {
						"codeDepositCost": "1606800",
						"executionCost": "infinite",
						"totalCost": "infinite"
					},
					"external": {
						"allowance(address,address)": "infinite",
						"approve(address,uint256)": "23169",
						"balanceOf(address)": "2908",
						"balances(address)": "2859",
						"burn(uint256)": "infinite",
						"buyPoketmon()": "infinite",
						"decimals()": "2560",
						"getPoketmon()": "infinite",
						"getPoketmonUsers()": "infinite",
						"name()": "infinite",
						"poketmons(address,uint256)": "infinite",
						"symbol()": "infinite",
						"totalSupply()": "2497",
						"transfer(address,uint256)": "infinite",
						"transferFrom(address,address,uint256)": "infinite",
						"users(uint256)": "5004"
					}
				},
				"methodIdentifiers": {
					"allowance(address,address)": "dd62ed3e",
					"approve(address,uint256)": "095ea7b3",
					"balanceOf(address)": "70a08231",
					"balances(address)": "27e235e3",
					"burn(uint256)": "42966c68",
					"buyPoketmon()": "26255d8d",
					"decimals()": "313ce567",
					"getPoketmon()": "2eab183d",
					"getPoketmonUsers()": "7ff9cd71",
					"name()": "06fdde03",
					"poketmons(address,uint256)": "860b951d",
					"symbol()": "95d89b41",
					"totalSupply()": "18160ddd",
					"transfer(address,uint256)": "a9059cbb",
					"transferFrom(address,address,uint256)": "23b872dd",
					"users(uint256)": "365b98b2"
				}
			},
			"storageLayout": {
				"storage": [
					{
						"astId": 6,
						"contract": "contracts/Poketmon.sol:Poketmon",
						"label": "name",
						"offset": 0,
						"slot": "0",
						"type": "t_string_storage"
					},
					{
						"astId": 8,
						"contract": "contracts/Poketmon.sol:Poketmon",
						"label": "symbol",
						"offset": 0,
						"slot": "1",
						"type": "t_string_storage"
					},
					{
						"astId": 11,
						"contract": "contracts/Poketmon.sol:Poketmon",
						"label": "decimals",
						"offset": 0,
						"slot": "2",
						"type": "t_uint8"
					},
					{
						"astId": 14,
						"contract": "contracts/Poketmon.sol:Poketmon",
						"label": "totalSupply",
						"offset": 0,
						"slot": "3",
						"type": "t_uint256"
					},
					{
						"astId": 16,
						"contract": "contracts/Poketmon.sol:Poketmon",
						"label": "owner",
						"offset": 0,
						"slot": "4",
						"type": "t_address"
					},
					{
						"astId": 20,
						"contract": "contracts/Poketmon.sol:Poketmon",
						"label": "balances",
						"offset": 0,
						"slot": "5",
						"type": "t_mapping(t_address,t_uint256)"
					},
					{
						"astId": 27,
						"contract": "contracts/Poketmon.sol:Poketmon",
						"label": "allowance",
						"offset": 0,
						"slot": "6",
						"type": "t_mapping(t_address,t_mapping(t_address,t_uint256))"
					},
					{
						"astId": 325,
						"contract": "contracts/Poketmon.sol:Poketmon",
						"label": "tokenPrice",
						"offset": 0,
						"slot": "7",
						"type": "t_uint256"
					},
					{
						"astId": 332,
						"contract": "contracts/Poketmon.sol:Poketmon",
						"label": "poketmonName",
						"offset": 0,
						"slot": "8",
						"type": "t_array(t_string_storage)dyn_storage"
					},
					{
						"astId": 339,
						"contract": "contracts/Poketmon.sol:Poketmon",
						"label": "poketmonUrl",
						"offset": 0,
						"slot": "9",
						"type": "t_array(t_string_storage)dyn_storage"
					},
					{
						"astId": 345,
						"contract": "contracts/Poketmon.sol:Poketmon",
						"label": "poketmons",
						"offset": 0,
						"slot": "10",
						"type": "t_mapping(t_address,t_array(t_struct(Pokets)319_storage)dyn_storage)"
					},
					{
						"astId": 349,
						"contract": "contracts/Poketmon.sol:Poketmon",
						"label": "users",
						"offset": 0,
						"slot": "11",
						"type": "t_array(t_struct(Users)322_storage)dyn_storage"
					}
				],
				"types": {
					"t_address": {
						"encoding": "inplace",
						"label": "address",
						"numberOfBytes": "20"
					},
					"t_array(t_string_storage)dyn_storage": {
						"base": "t_string_storage",
						"encoding": "dynamic_array",
						"label": "string[]",
						"numberOfBytes": "32"
					},
					"t_array(t_struct(Pokets)319_storage)dyn_storage": {
						"base": "t_struct(Pokets)319_storage",
						"encoding": "dynamic_array",
						"label": "struct Poketmon.Pokets[]",
						"numberOfBytes": "32"
					},
					"t_array(t_struct(Users)322_storage)dyn_storage": {
						"base": "t_struct(Users)322_storage",
						"encoding": "dynamic_array",
						"label": "struct Poketmon.Users[]",
						"numberOfBytes": "32"
					},
					"t_mapping(t_address,t_array(t_struct(Pokets)319_storage)dyn_storage)": {
						"encoding": "mapping",
						"key": "t_address",
						"label": "mapping(address => struct Poketmon.Pokets[])",
						"numberOfBytes": "32",
						"value": "t_array(t_struct(Pokets)319_storage)dyn_storage"
					},
					"t_mapping(t_address,t_mapping(t_address,t_uint256))": {
						"encoding": "mapping",
						"key": "t_address",
						"label": "mapping(address => mapping(address => uint256))",
						"numberOfBytes": "32",
						"value": "t_mapping(t_address,t_uint256)"
					},
					"t_mapping(t_address,t_uint256)": {
						"encoding": "mapping",
						"key": "t_address",
						"label": "mapping(address => uint256)",
						"numberOfBytes": "32",
						"value": "t_uint256"
					},
					"t_string_storage": {
						"encoding": "bytes",
						"label": "string",
						"numberOfBytes": "32"
					},
					"t_struct(Pokets)319_storage": {
						"encoding": "inplace",
						"label": "struct Poketmon.Pokets",
						"members": [
							{
								"astId": 316,
								"contract": "contracts/Poketmon.sol:Poketmon",
								"label": "url",
								"offset": 0,
								"slot": "0",
								"type": "t_string_storage"
							},
							{
								"astId": 318,
								"contract": "contracts/Poketmon.sol:Poketmon",
								"label": "name",
								"offset": 0,
								"slot": "1",
								"type": "t_string_storage"
							}
						],
						"numberOfBytes": "64"
					},
					"t_struct(Users)322_storage": {
						"encoding": "inplace",
						"label": "struct Poketmon.Users",
						"members": [
							{
								"astId": 321,
								"contract": "contracts/Poketmon.sol:Poketmon",
								"label": "account",
								"offset": 0,
								"slot": "0",
								"type": "t_address"
							}
						],
						"numberOfBytes": "32"
					},
					"t_uint256": {
						"encoding": "inplace",
						"label": "uint256",
						"numberOfBytes": "32"
					},
					"t_uint8": {
						"encoding": "inplace",
						"label": "uint8",
						"numberOfBytes": "1"
					}
				}
			},
			"userdoc": {
				"kind": "user",
				"methods": {},
				"version": 1
			}
		}
	}
}