{
  "contractName": "ERC20",
  "abi": [
    {
      "inputs": [
        {
          "internalType": "string",
          "name": "_name",
          "type": "string"
        },
        {
          "internalType": "string",
          "name": "_symbol",
          "type": "string"
        },
        {
          "internalType": "uint256",
          "name": "_amount",
          "type": "uint256"
        }
      ],
      "stateMutability": "nonpayable",
      "type": "constructor"
    },
    {
      "anonymous": false,
      "inputs": [
        {
          "indexed": false,
          "internalType": "address",
          "name": "owner",
          "type": "address"
        },
        {
          "indexed": false,
          "internalType": "address",
          "name": "spender",
          "type": "address"
        },
        {
          "indexed": false,
          "internalType": "uint256",
          "name": "value",
          "type": "uint256"
        }
      ],
      "name": "Approval",
      "type": "event"
    },
    {
      "anonymous": false,
      "inputs": [
        {
          "indexed": false,
          "internalType": "address",
          "name": "from",
          "type": "address"
        },
        {
          "indexed": false,
          "internalType": "address",
          "name": "to",
          "type": "address"
        },
        {
          "indexed": false,
          "internalType": "uint256",
          "name": "value",
          "type": "uint256"
        }
      ],
      "name": "Transfer",
      "type": "event"
    },
    {
      "anonymous": false,
      "inputs": [
        {
          "indexed": true,
          "internalType": "address",
          "name": "from",
          "type": "address"
        },
        {
          "indexed": true,
          "internalType": "address",
          "name": "to",
          "type": "address"
        },
        {
          "indexed": false,
          "internalType": "uint256",
          "name": "value",
          "type": "uint256"
        },
        {
          "indexed": false,
          "internalType": "string",
          "name": "symbol",
          "type": "string"
        }
      ],
      "name": "TransferWithSymbol",
      "type": "event"
    },
    {
      "inputs": [
        {
          "internalType": "address",
          "name": "",
          "type": "address"
        },
        {
          "internalType": "address",
          "name": "",
          "type": "address"
        }
      ],
      "name": "allowance",
      "outputs": [
        {
          "internalType": "uint256",
          "name": "",
          "type": "uint256"
        }
      ],
      "stateMutability": "view",
      "type": "function",
      "constant": true
    },
    {
      "inputs": [
        {
          "internalType": "address",
          "name": "",
          "type": "address"
        }
      ],
      "name": "balances",
      "outputs": [
        {
          "internalType": "uint256",
          "name": "",
          "type": "uint256"
        }
      ],
      "stateMutability": "view",
      "type": "function",
      "constant": true
    },
    {
      "inputs": [],
      "name": "decimals",
      "outputs": [
        {
          "internalType": "uint8",
          "name": "",
          "type": "uint8"
        }
      ],
      "stateMutability": "view",
      "type": "function",
      "constant": true
    },
    {
      "inputs": [],
      "name": "name",
      "outputs": [
        {
          "internalType": "string",
          "name": "",
          "type": "string"
        }
      ],
      "stateMutability": "view",
      "type": "function",
      "constant": true
    },
    {
      "inputs": [],
      "name": "symbol",
      "outputs": [
        {
          "internalType": "string",
          "name": "",
          "type": "string"
        }
      ],
      "stateMutability": "view",
      "type": "function",
      "constant": true
    },
    {
      "inputs": [],
      "name": "totalSupply",
      "outputs": [
        {
          "internalType": "uint256",
          "name": "",
          "type": "uint256"
        }
      ],
      "stateMutability": "view",
      "type": "function",
      "constant": true
    },
    {
      "inputs": [
        {
          "internalType": "address",
          "name": "account",
          "type": "address"
        }
      ],
      "name": "balanceOf",
      "outputs": [
        {
          "internalType": "uint256",
          "name": "",
          "type": "uint256"
        }
      ],
      "stateMutability": "view",
      "type": "function",
      "constant": true
    },
    {
      "inputs": [
        {
          "internalType": "address",
          "name": "to",
          "type": "address"
        },
        {
          "internalType": "uint256",
          "name": "amount",
          "type": "uint256"
        }
      ],
      "name": "transfer",
      "outputs": [
        {
          "internalType": "bool",
          "name": "",
          "type": "bool"
        }
      ],
      "stateMutability": "nonpayable",
      "type": "function"
    },
    {
      "inputs": [
        {
          "internalType": "address",
          "name": "spender",
          "type": "address"
        },
        {
          "internalType": "uint256",
          "name": "amount",
          "type": "uint256"
        }
      ],
      "name": "approve",
      "outputs": [
        {
          "internalType": "bool",
          "name": "",
          "type": "bool"
        }
      ],
      "stateMutability": "nonpayable",
      "type": "function"
    },
    {
      "inputs": [
        {
          "internalType": "address",
          "name": "spender",
          "type": "address"
        },
        {
          "internalType": "address",
          "name": "to",
          "type": "address"
        },
        {
          "internalType": "uint256",
          "name": "amount",
          "type": "uint256"
        }
      ],
      "name": "transferFrom",
      "outputs": [
        {
          "internalType": "bool",
          "name": "",
          "type": "bool"
        }
      ],
      "stateMutability": "nonpayable",
      "type": "function"
    },
    {
      "inputs": [
        {
          "internalType": "uint256",
          "name": "amount",
          "type": "uint256"
        }
      ],
      "name": "burn",
      "outputs": [],
      "stateMutability": "nonpayable",
      "type": "function"
    }
  ],
  "bytecode": "0x6080604052601260025f6101000a81548160ff021916908360ff1602179055503480156200002b575f80fd5b506040516200165f3803806200165f833981810160405281019062000051919062000329565b3360045f6101000a81548173ffffffffffffffffffffffffffffffffffffffff021916908373ffffffffffffffffffffffffffffffffffffffff160217905550825f9081620000a19190620005ee565b508160019081620000b39190620005ee565b50620000f160025f9054906101000a900460ff1660ff16600a620000d891906200084f565b82620000e591906200089f565b620000fa60201b60201c565b50505062000923565b8060055f3373ffffffffffffffffffffffffffffffffffffffff1673ffffffffffffffffffffffffffffffffffffffff1681526020019081526020015f205f828254620001489190620008e9565b925050819055508060035f828254620001629190620008e9565b9250508190555050565b5f604051905090565b5f80fd5b5f80fd5b5f80fd5b5f80fd5b5f601f19601f8301169050919050565b7f4e487b71000000000000000000000000000000000000000000000000000000005f52604160045260245ffd5b620001cd8262000185565b810181811067ffffffffffffffff82111715620001ef57620001ee62000195565b5b80604052505050565b5f620002036200016c565b9050620002118282620001c2565b919050565b5f67ffffffffffffffff82111562000233576200023262000195565b5b6200023e8262000185565b9050602081019050919050565b5f5b838110156200026a5780820151818401526020810190506200024d565b5f8484015250505050565b5f6200028b620002858462000216565b620001f8565b905082815260208101848484011115620002aa57620002a962000181565b5b620002b78482856200024b565b509392505050565b5f82601f830112620002d657620002d56200017d565b5b8151620002e884826020860162000275565b91505092915050565b5f819050919050565b6200030581620002f1565b811462000310575f80fd5b50565b5f815190506200032381620002fa565b92915050565b5f805f6060848603121562000343576200034262000175565b5b5f84015167ffffffffffffffff81111562000363576200036262000179565b5b6200037186828701620002bf565b935050602084015167ffffffffffffffff81111562000395576200039462000179565b5b620003a386828701620002bf565b9250506040620003b68682870162000313565b9150509250925092565b5f81519050919050565b7f4e487b71000000000000000000000000000000000000000000000000000000005f52602260045260245ffd5b5f60028204905060018216806200040f57607f821691505b602082108103620004255762000424620003ca565b5b50919050565b5f819050815f5260205f209050919050565b5f6020601f8301049050919050565b5f82821b905092915050565b5f60088302620004897fffffffffffffffffffffffffffffffffffffffffffffffffffffffffffffffff826200044c565b6200049586836200044c565b95508019841693508086168417925050509392505050565b5f819050919050565b5f620004d6620004d0620004ca84620002f1565b620004ad565b620002f1565b9050919050565b5f819050919050565b620004f183620004b6565b620005096200050082620004dd565b84845462000458565b825550505050565b5f90565b6200051f62000511565b6200052c818484620004e6565b505050565b5b818110156200055357620005475f8262000515565b60018101905062000532565b5050565b601f821115620005a2576200056c816200042b565b62000577846200043d565b8101602085101562000587578190505b6200059f62000596856200043d565b83018262000531565b50505b505050565b5f82821c905092915050565b5f620005c45f1984600802620005a7565b1980831691505092915050565b5f620005de8383620005b3565b9150826002028217905092915050565b620005f982620003c0565b67ffffffffffffffff81111562000615576200061462000195565b5b620006218254620003f7565b6200062e82828562000557565b5f60209050601f83116001811462000664575f84156200064f578287015190505b6200065b8582620005d1565b865550620006ca565b601f19841662000674866200042b565b5f5b828110156200069d5784890151825560018201915060208501945060208101905062000676565b86831015620006bd5784890151620006b9601f891682620005b3565b8355505b6001600288020188555050505b505050505050565b7f4e487b71000000000000000000000000000000000000000000000000000000005f52601160045260245ffd5b5f8160011c9050919050565b5f808291508390505b60018511156200075c57808604811115620007345762000733620006d2565b5b6001851615620007445780820291505b80810290506200075485620006ff565b945062000714565b94509492505050565b5f8262000776576001905062000848565b8162000785575f905062000848565b81600181146200079e5760028114620007a957620007df565b600191505062000848565b60ff841115620007be57620007bd620006d2565b5b8360020a915084821115620007d857620007d7620006d2565b5b5062000848565b5060208310610133831016604e8410600b8410161715620008195782820a905083811115620008135762000812620006d2565b5b62000848565b6200082884848460016200070b565b92509050818404811115620008425762000841620006d2565b5b81810290505b9392505050565b5f6200085b82620002f1565b91506200086883620002f1565b9250620008977fffffffffffffffffffffffffffffffffffffffffffffffffffffffffffffffff848462000765565b905092915050565b5f620008ab82620002f1565b9150620008b883620002f1565b9250828202620008c881620002f1565b91508282048414831517620008e257620008e1620006d2565b5b5092915050565b5f620008f582620002f1565b91506200090283620002f1565b92508282019050808211156200091d576200091c620006d2565b5b92915050565b610d2e80620009315f395ff3fe608060405234801561000f575f80fd5b50600436106100a7575f3560e01c8063313ce5671161006f578063313ce5671461017757806342966c681461019557806370a08231146101b157806395d89b41146101e1578063a9059cbb146101ff578063dd62ed3e1461022f576100a7565b806306fdde03146100ab578063095ea7b3146100c957806318160ddd146100f957806323b872dd1461011757806327e235e314610147575b5f80fd5b6100b361025f565b6040516100c091906108a1565b60405180910390f35b6100e360048036038101906100de9190610952565b6102ea565b6040516100f091906109aa565b60405180910390f35b6101016103ad565b60405161010e91906109d2565b60405180910390f35b610131600480360381019061012c91906109eb565b6103b3565b60405161013e91906109aa565b60405180910390f35b610161600480360381019061015c9190610a3b565b610577565b60405161016e91906109d2565b60405180910390f35b61017f61058c565b60405161018c9190610a81565b60405180910390f35b6101af60048036038101906101aa9190610a9a565b61059e565b005b6101cb60048036038101906101c69190610a3b565b61060c565b6040516101d891906109d2565b60405180910390f35b6101e9610652565b6040516101f691906108a1565b60405180910390f35b61021960048036038101906102149190610952565b6106de565b60405161022691906109aa565b60405180910390f35b61024960048036038101906102449190610ac5565b6107f7565b60405161025691906109d2565b60405180910390f35b5f805461026b90610b30565b80601f016020809104026020016040519081016040528092919081815260200182805461029790610b30565b80156102e25780601f106102b9576101008083540402835291602001916102e2565b820191905f5260205f20905b8154815290600101906020018083116102c557829003601f168201915b505050505081565b5f8160065f3373ffffffffffffffffffffffffffffffffffffffff1673ffffffffffffffffffffffffffffffffffffffff1681526020019081526020015f205f8573ffffffffffffffffffffffffffffffffffffffff1673ffffffffffffffffffffffffffffffffffffffff1681526020019081526020015f20819055507f8c5be1e5ebec7d5bd14f71427d1e84f3dd0314c0f7b2291e5b200ac8c7c3b92533848460405161039b93929190610b6f565b60405180910390a16001905092915050565b60035481565b5f8160065f8673ffffffffffffffffffffffffffffffffffffffff1673ffffffffffffffffffffffffffffffffffffffff1681526020019081526020015f205f3373ffffffffffffffffffffffffffffffffffffffff1673ffffffffffffffffffffffffffffffffffffffff1681526020019081526020015f20541015610438575f80fd5b8160065f8673ffffffffffffffffffffffffffffffffffffffff1673ffffffffffffffffffffffffffffffffffffffff1681526020019081526020015f205f3373ffffffffffffffffffffffffffffffffffffffff1673ffffffffffffffffffffffffffffffffffffffff1681526020019081526020015f205f8282546104bf9190610bd1565b925050819055508160055f8673ffffffffffffffffffffffffffffffffffffffff1673ffffffffffffffffffffffffffffffffffffffff1681526020019081526020015f205f8282546105129190610bd1565b925050819055508160055f8573ffffffffffffffffffffffffffffffffffffffff1673ffffffffffffffffffffffffffffffffffffffff1681526020019081526020015f205f8282546105659190610c04565b92505081905550600190509392505050565b6005602052805f5260405f205f915090505481565b60025f9054906101000a900460ff1681565b8060055f3373ffffffffffffffffffffffffffffffffffffffff1673ffffffffffffffffffffffffffffffffffffffff1681526020019081526020015f205f8282546105ea9190610bd1565b925050819055508060035f8282546106029190610bd1565b9250508190555050565b5f60055f8373ffffffffffffffffffffffffffffffffffffffff1673ffffffffffffffffffffffffffffffffffffffff1681526020019081526020015f20549050919050565b6001805461065f90610b30565b80601f016020809104026020016040519081016040528092919081815260200182805461068b90610b30565b80156106d65780601f106106ad576101008083540402835291602001916106d6565b820191905f5260205f20905b8154815290600101906020018083116106b957829003601f168201915b505050505081565b5f8160055f3373ffffffffffffffffffffffffffffffffffffffff1673ffffffffffffffffffffffffffffffffffffffff1681526020019081526020015f205f82825461072b9190610bd1565b925050819055508160055f8573ffffffffffffffffffffffffffffffffffffffff1673ffffffffffffffffffffffffffffffffffffffff1681526020019081526020015f205f82825461077e9190610c04565b925050819055508273ffffffffffffffffffffffffffffffffffffffff163373ffffffffffffffffffffffffffffffffffffffff167f8519cdb8ad47f1f5f5bc583d2063d1fc1ffed7dac0cab9e8b1f6492aa60cbd7f8460016040516107e5929190610cca565b60405180910390a36001905092915050565b6006602052815f5260405f20602052805f5260405f205f91509150505481565b5f81519050919050565b5f82825260208201905092915050565b5f5b8381101561084e578082015181840152602081019050610833565b5f8484015250505050565b5f601f19601f8301169050919050565b5f61087382610817565b61087d8185610821565b935061088d818560208601610831565b61089681610859565b840191505092915050565b5f6020820190508181035f8301526108b98184610869565b905092915050565b5f80fd5b5f73ffffffffffffffffffffffffffffffffffffffff82169050919050565b5f6108ee826108c5565b9050919050565b6108fe816108e4565b8114610908575f80fd5b50565b5f81359050610919816108f5565b92915050565b5f819050919050565b6109318161091f565b811461093b575f80fd5b50565b5f8135905061094c81610928565b92915050565b5f8060408385031215610968576109676108c1565b5b5f6109758582860161090b565b92505060206109868582860161093e565b9150509250929050565b5f8115159050919050565b6109a481610990565b82525050565b5f6020820190506109bd5f83018461099b565b92915050565b6109cc8161091f565b82525050565b5f6020820190506109e55f8301846109c3565b92915050565b5f805f60608486031215610a0257610a016108c1565b5b5f610a0f8682870161090b565b9350506020610a208682870161090b565b9250506040610a318682870161093e565b9150509250925092565b5f60208284031215610a5057610a4f6108c1565b5b5f610a5d8482850161090b565b91505092915050565b5f60ff82169050919050565b610a7b81610a66565b82525050565b5f602082019050610a945f830184610a72565b92915050565b5f60208284031215610aaf57610aae6108c1565b5b5f610abc8482850161093e565b91505092915050565b5f8060408385031215610adb57610ada6108c1565b5b5f610ae88582860161090b565b9250506020610af98582860161090b565b9150509250929050565b7f4e487b71000000000000000000000000000000000000000000000000000000005f52602260045260245ffd5b5f6002820490506001821680610b4757607f821691505b602082108103610b5a57610b59610b03565b5b50919050565b610b69816108e4565b82525050565b5f606082019050610b825f830186610b60565b610b8f6020830185610b60565b610b9c60408301846109c3565b949350505050565b7f4e487b71000000000000000000000000000000000000000000000000000000005f52601160045260245ffd5b5f610bdb8261091f565b9150610be68361091f565b9250828203905081811115610bfe57610bfd610ba4565b5b92915050565b5f610c0e8261091f565b9150610c198361091f565b9250828201905080821115610c3157610c30610ba4565b5b92915050565b5f819050815f5260205f209050919050565b5f8154610c5581610b30565b610c5f8186610821565b9450600182165f8114610c795760018114610c8f57610cc1565b60ff198316865281151560200286019350610cc1565b610c9885610c37565b5f5b83811015610cb957815481890152600182019150602081019050610c9a565b808801955050505b50505092915050565b5f604082019050610cdd5f8301856109c3565b8181036020830152610cef8184610c49565b9050939250505056fea26469706673582212205941ff0027fb81ca44ada780dfbc04e1d9470ec33c9f91b46dd5fb6397494f8d64736f6c63430008140033",
  "immutableReferences": {},
  "source": "// SPDX-License-Identifier: MIT\npragma solidity ^0.8.19;\n\n//\nimport \"./IERC20.sol\";\n\n//  \n// javascript implements contract is\n\ncontract ERC20 is IERC20 {\n    // ERC20  \n\n    //  \n    string public name;\n\n    //  ( )\n    string public symbol;\n\n    //   (default : 18)\n    uint8 public decimals = 18;\n\n    //   \n    // IERC20    virtual   \n    //    ()\n    uint public override totalSupply;\n\n    //  (        )\n    address private owner;\n\n    //      \n    // memory :      \n    // uint256     string    memory  \n    constructor(string memory _name, string memory _symbol, uint256 _amount) {\n        //               \n        owner = msg.sender;\n        name = _name;\n        symbol = _symbol;\n\n        //      \n        // _amount * (100 ** uint256(decimals))\n\n        //   \n        mint(_amount * (10 ** uint256(decimals)));\n    }\n\n    // balance         \n    mapping(address => uint) public balances;\n    /*\n    balances = {\n      0x1111111111111111111111111111111111111111 : 100,\n      0x1111111111111111111111111111111111111112 : 100,\n      0x1111111111111111111111111111111111111113 : 100,\n    }\n  */\n\n    //       \n    mapping(address => mapping(address => uint)) public override allowance;\n\n    /*\n    allowance = {\n      0x1111111111111111111111111111111111111111 : {\n        0x1111111111111111111111111111111111111114 : 50\n        0x1111111111111111111111111111111111111115 : 50\n      },\n      0x1111111111111111111111111111111111111112 : {\n        0x1111111111111111111111111111111111111116 : 50\n        0x1111111111111111111111111111111111111117 : 50\n      },,\n     \n      0x1111111111111111111111111111111111111113 : {\n        0x1111111111111111111111111111111111111118 : 50\n        0x1111111111111111111111111111111111111119 : 50\n      },,\n    }\n  */\n\n    event TransferWithSymbol(\n        address indexed from,\n        address indexed to,\n        uint256 value,\n        string symbol\n    );\n\n    //   \n    function balanceOf(address account) external view override returns (uint) {\n        return balances[account];\n    }\n\n    //     \n    function transfer(\n        address to,\n        uint amount\n    ) external override returns (bool) {\n        // 1.    \n        balances[msg.sender] -= amount;\n        // 2.    \n        balances[to] += amount;\n        // transfer      \n        // emit     \n        // emit Transfer(msg.sender, to, amount);\n\n        emit TransferWithSymbol(msg.sender, to, amount, symbol);\n\n        return true;\n    }\n\n    //    \n    function approve(\n        address spender,\n        uint amount\n    ) external override returns (bool) {\n        //  \n        allowance[msg.sender][spender] = amount;\n        emit Approval(msg.sender, spender, amount);\n\n        return true;\n    }\n\n    //   \n    // internal :   \n    function mint(uint amount) internal {\n        balances[msg.sender] += amount;\n        totalSupply += amount;\n    }\n\n    //    3    \n    function transferFrom(\n        address spender,\n        address to,\n        uint amount\n    ) external override returns (bool) {\n        //  \n        require(allowance[spender][msg.sender] >= amount);\n\n        allowance[spender][msg.sender] -= amount;\n        balances[spender] -= amount;\n        balances[to] += amount;\n\n        return true;\n    }\n\n    //  \n    //      \n    function burn(uint amount) external {\n        balances[msg.sender] -= amount;\n        totalSupply -= amount;\n    }\n}\n",
  "sourcePath": "/Users/jh/Desktop/programing/blockchain/ERC20/contracts/ERC20.sol",
  "compiler": {
    "name": "solc",
    "version": "0.8.20+commit.a1b79de6.Emscripten.clang"
  },
  "schemaVersion": "3.4.16",
  "updatedAt": "2023-11-18T08:04:40.740Z",
  "networkType": "ethereum",
  "devdoc": {
    "kind": "dev",
    "methods": {},
    "version": 1
  },
  "userdoc": {
    "kind": "user",
    "methods": {},
    "version": 1
  }
}