{
  "contractName": "Baseball",
  "abi": [
    {
      "inputs": [],
      "stateMutability": "nonpayable",
      "type": "constructor"
    },
    {
      "inputs": [
        {
          "internalType": "uint256",
          "name": "_value",
          "type": "uint256"
        }
      ],
      "name": "gameStart",
      "outputs": [],
      "stateMutability": "payable",
      "type": "function",
      "payable": true
    },
    {
      "inputs": [],
      "name": "gameRestart",
      "outputs": [],
      "stateMutability": "nonpayable",
      "type": "function"
    },
    {
      "inputs": [],
      "name": "getReward",
      "outputs": [
        {
          "internalType": "uint256",
          "name": "",
          "type": "uint256"
        }
      ],
      "stateMutability": "view",
      "type": "function",
      "constant": true
    },
    {
      "inputs": [],
      "name": "getProgress",
      "outputs": [
        {
          "internalType": "uint256",
          "name": "",
          "type": "uint256"
        }
      ],
      "stateMutability": "view",
      "type": "function",
      "constant": true
    },
    {
      "inputs": [],
      "name": "getTicket",
      "outputs": [
        {
          "internalType": "uint256",
          "name": "",
          "type": "uint256"
        }
      ],
      "stateMutability": "view",
      "type": "function",
      "constant": true
    },
    {
      "inputs": [],
      "name": "getPlaying",
      "outputs": [
        {
          "internalType": "uint256",
          "name": "",
          "type": "uint256"
        }
      ],
      "stateMutability": "view",
      "type": "function",
      "constant": true
    },
    {
      "inputs": [],
      "name": "getRandom",
      "outputs": [
        {
          "internalType": "uint256",
          "name": "",
          "type": "uint256"
        }
      ],
      "stateMutability": "view",
      "type": "function",
      "constant": true
    },
    {
      "inputs": [],
      "name": "getOwner",
      "outputs": [
        {
          "internalType": "address",
          "name": "",
          "type": "address"
        }
      ],
      "stateMutability": "view",
      "type": "function",
      "constant": true
    },
    {
      "inputs": [],
      "name": "getSender",
      "outputs": [
        {
          "internalType": "address",
          "name": "",
          "type": "address"
        }
      ],
      "stateMutability": "view",
      "type": "function",
      "constant": true
    }
  ],
  "bytecode": "0x6080604052674563918244f400006001553480156200001d57600080fd5b50336000806101000a81548173ffffffffffffffffffffffffffffffffffffffff021916908373ffffffffffffffffffffffffffffffffffffffff1602179055504244414360405160200162000077949392919062000175565b6040516020818303038152906040528051906020012060001c6002819055506064610384600254620000aa9190620001fa565b620000b6919062000261565b600281905550620002be565b6000819050919050565b6000819050919050565b620000eb620000e582620000c2565b620000cc565b82525050565b600073ffffffffffffffffffffffffffffffffffffffff82169050919050565b60006200011e82620000f1565b9050919050565b60008160601b9050919050565b60006200013f8262000125565b9050919050565b6000620001538262000132565b9050919050565b6200016f620001698262000111565b62000146565b82525050565b6000620001838287620000d6565b602082019150620001958286620000d6565b602082019150620001a782856200015a565b601482019150620001b98284620000d6565b60208201915081905095945050505050565b7f4e487b7100000000000000000000000000000000000000000000000000000000600052601260045260246000fd5b60006200020782620000c2565b91506200021483620000c2565b925082620002275762000226620001cb565b5b828206905092915050565b7f4e487b7100000000000000000000000000000000000000000000000000000000600052601160045260246000fd5b60006200026e82620000c2565b91506200027b83620000c2565b9250827fffffffffffffffffffffffffffffffffffffffffffffffffffffffffffffffff03821115620002b357620002b262000232565b5b828201905092915050565b610a7280620002ce6000396000f3fe6080604052600436106100865760003560e01c8063939c445611610059578063939c445614610137578063aacc5a1714610162578063b8a5368a1461018d578063c002c4d6146101a9578063def087b7146101d457610086565b80633d18b9121461008b5780635e01eb5a146100b6578063810ab154146100e1578063893d20e81461010c575b600080fd5b34801561009757600080fd5b506100a06101eb565b6040516100ad919061057d565b60405180910390f35b3480156100c257600080fd5b506100cb6101f5565b6040516100d891906105d9565b60405180910390f35b3480156100ed57600080fd5b506100f66101fd565b604051610103919061057d565b60405180910390f35b34801561011857600080fd5b5061012161025a565b60405161012e91906105d9565b60405180910390f35b34801561014357600080fd5b5061014c610283565b604051610159919061057d565b60405180910390f35b34801561016e57600080fd5b5061017761028d565b604051610184919061057d565b60405180910390f35b6101a760048036038101906101a29190610625565b610325565b005b3480156101b557600080fd5b506101be6104cd565b6040516101cb919061057d565b60405180910390f35b3480156101e057600080fd5b506101e96104d7565b005b6000600454905090565b600033905090565b600080600090506000600181111561021857610217610652565b5b600560009054906101000a900460ff16600181111561023a57610239610652565b5b14158061024957506005600354145b1561025357600190505b8091505090565b60008060009054906101000a900473ffffffffffffffffffffffffffffffffffffffff16905090565b6000600354905090565b60003373ffffffffffffffffffffffffffffffffffffffff1660008054906101000a900473ffffffffffffffffffffffffffffffffffffffff1673ffffffffffffffffffffffffffffffffffffffff161461031d576040517f08c379a0000000000000000000000000000000000000000000000000000000008152600401610314906106de565b60405180910390fd5b600254905090565b60056003541061036a576040517f08c379a00000000000000000000000000000000000000000000000000000000081526004016103619061074a565b60405180910390fd5b60015434146103ae576040517f08c379a00000000000000000000000000000000000000000000000000000000081526004016103a5906107dc565b60405180910390fd5b606481101580156103c057506103e881105b6103ff576040517f08c379a00000000000000000000000000000000000000000000000000000000081526004016103f69061086e565b60405180910390fd5b60016003600082825461041291906108bd565b9250508190555060025481036104b05747600454111561043157600080fd5b3373ffffffffffffffffffffffffffffffffffffffff166108fc479081150290604051600060405180830381858888f19350505050158015610477573d6000803e3d6000fd5b5060006004819055506001600560006101000a81548160ff021916908360018111156104a6576104a5610652565b5b02179055506104ca565b34600460008282546104c291906108bd565b925050819055505b50565b6000600154905090565b424441436040516020016104ee949392919061098e565b6040516020818303038152906040528051906020012060001c600281905550606461038460025461051f9190610a0b565b61052991906108bd565b60028190555060006003819055506000600560006101000a81548160ff0219169083600181111561055d5761055c610652565b5b0217905550565b6000819050919050565b61057781610564565b82525050565b6000602082019050610592600083018461056e565b92915050565b600073ffffffffffffffffffffffffffffffffffffffff82169050919050565b60006105c382610598565b9050919050565b6105d3816105b8565b82525050565b60006020820190506105ee60008301846105ca565b92915050565b600080fd5b61060281610564565b811461060d57600080fd5b50565b60008135905061061f816105f9565b92915050565b60006020828403121561063b5761063a6105f4565b5b600061064984828501610610565b91505092915050565b7f4e487b7100000000000000000000000000000000000000000000000000000000600052602160045260246000fd5b600082825260208201905092915050565b7f61646d696e000000000000000000000000000000000000000000000000000000600082015250565b60006106c8600583610681565b91506106d382610692565b602082019050919050565b600060208201905081810360008301526106f7816106bb565b9050919050565b7f47616d654f766572000000000000000000000000000000000000000000000000600082015250565b6000610734600883610681565b915061073f826106fe565b602082019050919050565b6000602082019050818103600083015261076381610727565b9050919050565b7f7469636b657420616d6f756e74206572726f722e206e6f7420656e6f7567682060008201527f3520657468657200000000000000000000000000000000000000000000000000602082015250565b60006107c6602783610681565b91506107d18261076a565b604082019050919050565b600060208201905081810360008301526107f5816107b9565b9050919050565b7f5f76616c7565206572726f7220283939203c205f76616c7565203c203130303060008201527f2900000000000000000000000000000000000000000000000000000000000000602082015250565b6000610858602183610681565b9150610863826107fc565b604082019050919050565b600060208201905081810360008301526108878161084b565b9050919050565b7f4e487b7100000000000000000000000000000000000000000000000000000000600052601160045260246000fd5b60006108c882610564565b91506108d383610564565b9250827fffffffffffffffffffffffffffffffffffffffffffffffffffffffffffffffff038211156109085761090761088e565b5b828201905092915050565b6000819050919050565b61092e61092982610564565b610913565b82525050565b600061093f82610598565b9050919050565b60008160601b9050919050565b600061095e82610946565b9050919050565b600061097082610953565b9050919050565b61098861098382610934565b610965565b82525050565b600061099a828761091d565b6020820191506109aa828661091d565b6020820191506109ba8285610977565b6014820191506109ca828461091d565b60208201915081905095945050505050565b7f4e487b7100000000000000000000000000000000000000000000000000000000600052601260045260246000fd5b6000610a1682610564565b9150610a2183610564565b925082610a3157610a306109dc565b5b82820690509291505056fea26469706673582212209cdacaacb755248786c3e7884c2630525774bb45d072ac6ddd53df4d5cf4de8864736f6c634300080d0033",
  "immutableReferences": {},
  "source": "// SPDX-License-Identifier: MIT\npragma solidity ^0.8.13;\n\ncontract Baseball {\n  //   3  \n  //     \n  //        CA \n  // CA         \n  //            (  )\n\n  //  \n  address private owner;\n\n  //  \n  // constant       \n  uint256 private constant GAME_COUNT = 5;\n\n  //     \n  uint256 private ticket = 5 ether;\n\n  //   \n  //  3  \n  uint256 private random;\n\n  //  \n  uint256 private progress;\n\n  //  \n  uint256 private reward;\n\n  //   \n  enum GameStatus {\n    Playing,\n    GameOver\n  }\n\n  //  .   0\n  GameStatus gameStatus;\n\n  //  \n  //    1 \n  //     Owner\n  constructor(){\n    owner = msg.sender;\n    \n    // keccak256 :    .   \n    // abi.encodePacked :       \n    random = uint256(keccak256(abi.encodePacked(block.timestamp, block.difficulty, block.coinbase, block.number)));\n\n    // 100 ~ 999   \n    random = (random % 900) + 100;\n  }\n\n  //     \n  function gameStart(uint256 _value) public payable {\n    require(progress < GAME_COUNT, \"GameOver\");\n    require(msg.value == ticket, \"ticket amount error. not enough 5 ether\");\n    require((_value >= 100) && (_value < 1000), \"_value error (99 < _value < 1000)\");\n\n    progress += 1;\n\n    if(_value == random){\n      //  \n      // CA     \n      require(reward <= address(this).balance);\n      payable(msg.sender).transfer(address(this).balance);\n      reward = 0;\n      gameStatus = GameStatus.GameOver;\n    } else {\n      reward += msg.value;\n    }\n\n  }\n\n  //  \n  function gameRestart() public {\n\n    //   \n    random = uint256(keccak256(abi.encodePacked(block.timestamp, block.difficulty, block.coinbase, block.number)));\n    random = (random % 900) + 100;\n\n    //  \n    progress = 0;\n\n    //   \n    gameStatus = GameStatus.Playing;\n\n  }\n\n\n  //    \n  function getReward() public view returns(uint256) {\n    return reward;\n  }\n\n  //    \n  function getProgress() public view returns (uint256) {\n    return progress;\n  }\n\n  //   \n  function getTicket() public view returns (uint256) {\n    return ticket;\n  }\n\n  //  \n  function getPlaying() public view returns (uint256) {\n    //    \n    uint256 Playing = 0;\n    if((gameStatus != GameStatus.Playing) || (progress == GAME_COUNT)){\n      Playing = 1;\n    }\n    return Playing;\n  }\n\n  //   \n  function getRandom() public view returns (uint256) {\n    require(owner == msg.sender, \"admin\");\n    return random;\n  }\n\n  // owner \n  function getOwner() public view returns (address){\n    return owner;\n  }\n\n  // msg.sender \n  function getSender() public view returns (address) {\n    return msg.sender;\n  }\n\n\n}",
  "sourcePath": "/Users/jh/Desktop/programing/blockchain/BaseballGame/contracts/baseball.sol",
  "compiler": {
    "name": "solc",
    "version": "0.8.13+commit.abaa5c0e.Emscripten.clang"
  },
  "schemaVersion": "3.4.16",
  "updatedAt": "2023-10-05T08:07:55.268Z",
  "networkType": "ethereum",
  "devdoc": {
    "kind": "dev",
    "methods": {},
    "version": 1
  },
  "userdoc": {
    "kind": "user",
    "methods": {},
    "version": 1
  }
}