{
  "contractName": "Counter",
  "abi": [
    {
      "inputs": [],
      "stateMutability": "nonpayable",
      "type": "constructor"
    },
    {
      "inputs": [],
      "name": "increment",
      "outputs": [],
      "stateMutability": "nonpayable",
      "type": "function"
    },
    {
      "inputs": [],
      "name": "decrement",
      "outputs": [],
      "stateMutability": "nonpayable",
      "type": "function"
    },
    {
      "inputs": [],
      "name": "getValue",
      "outputs": [
        {
          "internalType": "uint256",
          "name": "",
          "type": "uint256"
        }
      ],
      "stateMutability": "view",
      "type": "function",
      "constant": true
    }
  ],
  "bytecode": "0x608060405234801561001057600080fd5b5061029b806100206000396000f3fe608060405234801561001057600080fd5b50600436106100415760003560e01c806320965255146100465780632baeceb714610064578063d09de08a1461006e575b600080fd5b61004e610078565b60405161005b9190610114565b60405180910390f35b61006c610081565b005b6100766100e0565b005b60008054905090565b60008054036100c5576040517f08c379a00000000000000000000000000000000000000000000000000000000081526004016100bc9061018c565b60405180910390fd5b60016000808282546100d791906101db565b92505081905550565b60016000808282546100f2919061020f565b92505081905550565b6000819050919050565b61010e816100fb565b82525050565b60006020820190506101296000830184610105565b92915050565b600082825260208201905092915050565b7f76616c75652030206572726f7200000000000000000000000000000000000000600082015250565b6000610176600d8361012f565b915061018182610140565b602082019050919050565b600060208201905081810360008301526101a581610169565b9050919050565b7f4e487b7100000000000000000000000000000000000000000000000000000000600052601160045260246000fd5b60006101e6826100fb565b91506101f1836100fb565b925082821015610204576102036101ac565b5b828203905092915050565b600061021a826100fb565b9150610225836100fb565b9250827fffffffffffffffffffffffffffffffffffffffffffffffffffffffffffffffff0382111561025a576102596101ac565b5b82820190509291505056fea2646970667358221220f647dfc293f1420642a4dbd7ca45ee20c9959643e7520df10664cbedba966bb064736f6c634300080d0033",
  "immutableReferences": {},
  "source": "// SPDX-license-Identifier:MIT\npragma solidity ^0.8.13;\n\ncontract Counter {\n  uint256 value;\n\n  constructor(){}\n\n  function increment() public {\n    value += 1;\n  }\n\n  function decrement() public {\n    require(value != 0, \"value 0 error\");\n    // 조건문 통과가 안되면 가스비 지불을 안하고 에러(\"value 0 error\") 표시\n    value -= 1;\n  }\n\n  function getValue() public view returns(uint256) {\n    return value;\n  }\n}",
  "sourcePath": "/Users/jh/Desktop/programing/blockchain/BaseballGame/contracts/Counter.sol",
  "compiler": {
    "name": "solc",
    "version": "0.8.13+commit.abaa5c0e.Emscripten.clang"
  },
  "schemaVersion": "3.4.16",
  "updatedAt": "2023-10-05T08:07:55.206Z",
  "networkType": "ethereum",
  "devdoc": {
    "kind": "dev",
    "methods": {},
    "version": 1
  },
  "userdoc": {
    "kind": "user",
    "methods": {},
    "version": 1
  }
}